:100000000C94C5010C94ED010C94ED010C94ED01E0
:100010000C94ED010C94ED010C94ED010C94ED01A8
:100020000C94ED010C94742A0C94ED010C94ED01E8
:100030000C94ED010C949E2A0C94ED010C94ED01AE
:100040000C945E300C94ED010C94CA320C94113374
:100050000C94ED010C94ED010C94ED010C94ED0168
:100060000C94ED010C94ED014415521560156E15BC
:100070008B159C15AA15BD15CE15B416C216D01633
:10008000E116FE16231731173F1757174D616E758E
:10009000616C204D6F7665004178697320310041B5
:1000A00078697320320043616D657261005061723E
:1000B0006B0052657365740053657474696E677381
:1000C0000053636F70650041786973203100417897
:1000D000697320320053636F70650052616D702048
:1000E00053686F74730052504D00416E676C650029
:1000F00043616C69627261746500536C6F77204D67
:100100006F64652049504D00446973742E207065FA
:100110007220526576004D696E2050756C736500D3
:100120004C65616420496E004C656164204F7574B4
:100130000043616C2E20436F6E7374616E740049CE
:100140006E74657276616C20736563004D61782012
:1001500053686F7473004578702E2054696D652064
:100160006D73004578702E2044656C6179206D7345
:1001700000466F63757320546170206D730053687F
:1001800075747465722B466F637573005265706584
:100190006174005265706561742044656C6179001A
:1001A000416C74204D656E75004D6F746F72204404
:1001B000697370004D6F746F72204D6F64650042FB
:1001C00061636B6C69676874004175746F44696D35
:1001D00020287365632900426C616E6B204C434498
:1001E00000492F4F203100492F4F2032004D6574B8
:1001F00072696320446973702E0053636F706500E9
:1002000043616C2E20537064204C6F770043616C07
:100210002E2053706420486900416C744F7574201F
:10022000507265206D7300416C744F757420506F6F
:100230007374206D7300555342205472696767656B
:100240007200496E766572742044697200496E7658
:1002500065727420492F4F00554C696E65204375B7
:1002600072736F72005061726B204C65667400503F
:1002700061726B20526967687400526573657420FF
:1002800043616C005265736574204D656D0050616B
:100290006E204D616E2E205370642E0054696C7474
:1002A000204D616E2E205370642E008C0098009FAC
:1002B00000A600AD00B200B800C100C700CE00D556
:1002C0000065026F02DB0020012801E600EA00F071
:1002D000003101FA0008011601DB0020012801E6C7
:1002E00000EA00F0003101FA00080116013F014C5C
:1002F000015601630171017E018C019301A001A9E6
:1003000001B401BF01C901D701E101E701ED01FA23
:100310000100020D0219022702360242024D025864
:10032000028E029C027A0284020000000024002750
:10033000002A0000000000250028002B000000001B
:100340000023002600290004040404040404040219
:100350000202020202030303030303010204081062
:10036000204080010204081020010204081020002F
:100370000000070002010000030406000000000066
:10038000000000001C07C22B4E3411241FBECFEF0B
:10039000D8E0DEBFCDBF14E0A0E0B1E0E8E5F2E7D1
:1003A00002C005900D92A031B107D9F716E0A0E187
:1003B000B4E001C01D92A13CB107E1F713E0CAE827
:1003C000D3E004C02297FE010E942639C438D10729
:1003D000C9F70E94A4340C942A390C940000FB0144
:1003E000DC0105900D920020E1F70895DC0101C0C9
:1003F0006D9341505040E0F70895EF92FF920F93B4
:100400001F9380915A0590915B05009711F4E0E0ED
:1004100002C0E82FEC5960915C0570915D0580E0A9
:1004200090E0209156053091570540915805509124
:100430005905620F731F841F951F6E0F711D811D5B
:10044000911D0E94C6377B018C0180919505882300
:10045000B1F460917F047091800420917D0430910B
:100460007E04620F731F80E090E00E94C6379B01FC
:10047000AC01C801B7010E94C5367B018C01C801DF
:10048000B70120E030E04AE754E40E942D371F9185
:100490000F91FF90EF900895CF92DF92EF92FF922D
:1004A0000F931F93CF93DF93082FEB01442359F051
:1004B0000F2EF0E0CF2EF0E0DF2EFFE7EF2EF3E47B
:1004C000FF2EF02D0EC0E82FF0E0EE0FFF1FE856D4
:1004D000FA4F6081718180E090E00E94C6376B0125
:1004E0007C01809148048C7051F00F2EF0E0CF2EEB
:1004F000F0E0DF2EFFE7EF2EF3E4FF2EF02D10E00B
:10050000000F111F000F111F0F5A1A4FBE0180E07C
:1005100090E00E94C637A70196010E942D37F8018E
:1005200027A530A941A952A90E947C38DF91CF911B
:100530001F910F91FF90EF90DF90CF9008953F9221
:100540004F925F926F927F928F929F92AF92BF92E3
:10055000CF92DF92EF92FF920F931F93CF93DF938F
:1005600080916004882309F49CC08091CC058F5F42
:100570008093CC05BDE5AB2EB4E0BB2EEE24FF246A
:10058000CC24DD24A0E24A2E512CF1E06F2E712CF8
:10059000812C912C33243394F601E359FB4F408195
:1005A000518162817381411551056105710509F41D
:1005B00069C0870103531A4FD8018C919701220F0C
:1005C000331F220F331F882391F5E901CA51DC4FF5
:1005D000288139814A815B81F601EB58FB4F80818C
:1005E0009181A281B381281739074A075B0760F41C
:1005F00088819981AA81BB810196A11DB11D888343
:100600009983AA83BB833EC02BB1C2010E2C02C0CA
:10061000880F991F0A94E2F7282B2BB9F801308232
:10062000D5013C92688279828A829B822BC0F90133
:10063000EA51FC4F80819181A281B3818417950793
:10064000A607B70760F480819181A281B3810196EA
:10065000A11DB11D80839183A283B38313C02BB1ED
:10066000C2010E2C02C0880F991F0A94E2F78095F0
:1006700082238BB9D8011C92D5011C9260827182B1
:10068000828293820894E11CF11CE4E0F0E0CE0E3B
:10069000DF1E0894A11CB11CF8E0CF16D10409F0AC
:1006A0007BCFDF91CF911F910F91FF90EF90DF9063
:1006B000CF90BF90AF909F908F907F906F905F9002
:1006C0004F903F900895BF92CF92DF92EF92FF92AA
:1006D0000F931F93B62E833008F041C090E0FC01C9
:1006E000EA56FA4F6083FC01EE0FFF1FEE0FFF1F6B
:1006F000662359F125E6C22E24E0D22ECE0EDF1E4F
:10070000E0915404F0E0EE0FFF1FE80FF91FEE0F29
:10071000FF1FEB5AFB4F6081718180E090E00E94E7
:10072000C6377B018C016B2D70E080E090E00E9469
:10073000C6379B01AC01C801B7010E942D37F601F5
:1007400060837183828393830AC0EB59FB4F80E0FF
:1007500090E0A0E0B0E080839183A283B3831F91F7
:100760000F91FF90EF90DF90CF90BF9008957F9210
:100770008F929F92AF92BF92CF92DF92EF92FF92B1
:100780000F931F93D62E722E91E0961708F4DAC0BD
:100790008823D9F4862F90E0FC01E456FA4F20819B
:1007A00030E0880F991FFC0143E0EE0FFF1F4A95D0
:1007B000E1F7E80FF91FC901880F991F820F931FF6
:1007C000880F991FE80FF91FDDC080904F05C0907A
:1007D0004E05C41608F061C0481508F05EC0642FCD
:1007E00070E06C19710980E090E00E94C6377B01CF
:1007F0008C018C18682D70E080E090E00E94C63774
:100800009B01AC01C801B7010E942D374B015C016F
:100810002D2D30E0F901E456FA4F808190E08C01F3
:10082000000F111F080F191F000F111F220F331F78
:10083000C901E3E0880F991FEA95E1F7280F391FF6
:10084000020F131F070D111D000F111F000F111FA5
:10085000F801EB53FB4FC501B40121813281438183
:1008600054810E947C386B017C0103541B4F60E073
:1008700070E080E89FE3A50194010E94C436F8016E
:1008800021813281438154810E947C389B01AC01DB
:10089000C701B6010E94C5364CC0841608F04CC092
:1008A0002D2D30E0F901E456FA4F808190E0FC01F3
:1008B000EE0FFF1FE80FF91FEE0FFF1F220F331F70
:1008C000C901B3E0880F991FBA95E1F7280F391FC6
:1008D000E20FF31FE70DF11DEE0FFF1FEE0FFF1FDD
:1008E000EB53FB4FA180B280C380D480642F70E0B3
:1008F0006819710980E090E00E94C6377B018C0185
:100900008094682D70E080E090E00E94C6379B01E3
:10091000AC01C801B7010E942D379B01AC01C60193
:10092000B5010E947C389B01AC01C601B5010E9453
:10093000C436E62F692F39C0C41610F041E008C054
:10094000481529F0E0E070E080E86FE32EC042E057
:100950002D2D30E0F901E456FA4F808190E0FC0142
:10096000EE0FFF1FE80FF91FC90163E0880F991F01
:100970006A95E1F7820F931FE80FF91FE40FF11D4D
:10098000EE0FFF1FE70DF11DEE0FFF1FEE0FFF1F14
:10099000EB54FB4FDF011196E18111967C91119789
:1009A00012968C91129713966C912E2F372F482FF9
:1009B000562FB901CA011F910F91FF90EF90DF9060
:1009C000CF90BF90AF909F908F907F9008952F927F
:1009D0003F924F925F926F927F928F929F92AF92CF
:1009E000BF92CF92DF92EF92FF920F931F93DF930C
:1009F000CF93CDB7DEB72A970FB6F894DEBF0FBE00
:100A0000CDBFF82E8B01E42E482F50E05A8749873E
:100A100080E090E00E94C63720E030E04FE753E4EA
:100A20000E942D3720E030EA46EA54E40E947C38E8
:100A30000E949A375B016C0189849A84880C991C06
:100A4000880C991CF401E359FB4FA082B182C28249
:100A5000D382C601B5010E94C6379B01AC0160E09C
:100A600070EA86EA94E40E94C4360E949A376D8345
:100A70007E838F83988715E7212E14E0312E280C72
:100A8000391CD1016D937D938D939C931397E091C5
:100A90005404F0E0EE0FFF1FEF5AFA4F49855A85D4
:100AA000E40FF51F81E06F2D402F238D0E94B703C7
:100AB0002B013C01EE2051F520E030E040E85FE3FF
:100AC0000E942937882311F16D817E818F8198855D
:100AD0000E94C6377B018C0166E475E0860E971E86
:100AE000C301B201D4012D913D914D915C910E94C1
:100AF0007C389B01AC01C801B7010E947C380E9480
:100B00009A37F1016083718382839383A114B104C6
:100B1000C104D10481F4E985FA85EE0FFF1FEE0FC1
:100B2000FF1FE359FB4F81E090E0A0E0B0E080833D
:100B30009183A283B38329853A85220F331F220F25
:100B4000331F7DE6272E74E0372E220E331ED1018F
:100B50004D905D906D907C9041145104610471043E
:100B600009F44AC0E985FA85EE56FA4F8081482F8C
:100B700050E060E070E049835A836B837C834416C5
:100B8000550666067706C0F565E7862E64E0962E64
:100B9000820E931ED4016D917D918D919C910E9446
:100BA000C6375B016C0169817A818B819C810E94CF
:100BB000C6377B018C01C301B2010E94C6379B017D
:100BC000AC01C801B7010E942D379B01AC01C601E1
:100BD000B5010E947C380E949A37F40160837183CA
:100BE0008283938349815A816B817C81D1014D93AA
:100BF0005D936D937C9313972A960FB6F894DEBF9E
:100C00000FBECDBFCF91DF911F910F91FF90EF905D
:100C1000DF90CF90BF90AF909F908F907F906F901C
:100C20005F904F903F902F900895AF92BF92CF92D8
:100C3000DF92EF92FF920F931F93D82E60914A0498
:100C4000673009F065C080914704882359F40F2E5E
:100C5000FAE0EF2EF7EDFF2EF3E20F2FFCE31F2F4C
:100C6000F02D0AC00F2EFDECEF2EFCECFF2EFCEC5D
:100C70000F2FFDE31F2FF02D6091D1027091D20252
:100C800080E090E00E94C6379B01AC01C801B7012B
:100C90000E947C387B018C0171E0D71669F4609169
:100CA0003204709133048091340490913504A8018A
:100CB00097010E94C53623C0A0903204B09033043F
:100CC000C0903404D0903504C601B501A801970145
:100CD0000E94293788236CF480E090E0A0E0B0E027
:100CE0008093320490933304A0933404B09335047A
:100CF0009AC0C601B501A80197010E94C43660934D
:100D000032047093330480933404909335048BC081
:100D1000862F8150863048F490E0809136048823F5
:100D200009F491E0909336047EC08091D1029091B5
:100D3000D202A0E0B0E020912E0430912F04409127
:100D400030045091310471E0D71629F4280F391F6F
:100D50004A1F5B1F12C0281739074A075B0748F470
:100D600010922E0410922F0410923004109231042D
:100D70000CC0281B390B4A0B5B0B20932E043093BD
:100D80002F044093300450933104683091F48091E3
:100D90002E0490912F04A0913004B0913104039758
:100DA000A105B10508F43FC082E090E0A0E0B0E00A
:100DB00012C06930C9F480912E0490912F04A09143
:100DC0003004B09131040997A105B10560F188E0C4
:100DD00090E0A0E0B0E080932E0490932F04A093C5
:100DE0003004B09331041FC06B30E9F480912E04BD
:100DF00090912F04A0913004B09131040297A10585
:100E0000B10560F081E090E0A0E0B0E080932E04B6
:100E100090932F04A0933004B09331048091480440
:100E20008F7E809348041F910F91FF90EF90DF9089
:100E3000CF90BF90AF900895CF92EF920F9380EA3A
:100E400094E061E142E12BE008E057E0E52E34E078
:100E5000C32E0E9492290F91EF90CF900895E62F14
:100E6000F0E0EE0FFF1FEE0FFF1FE956FB4F408132
:100E700051816281738180EA94E022E030E00E9437
:100E8000C0360895EF92FF920F931F9390E0A0E079
:100E9000B0E0BC01CD010E94C63720E030E04FE752
:100EA00053E40E942D3720E030E048EC52E40E94E9
:100EB0007C387B018C0120E030E048EC52E40E9459
:100EC000293788234CF480EA94E0B801A70121E097
:100ED00030E00E94C0360DC0C801B7010E949537AE
:100EE0009B01AC0180EA94E0B9014AE050E00E9425
:100EF000C63580EA94E065E20E94DD341F910F91CF
:100F0000FF90EF9008959C01862FB90140919505BF
:100F10000E944C02AB01BC0180EA94E022E030E088
:100F20000E94C0368091AB05882321F080EA94E0CE
:100F300063E603C080EA94E069E60E94DD34089528
:100F40000F931F9300EA14E0C8010E94D428C8013F
:100F500060E040E00E94A528C80160E071E00E94C6
:100F6000D935C80160E041E00E94A52840913204D3
:100F7000509133046091340470913504C80122E02B
:100F800030E00E94C0361F910F91089580EA94E0EE
:100F90000E94D42880EA94E060E040E00E94A52806
:100FA00080914B0487FF12C080914C04807C21F417
:100FB0008091BD05813029F480EA94E06CE071E015
:100FC00009C080EA94E060E171E004C080EA94E046
:100FD00063E171E00E94D93580EA94E064E040E08A
:100FE0000E94A528089585E0E0E1F4E0DF011D926C
:100FF0008A95E9F708951F93182F823088F480931B
:101000005304882311F086E001C085E06FEF70E0A3
:101010000E948331E12FF0E0E35AFB4F81E08083AF
:101020001F910895682F80915F04882329F489E037
:1010300070E00E9483310895662319F089E061E031
:1010400002C089E060E00E94223208953F924F92F0
:101050005F926F927F928F929F92AF92BF92CF9248
:10106000DF92EF92FF920F931F93CF93DF93382E6F
:101070003B0181E0831508F4C8C080915404A82F77
:10108000B0E0832C99246D01CC0CDD1CF601E80D39
:10109000F91DEE0FFF1FEB5AFB4F71836083E401D4
:1010A000CC0FDD1F8DE7482E84E0582E4C0E5D1EC0
:1010B000F2011182108280919505882321F480919C
:1010C00048048C70B1F0FFEF6F16710409F008F45A
:1010D0004EC0AA0FBB1FA80DB91DAA0FBB1FAB5A4C
:1010E000BB4F8FEF90E08D939C93BFEF6B2E712CD5
:1010F00041C080E090E00E94C6377B018C01C85659
:10110000DA4F6881798180E090E00E94C6379B01C8
:10111000AC01C801B7010E942D3720E030E64AE655
:1011200057E40E947C380E949A377B01F201718358
:10113000608381E595E0C80ED91EC80CD91C80E0FB
:10114000632D40E0F601238D0E94B7035B016C0123
:1011500000E010E0C801B7010E94C637A601950162
:101160000E947C380E949A37F20171836083611477
:10117000710471F0F401E057FA4F808190E0681635
:10118000790630F4832DB30140E00E94E7040BC0E0
:10119000F401EE0FFF1FEE0FFF1FE359FB4F10820C
:1011A000118212821382332011F425E001C026E05F
:1011B00080914B0484FF29C0809148048C7071F4A5
:1011C000F401EE0FFF1FE358FB4F80819181892BC3
:1011D00029F0822F60E00E94223217C0F401E0570C
:1011E000FA4F808190E0E401C35ADB4F681679061C
:1011F00038F0822FB3010E94833181E0888305C0DB
:10120000822F60E00E9422321882DF91CF911F91DD
:101210000F91FF90EF90DF90CF90BF90AF909F9095
:101220008F907F906F905F904F903F9008955F9266
:101230006F927F928F929F92AF92BF92CF92DF92E6
:10124000EF92FF920F931F93CF93DF9375E6672E74
:1012500074E0772E6EE9862E65E0962EC0E0D0E031
:101260005C2EFE01EA56FA4FE081EE2309F49BC0A2
:10127000E0908104F0908204009183041091840432
:10128000D4018D919C91BC0180E090E06E157F05AA
:101290008007910720F08C2F60E070E082C0AE2EB6
:1012A000BB24CC24DD24A8019701261B370B480B57
:1012B000590BCA01B901A216B306C406D50658F1E6
:1012C0000E94C637D3012D913D914D915C910E94B2
:1012D0007C385B016C01E0915404F0E0EE0FFF1FDD
:1012E000EC0FFD1FEE0FFF1FEF5AFA4F6389748951
:1012F00080E090E00E94C6377B018C01C601B501F9
:10130000A80197010E947838181614F45701680153
:10131000C601B5013AC080915E0590915F059C01C0
:1013200040E050E02E193F09400B510BF40184813D
:101330009581A0E0B0E0281B390B4A0B5B0BA2168D
:10134000B306C406D50678F1CA01B9010E94C637B2
:10135000D3012D913D914D915C910E947C387B0190
:101360008C0120E030E040E050E00E9429378823E3
:1013700054F40F2EF0E0EF2EF0E0FF2EF0E00F2FF0
:10138000F0E01F2FF02DC801B70120E030E040E071
:101390005FE30E94C5360E9495379B01AC01852D05
:1013A000B9010E9426082196E4E0F0E06E0E7F1E4F
:1013B00022E030E0820E931EC230D10509F050CFFA
:1013C000DF91CF911F910F91FF90EF90DF90CF9021
:1013D000BF90AF909F908F907F906F905F90089597
:1013E0000F931F93CF93DF93982FC82FD0E0E091F6
:1013F0005404662311F5F0E0EE0FFF1FEC0FFD1F04
:10140000EE0FFF1FEB5AFB4F0081118160E070E08F
:101410000E942608E0915404F0E0EE0FFF1FEC0F4D
:10142000FD1FEE0FFF1FEB5AFB4F118300838091CE
:101430004B048F7E80934B0413C080914B048061DA
:1014400080934B04F0E0EE0FFF1FEC0FFD1FEE0F3B
:10145000FF1FEB5AFB4F60817181892F0E94260884
:10146000DF91CF911F910F910895282FA82FB0E001
:10147000E0915404F0E0EE0FFF1FEA0FFB1FEE0FA8
:10148000FF1FEB5AFB4F80819181680F791F6F3FDF
:1014900071051CF06FEF70E00EC077FF02C060E0D6
:1014A00070E0442341F0A057BA4F8C9190E0681748
:1014B00079070CF4BC01822F0E9426080895982F0A
:1014C000882309F457C08091C805891709F052C0D4
:1014D0000E94A63020914304309144044091450479
:1014E00050914604621B730B840B950B2091E20311
:1014F0003091E3034091E4035091E5032617370749
:101500004807590710F080E008950E94A630209106
:10151000C4053091C5054091C6055091C705621BB1
:10152000730B840B950B2091E2033091E303409100
:10153000E4035091E503261737074807590710F0D1
:1015400082E008950E94A6306093C4057093C5059B
:101550008093C6059093C70588EC90E0A0E0B0E0CA
:101560008093E2039093E303A093E403B093E50335
:1015700083E008959093C8059923B1F00E94A630A6
:10158000609343047093440480934504909346040D
:101590000E94A6306093C4057093C5058093C6056C
:1015A0009093C70581E0089584EF91E0A0E0B0E05A
:1015B0008093E2039093E303A093E403B093E503E5
:1015C00080E00895CF93DF9380E00E946131EC01C9
:1015D0008091CF029091D0028C1B9D0B97FF03C08E
:1015E000909581959F4FCD977CF0D093D002C0937A
:1015F000CF020E94A6306093370470933804809322
:10160000390490933A0439C00E94A63020913704DF
:10161000309138044091390450913A04621B730BA5
:10162000840B950B643171058105910530F1CE0174
:101630000B978737910510F481E020C0CE018F5BB6
:1016400090408737910510F482E018C0CE0187588A
:1016500091408737910510F483E010C0CE01845586
:1016600092408737910510F484E008C0C350D340FE
:10167000C737D10510F485E001C080E0DF91CF913C
:101680000895FF920F931F93CF93DF93182F8E5FD0
:101690000E947632FF24892B11F4FF24F394012F4A
:1016A00010E0F801E357FB4F8081E801CC0FDD1F0C
:1016B000CC0FDD1FF81651F0F0820E94A630CB57F8
:1016C000DB4F688379838A839B8315C00E94A63091
:1016D000CB57DB4F288139814A815B81621B730BB9
:1016E000840B950B683C71058105910520F0F8018C
:1016F000E157FB4FF08201571B4FF8018081DF91CA
:10170000CF911F910F91FF9008950F931F93082F72
:10171000162F862F8550833018F5802F8E5F61E05D
:101720000E94E331153051F480E890E002C09595B5
:1017300087950A95E2F720914D040EC020914D0443
:10174000163019F480E290E002C080EA90E002C016
:10175000959587950A95E2F7282B20934D0434C080
:10176000662399F4802F8E5F60E00E94223280EA27
:1017700090E002C0959587950A95E2F780952091B3
:101780004C04282320934C041FC020914C04643047
:1017900051F480E890E0002E02C0959587950A9458
:1017A000E2F7282B0AC080EA90E0002E02C095954F
:1017B00087950A94E2F78095282320934C04802F84
:1017C0008E5F62E00E94E3311F910F9108950F93A5
:1017D0001F9389E061E00E94E33189E06FEF70E0E0
:1017E0000E94833100EA14E0C80160E142E020E099
:1017F0000E94DC28C80160E040E00E94A528C801E2
:101800000E94D428C80167E171E00E94D935C8015F
:1018100065E041E00E94A528C80168E271E00E94ED
:10182000D93560ED77E080E090E00E94F930C801A2
:101830000E94D428C80160E040E00E94A528C801A9
:1018400063E371E00E94D935C80160E041E00E9485
:10185000A528C80164E471E00E94D9358EE060E0FB
:101860000E94E3318EE061E00E94223280914804C0
:1018700082688093480460ED77E080E090E00E9409
:10188000F9301F910F9108958093C905882389F03D
:101890008091C205882329F080EA94E00E94812883
:1018A00004C080EA94E00E946F2881E08093CB0519
:1018B00008958091C205882329F080EA94E00E946F
:1018C0008B28089580EA94E00E94792808950F9368
:1018D0001F938091480481608093480400EA14E0DB
:1018E000C8010E94D42880E00E94440CC80165E52C
:1018F00071E00E94D9356091530470E06F5F7F4FB3
:10190000C8014AE050E00E94C635C8016BE571E0AD
:101910000E94D935609163048DE2689FB001112463
:10192000C8014AE050E00E947435C8016EE571E0DC
:101930000E94D9351F910F91089580EA94E00E948A
:10194000D42880E00E94440C80EA94E060E040E00B
:101950000E94A52880915304882329F480EA94E00A
:1019600064E671E004C080EA94E06BE671E00E94F6
:10197000D93580EA94E060E041E00E94A52880EA41
:1019800094E062E771E00E94D93560915304E62F3C
:10199000F0E0EE0FFF1FE75AFB4F2081918180910D
:1019A0009405882321F0822F0E9483070895822FB7
:1019B0000E94420708950F931F9380919F048062B5
:1019C00080939F0400EA14E0C8010E94D42880E0BC
:1019D0000E94440CC8016AE771E00E94D935C80131
:1019E00060E041E00E94A528C80167E871E00E941C
:1019F000D9351F910F910895982F809148048460E4
:101A00008093480481E080935404923041F48091A3
:101A10009F04806280939F040E94DB0C0895909342
:101A200053040E949D0C0895EF92FF920F931F9311
:101A30007B018C0180916205882321F08CE061E0BC
:101A40000E9422328DE061E00E942232C801B7017B
:101A50004DE25EE00E94CB290E94192A80914B043E
:101A6000806480934B041F910F91FF90EF90089535
:101A7000EF92FF920F931F93982F813049F4E090DB
:101A8000AC05F090AD050091AE051091AF0508C012
:101A9000E090B005F090B1050091B2051091B3054A
:101AA00080914B04886080934B0480914D04913069
:101AB00059F487FF04C082E061E00E9422328091E5
:101AC0004D0486FF0FC00AC085FF04C082E061E0BC
:101AD0000E94223280914D0484FF04C083E061E0C3
:101AE0000E942232C801B70142E45EE00E94CB2985
:101AF0000E94192A1F910F91FF90EF9008958091F5
:101B00006004882351F58091C005882319F089E08D
:101B100061E002C089E060E00E94223285E060E07E
:101B20000E94223286E060E00E94223283EE95E03D
:101B30004EE150E060E070E00E94342B83EE95E0CF
:101B40006FE972E02FEF3FEF4FEF5FEF0E943C2B0A
:101B500081E08093600480935F0408958091600425
:101B6000882331F083EE95E00E945C2B1092600494
:101B700085E060E00E94223286E060E00E9422322E
:101B800080E060E00E94F00981E060E00E94F009DE
:101B9000089580914B048F7680934B040E94AE0D84
:101BA0008091540490E045E554E0FC01EE0FFF1FE6
:101BB000EE0FFF1FBA016E0F7F1FA1E5B5E0EA0F20
:101BC000FB1F23893489FB0131832083880F991FF0
:101BD000880F991F0296480F591FA80FB91F5396D7
:101BE0008D919C915497FA019183808308950E946E
:101BF0002F2A80915304882311F086E001C085E0EC
:101C000060E070E00E948331809162048F5F809376
:101C10006204E0915304F0E0E35AFB4F1082089510
:101C20000E942F2A84E080934E0408950E942F2A58
:101C30008CE060E00E94223282E080934E0408959E
:101C40000E942F2A80914B048F7B80934B048091BC
:101C50004B04806280934B0408958DE060E00E9405
:101C600022328CE060E00E9422320E942F2A809172
:101C70004B048F7B80934B0480914B048062809354
:101C80004B04089580914D04807A21F082E060E059
:101C90000E94223280914D04807521F083E060E043
:101CA0000E9422320E942F2A80914B04877F8093CA
:101CB0004B040895AF92BF92CF92DF92FF920F93A1
:101CC0001F93F82E5A016B0108EE15E0C8010E941F
:101CD000CD2DEF2DF0E0EE0FFF1FEE0FFF1FE956A9
:101CE000FB4FA082B182C282D382F394C8016F2DD0
:101CF00041E00E94622BC8016F2DA60195010E9450
:101D0000BB2E1F910F91FF90DF90CF90BF90AF90AF
:101D100008951F93182F88EE95E00E94CD2D4091D5
:101D20009F04E12FF0E020E830E0012E02C035955D
:101D300027950A94E2F7842F90E082239323892B3E
:101D400061F4422B40939F041F5FED56FB4F88EEDA
:101D500095E0612F40810E94782F1F910895809116
:101D60009F0487FD17C0609197047091980480913B
:101D7000990490919A0420E030E040E050E00E9405
:101D8000783818163CF4809193048093950480E091
:101D90000E94890E80919F0486FD17C060919B046C
:101DA00070919C0480919D0490919E0420E030E00D
:101DB00040E050E00E94783818163CF4809194047A
:101DC0008093960481E00E94890E0895BF92CF927D
:101DD000DF92EF92FF920F931F93D82EB62EB8EE9C
:101DE000EB2EB5E0FB2EC7010E94CD2DCD2CC39468
:101DF000C7016C2D43E00E94622B0D2D10E0F8010D
:101E0000EE0FFF1FEE0FFF1FEC54FA4F20813181C0
:101E100042815381C7016C2D0E94BB2EF801ED5603
:101E2000FB4F80810B561B4FD8018C93B0828D2DB8
:101E30000E94890E1F910F91FF90EF90DF90CF903D
:101E4000BF900895EF92FF921F93182F88EEE82E0F
:101E500085E0F82EC7010E94CD2D80E890E0012E8C
:101E600002C0959587950A94E2F7809520919F048A
:101E7000282320939F041F5FC701612F0E94722DAA
:101E80001F91FF90EF900895AF92BF92CF92DF9293
:101E9000EF92FF920F931F93182F5A016B0198EE48
:101EA000E92E95E0F92EC7010E94CD2DE12FF0E03B
:101EB00080E890E0012E02C0959587950A94E2F79C
:101EC00020919F04282B20939F041F5FED56FB4F0A
:101ED000C701612F4081960185010E94FF2F1F914C
:101EE0000F91FF90EF90DF90CF90BF90AF9008954B
:101EF000AF92BF92CF92DF92EF92FF920F931F9318
:101F000020915E0530915F0521153105E1F140E03A
:101F100050E08091810490918204A0918304B0915B
:101F2000840482179307A407B50768F18091D3054D
:101F3000882321F5609155047091560480E090E06B
:101F40000E94C63720E030E040E050E00E94293790
:101F5000181684F0609157047091580480E090E066
:101F60000E94C63720E030E040E050E00E94293770
:101F7000181624F480919505882329F01092D30532
:101F80000E94C90D32C080914E04823071F464E623
:101F900070E080E090E040E15EE00E94CB290E948A
:101FA000192A83E080934E0420C0809195058823F0
:101FB000E1F020915504309156042115310531F09E
:101FC0008091900590E02817390768F02091570418
:101FD000309158042115310541F08091910590E030
:101FE0002817390710F40E947F0D809195058823EA
:101FF00049F08091BC05882329F00E94AF0E81E052
:102000008093D305809161048823A1F1209162041B
:10201000213019F58091D205882309F068C180919B
:102020007D0490917E04892BA9F060917F047091CA
:1020300080046115710571F02093D20580E090E075
:1020400047EF5DE00E94CB2981E00E94FB070E94E0
:10205000192A4DC110926104CFC080916204882377
:1020600009F445C11092610481E08093D305109278
:10207000D2053DC180914B04887409F038C180912C
:102080004E04833009F0CDC132C180914B048F7D65
:1020900080934B048091D505813081F51092D50550
:1020A0008091810490918204A0918304B091840472
:1020B0000196A11DB11D8093810490938204A09389
:1020C0008304B09384040E94170960915C057091A9
:1020D0005D056115710591F080914B0480648093DA
:1020E0004B0480E090E040E25EE00E94CB290E9439
:1020F000192A1092D4051092D30516C080914D0470
:10210000807379F08091B0059091B105A091B205EE
:10211000B091B3050097A105B10519F080E00E94C8
:10212000380D81E08093D4058091D405813009F089
:10213000DEC08091BC05882309F4D9C08091950543
:10214000882309F0D4C0E0909704F090980400919F
:10215000990410919A04C801B70120E030E040E0F2
:1021600050E00E94783818163CF480E0B801A701CE
:102170000E94440F1092D305E0909B04F0909C04C1
:1021800000919D0410919E04C801B70120E030E049
:1021900040E050E00E94783818160CF0A8C081E0AA
:1021A000B801A7010E94440F5EC08091D405813020
:1021B00009F05CC080919505882309F057C0809193
:1021C000BC058823E9F080919F04807CC9F088EEEB
:1021D00095E061E00E94842C882309F088C088EE95
:1021E00095E062E00E94842C882309F080C08091F1
:1021F0009F048F7380939F0481E08093D30577C001
:1022000020917D0430917E042115310531F48091B7
:102210007F0490918004892B49F110926204232B52
:1022200041F080E00E94FB0760917D0470917E0484
:102230000DC080917F0490918004892B69F081E02A
:102240000E94FB0760917F047091800480E090E021
:1022500047EF5DE00E94CB290E94192A81E080931C
:1022600061041092D4051092D30541C08091BD0540
:10227000813021F080914C04807C41F080914C04AD
:1022800085FF35C08F7D80934C042EC060914F0434
:102290007091500480915104909152040E94C6376D
:1022A0005B016C010E94A6300E94C6377B018C0145
:1022B0006091520570915305809154059091550598
:1022C00020E030E04AE754EC0E947C389B01AC01EE
:1022D000C801B7010E94C5369B01AC01C601B5011A
:1022E0000E94293788231CF481E08093D1058091D6
:1022F000D105813009F0A0C080914D04807CF9F0B7
:102300008091AC059091AD05A091AE05B091AF055F
:102310000097A105B10599F08091D005882379F443
:1023200080916305882321F08091CF05882339F4BB
:1023300081E00E94380D81E08093D0057DC020911E
:102340004E04243081F080915A0590915B05892BD1
:1023500051F080916305882309F468C08091CF050E
:10236000882309F463C080914B0483FD5FC0809192
:102370006305882321F08091CF05882351F40E94C2
:10238000A63060934F04709350048093510490934F
:10239000520490916305992321F08091CF0589170C
:1023A00050F081E08093D5051092D1051092D005B0
:1023B0001092CF050FC0882341F0609160057091A5
:1023C000610580E090E00E94F9308091CF058F5F39
:1023D0008093CF05609156057091570580915805FF
:1023E000909159050E94140D10924E0425C022238D
:1023F00019F580914B0483FD1FC08CE061E00E94C1
:10240000223260915A0570915B0580E090E046E1D0
:102410005EE00E94CB290E94192A81E080934E043D
:102420000BC080914B0485FD30CEBFCE80915A0504
:1024300090915B05892BD9F61F910F91FF90EF903A
:10244000DF90CF90BF90AF900895CF93DF93CCEB08
:10245000D0E085E196E0BE010E944B30FE01EB56D4
:10246000FB4F8083219681E0CF32D80791F7DF912F
:10247000CF910895CF93DF93C0E2D0E085E196E05D
:10248000BE010E944B30FE01EB56FB4F808321962C
:10249000CC3BD10599F7DF91CF910895CF93DF938E
:1024A0000E943A120E94251280EA94E00E94D428E9
:1024B00080EA94E065E971E00E94D93580EA94E011
:1024C0006091B5044AE050E00E94743580EA94E0DF
:1024D00060E041E00E94A52880EA94E061EA71E0B2
:1024E0000E94D93580EA94E0609151054AE050E0BD
:1024F0000E94743560ED77E080E090E00E94F93052
:1025000080EA94E00E94D4288091B5048D3521F4AE
:10251000809150058D3529F1C0E2D0E0FE01ED54E7
:10252000FD4F85E196E0BE0140810E945230219628
:10253000CC3BD10599F780EA94E06DEA71E00E9406
:10254000D93580EA94E06DE570E04AE050E00E9401
:10255000C6350E943A1260ED77E080E090E00E947C
:10256000F930809151058D3521F48091C3058D3569
:1025700061F1CCEBD0E0FE01ED54FD4F85E196E03A
:10258000BE0140810E945230219681E0CF32D807AF
:1025900091F780EA94E060E041E00E94A52880EA9B
:1025A00094E069EB71E00E94D93580EA94E06DE532
:1025B00070E04AE050E00E94C6350E94251260EDAE
:1025C00077E080E090E00E94F9308091640590917E
:1025D000650590935604809355048091660590910B
:1025E00067059093580480935704809168059091F3
:1025F000690590935A048093590480916A059091DB
:102600006B0590935C0480935B04DF91CF910895F8
:10261000CF93DF93C0E2D0E085E196E0BE010E9457
:102620004B30FE01EB56FB4F4081841729F085E1CA
:1026300096E0BE010E9452302196CC3BD10561F755
:10264000CCEBD0E085E196E0BE010E944B30FE016C
:10265000EB56FB4F4081841729F085E196E0BE01DF
:102660000E945230219681E0CF32D80759F7DF918E
:10267000CF910895EF92FF920F931F93982F10928E
:10268000470487E080934A04992321F0913009F0B0
:102690006AC031C0613031F5E0903204F09033040B
:1026A0000091340410913504C801B70120E030E0F6
:1026B0004FEA53E40E947838181654F40F2EF0E0D5
:1026C000EF2EF0E0FF2EFFEA0F2FF3E41F2FF02D87
:1026D000E092B405F092B5050093B6051093B705E6
:1026E0000E9408138091B4059091B505A091B6059C
:1026F000B091B70530C0613031F5E0903204F09010
:1027000033040091340410913504C801B70120E06E
:1027100030E04FEA53E40E947838181654F40F2E34
:10272000F0E0EF2EF0E0FF2EFFEA0F2FF3E41F2F73
:10273000F02DE092B805F092B9050093BA05109318
:10274000BB050E9408138091B8059091B905A0912E
:10275000BA05B091BB058093320490933304A093E3
:102760003404B09335041F910F91FF90EF900895BA
:1027700091E090934A048823B1F4613069F4809128
:102780003604882311F080E001C08EE58093B50403
:10279000809350050E9408138091B5048E35E9F4AA
:1027A0008091500515C0613069F48091360488230A
:1027B00011F080E001C08EE5809351058093C30540
:1027C0000E940813809151058E3539F48091C3051C
:1027D0008E3519F410923604089581E08093360402
:1027E000089510924704833009F46EC0843030F4A9
:1027F0008130E1F1823008F04AC00DC0853009F423
:1028000085C0853008F471C0863009F48FC08730E8
:1028100009F0D4C0B9C087E080934A0481E0809376
:102820004704613091F48091320490913304A09177
:102830003404B09135048093520590935305A093CE
:102840005405B09355050E9408138091520590914C
:102850005305A0915405B09155058093320490938F
:102860003304A0933404B09335040895613051F4D7
:1028700080912E0490912F0490935F0580935E05C4
:102880000E94081380915E0590915F0572C06130CF
:1028900091F480912E0490912F04A0913004B09176
:1028A00031048093560590935705A0935805B09333
:1028B00059050E9408138091560590915705A091E3
:1028C0005805B091590557C0613051F480912E04DC
:1028D00090912F0490935D0580935C050E940813EE
:1028E00080915C0590915D0544C0613051F4809108
:1028F0002E0490912F0490935B0580935A050E94BB
:10290000081380915A0590915B0533C081E0809354
:102910004A04613031F480913604809362050E944C
:102920000813809162058093360408956130F1F4B4
:1029300080912E0490912F04A0913004B091310425
:102940008F3F9105A105B10529F020F08FEF90E0B0
:10295000A0E0B0E080932E0490932F04A093300465
:10296000B0933104809363050E940813809163053E
:1029700090E0A0E0B0E080932E0490932F04A09309
:102980003004B09331040895613051F480912E04E5
:1029900090912F0490936105809360050E94081325
:1029A0008091600590916105A0E0B0E080932E04D5
:1029B00090932F04A0933004B09331040895AF9204
:1029C000BF92CF92DF92EF92FF920F931F93A82EA8
:1029D000BB24CB01BA01A90198010E947C386B018C
:1029E0007C0101E515E0F501EE0FFF1FEE0FFF1F63
:1029F000E00FF11F67A770AB81AB92AB0A0D1B1DF7
:102A0000015C1F4F67A970AD81AD92ADA701960122
:102A10000E942D3720E030E04FE753E40E947C38DD
:102A20000E949A37F8016083AA0CBB1C88E995E0E4
:102A3000A80EB91EC701B60120E030E048EC52E410
:102A40000E947C380E949A37F501718360830E944E
:102A500008131F910F91FF90EF90DF90CF90BF90E0
:102A6000AF9008950F931F9310924A04E82FF0E05F
:102A7000E231F10508F032C2EC5CFF4FEE0FFF1FB0
:102A80000590F491E02D099481E080934A0461302F
:102A900031F4809136048093C1050E94081380911F
:102AA000C1051AC284E080934A04613031F48091F8
:102AB0003604809394050E940813809194050CC2FB
:102AC00085E080934A04613031F48091360480932C
:102AD00095050E94081380919505FEC16130C1F4EF
:102AE00080912E0490912F04A0913004B091310474
:102AF0008F3F9105A105B10529F020F08FEF90E0FF
:102B0000A0E0B0E08093C0050E9412080E94081364
:102B10008091C00552C1613051F480912E04909192
:102B20002F049093A7058093A6050E940813809117
:102B3000A6059091A70542C181E080934A046130C7
:102B400031F4809136048093A8050E940813809187
:102B5000A805C2C189E080934A04613059F480918C
:102B60002E048093A9050E94081380E060912E0432
:102B70000E94850B8091A90520C189E080934A04B9
:102B8000613049F460912E046093AA0581E00E94AF
:102B9000850B0E9408138091AA050FC181E08093E4
:102BA0004A04613009F0DDC0109136048091AB0514
:102BB000181709F4D6C0882309F451C06091700534
:102BC0007091710580917205909173052CE53FE835
:102BD00042E250E40E942D376093700570937105B6
:102BE00080937205909373056091880570918905B3
:102BF00080918A0590918B052CE53FE842E250E4F4
:102C00000E942D37609388057093890580938A050B
:102C100090938B0560917405709175058091760590
:102C2000909177052CE53FE842E250E40E942D3771
:102C3000609374057093750580937605909377057E
:102C400060918C0570918D0580918E0590918F0516
:102C50002CE53FE842E250E40E942D3750C06091DD
:102C600070057091710580917205909173052CE546
:102C70003FE842E250E40E947C3860937005709314
:102C8000710580937205909373056091880570912A
:102C9000890580918A0590918B052CE53FE842E2F9
:102CA00050E40E947C386093880570938905809376
:102CB0008A0590938B0560917405709175058091DC
:102CC0007605909177052CE53FE842E250E40E94BA
:102CD0007C386093740570937505809376059093A6
:102CE000770560918C0570918D0580918E0590918E
:102CF0008F052CE53FE842E250E40E947C38609367
:102D00008C0570938D0580938E0590938F0510939D
:102D1000AB050E94081340917805509179056091A8
:102D20007A0570917B0500917005109171052091D5
:102D300072053091730580E00E94DF1440917C059C
:102D400050917D0560917E0570917F05009174051D
:102D500010917505209176053091770581E00E94EC
:102D6000DF148091AB05B8C081E080934A046130E4
:102D700031F4809136048093BC050E940813809141
:102D8000BC05AAC08AE080934A04613031F4809186
:102D90002E0480934E050E94081380914E050DC0AD
:102DA0008AE080934A04613031F480912E0480934C
:102DB0004F050E94081380914F0590E0A0E0B0E01D
:102DC00039C0613091F480912E0490912F04A0912C
:102DD0003004B09131048093AC059093AD05A0937D
:102DE000AE05B093AF050E9408138091AC05909199
:102DF000AD05A091AE05B091AF051CC0613091F456
:102E000080912E0490912F04A0913004B091310450
:102E10008093B0059093B105A093B205B093B3052C
:102E20000E9408138091B0059091B105A091B20560
:102E3000B091B30580932E0490932F04A093300497
:102E4000B09331044BC081E080934A04613031F487
:102E5000809136048093BD050E9408138091BD05C2
:102E60003BC081E080934A04613031F480913604A4
:102E70008093BF050E9408138091BF052DC081E09B
:102E800080934A04613059F480913604882311F00C
:102E900083E001C082E08093BE050E940813109277
:102EA00036048091BE058230C9F081E015C081E012
:102EB00080934A04613071F41091C90580E00E944A
:102EC000440C809136048093C205812F0E94440CEB
:102ED0000E9408138091C205809336041F910F91C0
:102EE0000895FF920F931F93F42E10924A0484309A
:102EF00009F48CC0853050F4813049F18130C8F03C
:102F00008230E1F1833009F067C151C0873009F4A4
:102F1000BDC0883038F4853009F48BC0863009F0A4
:102F20005BC18CC0883009F4EBC0893009F054C112
:102F30001EC1613039F4842F60912E040E94630316
:102F40000E940813EF2DF0E0EA56FA4F39C16130C4
:102F500071F4E42FF0E0EE0FFF1FE256FA4F80917C
:102F60002E0490912F04918380830E940813EF2DEB
:102F7000F0E0EE0FFF1FE256FA4F16C0613071F419
:102F8000E42FF0E0EE0FFF1FEE55FA4F80912E0474
:102F900090912F04918380830E940813EF2DF0E01D
:102FA000EE0FFF1FEE55FA4F808191810BC187E034
:102FB00080934A046130E9F4E42FF0E04091320458
:102FC000509133046091340470913504EE0FFF1F6B
:102FD000EE0FFF1FEF5AFA4F47A350A761A772A742
:102FE000078D10A121A132A18F2D0E94DF140E9414
:102FF0000813EF2DF0E0EE0FFF1FEE0FFF1FEF5A4B
:10300000FA4F87A190A5A1A5B2A5A8C088E080939A
:103010004A04613049F4E42FF0E0E456FA4F80911D
:103020002E0480830E940813EF2DF0E0E456FA4F3F
:10303000C7C0409353040E94670CCEC087E08093C2
:103040004A046130B1F4E42FF0E0EE0FFF1FEE0F01
:10305000FF1FEA5BFA4F8091320490913304A091F4
:103060003404B091350480839183A283B3830E949A
:103070000813EF2DF0E0EE0FFF1FEE0FFF1FEA5BCE
:10308000FA4F80819181A281B38168C080934A0404
:10309000613049F5042F10E06091320470913304DF
:1030A0008091340490913504F801EE0FFF1FEE0F6C
:1030B000FF1FEF5AFA4F67AB70AF81AF92AF005767
:1030C0001A4F27A530A941A952A90E942D3720E007
:1030D00030E04FE753E40E947C380E949A37F801B1
:1030E00060830E940813EF2DF0E0EE0FFF1FEE0F3C
:1030F000FF1FEF5AFA4F87A990ADA1ADB2AD2EC018
:1031000087E080934A046130E9F4E42FF0E0009115
:103110003204109133042091340430913504EE0FC1
:10312000FF1FEE0FFF1FEF5AFA4F078F10A321A3C7
:1031300032A347A150A561A572A58F2D0E94DF146F
:103140000E940813EF2DF0E0EE0FFF1FEE0FFF1FA0
:10315000EF5AFA4F878D90A1A1A1B2A180933204BA
:1031600090933304A0933404B093350435C0613098
:1031700019F580912E0490912F04A0913004B09104
:1031800031048F3F9105A105B10569F060F08FEF23
:1031900090E0A0E0B0E080932E0490932F04A093E1
:1031A0003004B0933104EF2DF0E0EE56FA4F8091E9
:1031B0002E0480830E940813EF2DF0E0EE56FA4FA4
:1031C000808190E0A0E0B0E080932E0490932F04E3
:1031D000A0933004B09331041F910F91FF90089594
:1031E0000F931F93CF93DF93082F162F80915404D2
:1031F000E82FF0E0C02FD0E0EE0FFF1FEF5AFA4F9C
:10320000EC0FFD1F838D861719F0638F0E94081342
:103210008091BF05882329F080E0112309F481E023
:10322000182FE0915404F0E0EE0FFF1FEC0FFD1F8C
:10323000EE0FFF1FEB5AFB4FC081D18180914B04F1
:1032400084FF0BC0802F60E070E00E94260868ECCD
:1032500070E080E090E00E94F930002369F4612F73
:103260008FE00E94223280914B0484FF0BC0802F9C
:10327000BE010E94260806C060E0112309F461E047
:1032800080E1EFCFDF91CF911F910F9108951F93B0
:10329000182F8091480488608093480480E062E0A1
:1032A0000E94850B81E080935404109253048BE0BC
:1032B00080934A0480912E0490912F04A0913004B1
:1032C000B09131040097A105B10571F480914B04D0
:1032D00084FF25C080E060E00E94F00980914B04EB
:1032E0008B7F80934B041BC00197A105B105B9F4F6
:1032F00080914B0484FD13C080914B0484608093C3
:103300004B04113019F480E060E002C080E061E01D
:103310000E94F0188091530461E00E94F0091F910F
:103320000895982FE82FF0E0EB53FD4F808186172A
:10333000E0F110924A04943001F1953038F4923063
:1033400091F09330A0F4913081F509C09630F9F0F6
:103350009630C0F0973001F1983039F522C0862FB1
:103360000E94FC0C0895862F642F40E003C0862F36
:10337000642F41E00E9471170895862F642F0E94E8
:10338000F1130895862F642F0E9447190895862F00
:10339000642F0E94B8130895862F642F0E9432155F
:1033A0000895862F642F0E943A1308951F93CF9398
:1033B000DF93EC01142F613009F0AEC180EA94E094
:1033C0000E94D4288AE194E060E270E041E150E09C
:1033D0000E94F60180EA94E00E948B2880EA94E043
:1033E00060E040E00E94A52880912C0480932D0489
:1033F000E82FF0E0EE0FFF1FEC0FFD1F65917491B9
:103400008AE194E00E94EF0180EA94E065EC71E0CB
:103410000E94D93580EA94E06AE174E00E94D935CF
:1034200080EA94E060E041E00E94A5281123D1F5F4
:1034300040912C04842F90E0E0912B04F0E0EB53BA
:10344000FD4F208130E08217930734F54F5F4093A2
:103450002D048AE194E060E270E041E150E00E94D6
:10346000F60180912C04E82FF0E03196EE0FFF1F5B
:10347000EC0FFD1F659174918AE194E00E94EF01C9
:1034800080EA94E068EC71E00E94D93580EA94E02B
:103490006AE174E00E94D935809148048F7C809362
:1034A000480454C18091480480628093480484FD9C
:1034B0000CC080912B0460912C0440E00E94911973
:1034C0008091480480618093480480914A04873049
:1034D00079F4409132045091330460913404709136
:1034E000350480EA94E022E030E00E94C0362EC12C
:1034F000813081F480913604813029F480EA94E0AF
:1035000060E171E004C080EA94E063E171E00E9450
:10351000D9351CC1823071F480913604813029F490
:1035200080EA94E06BEC71E0F2CF80EA94E06EEC1C
:1035300071E0EDCF833071F480913604813029F44D
:1035400080EA94E061ED71E0E2CF80EA94E064ED1E
:1035500071E0DDCF843071F480913604813029F43C
:1035600080EA94E067ED71E0D2CF80EA94E06BED01
:1035700071E0CDCF853071F480913604813029F42B
:1035800080EA94E06FED71E0C2CF80EA94E06AEEE9
:1035900071E0BDCF863071F480913604813029F41A
:1035A00080EA94E065EF71E0B2CF80EA94E06CEFDE
:1035B00071E0ADCF883019F580912E0490912F04E1
:1035C000A0913004B09131040097A105B10529F410
:1035D00080EA94E060E070E00DC00197A105B105BC
:1035E00029F480EA94E06DE270E004C080EA94E09F
:1035F0006AE570E04AE050E00E94C635A7C0893015
:1036000009F05BC080912E0490912F04A0913004AA
:10361000B09131040097A105B10529F480EA94E046
:1036200063E072E074CF81309105A105B10529F402
:1036300080EA94E06CE072E06ACF82309105A105E7
:10364000B10529F480EA94E062E172E060CF833052
:103650009105A105B10529F480EA94E067E172E0E3
:1036600056CF84309105A105B10529F480EA94E094
:103670006EE172E04CCF85309105A105B10529F4CA
:1036800080EA94E06DE272E042CF86309105A105B8
:10369000B10529F480EA94E068E372E038CF079737
:1036A000A105B10529F480EA94E062E472E02FCF2D
:1036B00080EA94E06BE472E02ACF8A3041F4809192
:1036C0002E0490912F0460E00E9483073FC0409138
:1036D0002E0450912F0460913004709131048B308E
:1036E000A1F4411551056105710529F480EA94E0C2
:1036F00066E572E00CCF413051056105710531F589
:1037000080EA94E06EE572E002CF80EA94E02AE07D
:1037100030E00E9465351AC08091480485FD16C0CE
:1037200080EA94E060E040E00E94A52880EA94E00E
:1037300060E20E94DD3480EA94E060E041E00E94B3
:10374000A52880EA94E06EE30E94DD34DF91CF91FA
:103750001F9108950F931F93182F062F80E00E944A
:10376000440C1130E1F4E0912C04EE2339F4E091A3
:103770002B04F0E0EB53FD4F908102C09E2F91503F
:1037800090932C0480912D04981700F1E0912B0464
:10379000F0E0EB53FD4F8081981719F517C01230F8
:1037A000D1F490912C04E0912B04F0E0EB53FD4F09
:1037B0008081981710F090E001C09F5F90932C04D7
:1037C00080912D04891710F0992359F480EA94E030
:1037D0000E94D42804C0133011F010922C0461E030
:1037E00001C060E080912B04843001F1853048F401
:1037F000813099F0813070F0823091F0833039F56A
:1038000012C08630C9F08630A0F08730C1F0883011
:10381000F1F418C08BEA92E017C08BEB92E014C071
:1038200085EC92E011C089ED92E00EC08DEE92E041
:103830000BC081EC92E008C085E293E005C08DEFFB
:1038400092E002C081E293E0402F0E94D6191F91BE
:103850000F9108958091480480FF03C08E7F80936C
:1038600048049091480493FF0EC080914B0482FD60
:1038700049C010925404977F9093480480E060916F
:10388000A9050E94850B9091480495FF0AC09F7C72
:10389000909348041092470483E060E00E94AA1BC2
:1038A000089580912B04882371F410922C049F7B3F
:1038B0009068909348040E94F30781E08093CE02C1
:1038C0000E94440C089510922B0410922C04E4E002
:1038D000F0E0DF01A05FBB4F8C91882351F0815055
:1038E00080932B04EB5EFB4F808180932C041C9211
:1038F00005C031978FEFEF3FF80759F783E060E09D
:103900000E94AA1B089590912B04892F8250823027
:1039100038F480912C04853019F4892F65E010C0AB
:1039200060912C04992319F0913081F408C08091A2
:10393000C502861758F0262F2F5F2E3F29F4892FB6
:1039400040E00E94911908952F3F49F48091480466
:1039500085FD22C083E061E00E94AA1B0895E0E09B
:10396000F0E0DF01A05FBB4F8C91882331F481E050
:103970008C93EB5EFB4F608304C03196E530F1051C
:1039800081F7809148048F7D8093480420932B0415
:1039900080E060E00E94AA1B0895AF92BF92CF9290
:1039A000DF92EF92FF920F931F93182F7B0180916C
:1039B0005304E0915404F0E0EE0FFF1FEF5AFA4F6A
:1039C000E80FF11DA38C642F0E94F018D0905304CF
:1039D0001130B1F5B70180E090E00E94C6377B015D
:1039E0008C01ED2DF0E0EE0FFF1FE856FA4F6081DD
:1039F000718180E090E00E94C6379B01AC01C80154
:103A0000B7010E942D3720E030E64AE657E40E94D5
:103A10007C380E949A377B018C01109262048D2DB4
:103A20000E94FB07B70180E090E047EF5DE00E9455
:103A3000CB290E94192A809162048823E1F34AC0AD
:103A4000ED2DF0E0EE0FFF1FEE0FFF1FDF01A3597A
:103A5000BB4FCC90EB58FB4FB0808D2DB70141E0B0
:103A60000E94E7040E94A6307B018C010E947F0D1A
:103A700003C08EE00E9461310E94A6306E197F095A
:103A8000800B910B6059724E8040904090F30E94E1
:103A9000AE0D80915304E82FF0E0EE0FFF1FEE0F04
:103AA000FF1FDF01A359BB4F2C2D30E040E050E059
:103AB0002D933D934D935C931397EB58FB4F2B2D18
:103AC00030E040E050E020833183428353836A2D0D
:103AD0000E94F0181F910F91FF90EF90DF90CF9010
:103AE000BF90AF90089580914C048F7D80934C04DB
:103AF00080914B04806980934B04E0915404F0E082
:103B0000EE0FFF1FEF5AFA4F80E0638D0E94F0180E
:103B1000E0915404F0E0EE0FFF1FE359FA4F81E00B
:103B200060810E94F018E0915404F0E0EE0FFF1F56
:103B3000EE0FFF1FEF5AFA4F6389748980E00E94ED
:103B40002608E0915404F0E0EE0FFF1FEE0FFF1F78
:103B5000ED5AFA4F6389748981E00E94260880E05B
:103B6000609196050E94630381E0609197050E9431
:103B7000630380E061E00E94F00981E061E00E945F
:103B8000F00980919605882329F080E060E070E0DC
:103B90000E94260880919705882329F081E060E043
:103BA00070E00E9426081092810410928204109204
:103BB0008304109284040895DF92EF92FF920F9392
:103BC0001F93D62E10924A0410924704833009F4B2
:103BD00041C0843030F4813059F0823009F0D7C0D0
:103BE00023C0843009F475C0853009F0D0C089C085
:103BF00080EA94E060E040E00E94A528DD2049F0E2
:103C000080913604882319F00E94731D02C00E941F
:103C1000C90D81E080934A0480914B0490E0880FA5
:103C2000892F881F990B6AC080EA94E060E041E028
:103C30000E94A528DD2041F09091360480919304E4
:103C4000809395049093930483E080934A04809139
:103C5000930454C080EA94E061E041E00E94A5280A
:103C600087E080934A0410924704E0903204F09079
:103C700033040091340410913504C801B70120E0E9
:103C800030E044EB53E40E947838181654F40F2EB9
:103C9000F0E0EF2EF0E0FF2EF4EB0F2FF3E41F2FF8
:103CA000F02DE0923204F092330400933404109328
:103CB0003504DD2029F080E0B801A7010E945A0EEA
:103CC0008091970490919804A0919904B0919A04DE
:103CD00056C080EA94E068E041E00E94A528DD201B
:103CE00041F09091360480919404809396049093CF
:103CF000940483E080934A04809194048093360472
:103D000046C080EA94E069E041E00E94A52887E08F
:103D100080934A0410924704E0903204F0903304F8
:103D20000091340410913504C801B70120E030E05F
:103D300044EB53E40E947838181654F40F2EF0E048
:103D4000EF2EF0E0FF2EF4EB0F2FF3E41F2FF02DFA
:103D5000E0923204F092330400933404109335045B
:103D6000DD2029F081E0B801A7010E945A0E809160
:103D70009B0490919C04A0919D04B0919E0480931B
:103D8000320490933304A0933404B09335041F910C
:103D90000F91FF90EF90DF90089580EA94E066E63F
:103DA00072E00E94D93580EA94E060E041E00E9430
:103DB000A52880919304813021F480EA94E06CE49A
:103DC00003C080EA94E062E50E94DD3460919704CC
:103DD000709198048091990490919A040E949A3766
:103DE000DC01CB0160E00E942F0780EA94E068E0EC
:103DF00041E00E94A52880919404813021F480EA5A
:103E000094E064E403C080EA94E065E50E94DD3458
:103E100060919B0470919C0480919D0490919E04FC
:103E20000E949A37DC01CB0161E00E942F0780914C
:103E3000CE02882319F060E00E94DC1D0895809175
:103E40004B0487FF03C00E94C90D08950E94731D93
:103E500008951F93182F0E94410B982FE12FF0E037
:103E6000DF01AF56BB4F8C91981709F4ACC09C93FF
:103E7000992309F4A8C080914B0482FF18C080E008
:103E800060E00E94F00980914B048B7F80934B048B
:103E900010922E0410922F041092300410923104CC
:103EA00081EC92E061E041E00E94D6198CC0E755B8
:103EB000FA4F10811330A1F0143030F4113051F06A
:103EC000123009F080C009C0143069F0183009F0D0
:103ED0007AC00FC00E94731D76C00E94C90D73C0C6
:103EE0000E941F1F70C080914C04806280934C041C
:103EF0006AC060E0E0915404F0E0EE0FFF1FEF5A5B
:103F0000FA4F838D882309F461E080E00E94F01865
:103F100060E0E0915404F0E0EE0FFF1FE359FA4F28
:103F20008081882309F461E081E00E94F01880918B
:103F30009304813029F4809395041092930405C072
:103F40008093950481E08093930480919304813061
:103F500039F480919404809396041092940407C0DD
:103F6000809194048093960481E0809394046091FE
:103F70009704709198048091990490919A0420E09C
:103F800030E040E050E00E947838181634F480E0C9
:103F90000E94220F80E00E94890E60919B04709124
:103FA0009C0480919D0490919E0420E030E040E0CC
:103FB00050E00E947838181634F481E00E94220FF5
:103FC00081E00E94890E1F9108951F93982F162F4C
:103FD00010924A041092470480919F0484FF04C009
:103FE000892F0E94DC1D54C1933009F45FC09430C6
:103FF00030F4913071F0923009F04AC126C095300A
:1040000009F4C6C0953008F46AC0963009F040C182
:10401000DAC080EA94E060E040E00E94A528112325
:1040200049F080913604882319F00E94731D02C064
:104030000E94C90D81E080934A0480914B0490E076
:10404000880F892F881F990BBBC080EA94E064E039
:1040500040E00E94A52887E080934A0481E0809395
:104060004704112391F08091320490913304A09180
:104070003404B09135048093520590935305A09376
:104080005405B09355050E940813809152059091F4
:104090005305A0915405B091550580933204909337
:1040A0003304A0933404B0933504F2C080EA94E062
:1040B00060E041E00E94A528112329F080E0609192
:1040C00036040E94F01883E080934A04E09154047F
:1040D000F0E0EE0FFF1FEF5AFA4F838D71C080EAB8
:1040E00094E061E041E00E94A5288091950520912F
:1040F0002E0430912F0440913004509131048823D4
:1041000071F48091980590919905A0E0B0E028178E
:1041100039074A075B0778F4DA01C9010CC0DA01F4
:10412000C9012F3F31054105510529F020F08FEFDE
:1041300090E0A0E0B0E080932E0490932F04A09331
:104140003004B09331041123C9F060912E047091B2
:104150002F0480E00E942608E0915404F0E0EE0F66
:10416000FF1FEE0FFF1FDF01AB5ABB4F8D919C91DC
:10417000EF5AFA4F948B838B0E940813E0915404FA
:10418000F0E0EE0FFF1FEE0FFF1FEB5AFB4F74C066
:1041900080EA94E068E041E00E94A528112329F01C
:1041A00081E0609136040E94F01883E080934A0415
:1041B000E0915404F0E0EE0FFF1FE359FA4F8081C5
:1041C0008093360465C080EA94E069E041E00E9493
:1041D000A5288091950520912E0430912F044091BF
:1041E000300450913104882371F480919A059091A4
:1041F0009B05A0E0B0E0281739074A075B0778F471
:10420000DA01C9010CC0DA01C9012F3F31054105AE
:10421000510529F020F08FEF90E0A0E0B0E080930E
:104220002E0490932F04A0933004B09331041123F3
:10423000D1F060912E0470912F0481E00E94260835
:10424000E0915404F0E0EE0FFF1FEE0FFF1F3296D7
:10425000DF01AB5ABB4F8D919C91EF5AFA4F948B73
:10426000838B0E940813E0915404F0E0EE0FFF1FCF
:10427000EE0FFF1FE95AFB4F80819181A0E0B0E073
:1042800080932E0490932F04A0933004B0933104B4
:104290001F9108951F93182F81E00E94440C4091B4
:1042A000BC05442331F080919F0484FF02C025E0C7
:1042B00001C026E08091CE02112371F08F5F8093C0
:1042C000CE02992787FD909530E028173907B4F47E
:1042D000442351F481E00FC0823024F08150809358
:1042E000CE020CC0442331F080E00E94440C1092B6
:1042F000CE0209C086E08093CE0205C08091CE0236
:1043000060E00E94E51F1F910895982F8091480456
:1043100082FF2FC080919F0485FF18C09130A9F1C2
:1043200087FF0FC080E00E94220F409197045091B8
:1043300098046091990470919A0480E00E945A0E4A
:10434000089580E061E00E94E60E0895913071F4D6
:1043500080914B0484FD0AC08091530461E00E9467
:10436000F0188091530461E00E94F0090E949D0CB6
:10437000089586FD04C080E00E944A21089580913E
:10438000C105882311F00E942A1C0895982F80915E
:10439000480482FF2FC080919F0485FF18C0913090
:1043A000C1F187FF0FC080E00E94220F4091970467
:1043B000509198046091990470919A0480E00E9451
:1043C0005A0E089580E060E00E94E60E0895913054
:1043D00071F480914B0484FD0AC08091530460E025
:1043E0000E94F0188091530461E00E94F0090E943D
:1043F0009D0C089586FD04C081E00E944A21089525
:104400008091C105882319F00E94831C08950E94A1
:104410002A1C0895AF92BF92CF92DF92EF92FF9243
:104420000F931F930E94C60780919F0484FF03C0CF
:104430000E94CD1ED1C00E94FD015B016C01E09085
:104440005205F09053050091540510915505C8018F
:10445000B701A60195010E94293788232CF480EA30
:1044600094E0B601A50104C080EA94E0B801A70178
:1044700021E030E00E94C03680EA94E06EE672E00F
:104480000E94D9358091810490918204A091830487
:10449000B0918404883E23E0920720E0A20720E048
:1044A000B20720F080EA94E06AE014C084369105F7
:1044B000A105B10520F080EA94E06BE00BC00A97FB
:1044C000A105B10520F080EA94E06CE003C080EA29
:1044D00094E06DE040E00E94A52880EA94E06BE55E
:1044E0000E94DD34409181045091820460918304E4
:1044F0007091840480EA94E02AE030E00E946535FF
:1045000080EA94E06DE50E94DD3480EA94E060E0AA
:1045100041E00E94A528E0915404F0E0EE0FFF1F57
:10452000EF5AFA4F838D813021F480EA94E06CE4F5
:1045300003C080EA94E062E50E94DD34E091540417
:10454000F0E0EE0FFF1FEE0FFF1FEB5AFB4F208135
:10455000918180919405882329F0822F60E00E9448
:10456000830703C0822F0E94420780EA94E068E03C
:1045700041E00E94A528E0915404F0E0EE0FFF1FF7
:10458000E359FA4F8081813021F480EA94E06CE4B1
:1045900003C080EA94E062E50E94DD34E0915404B7
:1045A000F0E0EE0FFF1FEE0FFF1FE95AFB4F2081D7
:1045B000918180919405882329F0822F61E00E94E7
:1045C000830703C0822F0E9442078091CE02882376
:1045D00019F060E00E94E51F1F910F91FF90EF908E
:1045E000DF90CF90BF90AF900895982F80914804AE
:1045F00080FF16C08091490487FF06C081E00E94B9
:1046000015060E94A007089580916304823010F07F
:1046100082E001C08F5F809363040E94670C08955D
:1046200082FF2BC080919F0485FF1BC0913009F44D
:1046300056C086FF0FC081E00E94220F40919B046C
:1046400050919C0460919D0470919E0481E00E94B1
:104650005A0E04C081E060E00E94E60E0E94DB0C6E
:1046600008956091D1027091D2028091530441E08B
:104670000E94350A0E949D0C08959091CE0286FDFD
:1046800010C0992371F48091BC05882341F1809179
:104690009F0484FF02C08F7E01C0806180939F04CD
:1046A0000895191674F481E00E9415068091CE02D7
:1046B00061E00E94E51F809148048068809348046F
:1046C000089585FF08C081E00E94150683E061E03F
:1046D0000E94AA1B089581E060E00E94AA1B089531
:1046E000982F8091480480FF13C08091490487FF70
:1046F00006C080E00E9415060E94A00708958091E0
:10470000630481118150809363040E94670C0895B3
:1047100082FF2EC080919F0485FF1BC0913009F459
:104720005FC086FF0FC081E00E94220F40919B0472
:1047300050919C0460919D0470919E0481E00E94C0
:104740005A0E04C081E061E00E94E60E0E94DB0C7C
:1047500008956091D1027091D202709561957F4F5A
:104760008091530441E00E94350A0E949D0C0895F7
:104770009091CE0286FD10C0992371F48091BC0502
:10478000882371F180919F0484FF02C08F7E01C055
:10479000806180939F0408951916A4F4913021F448
:1047A00080914B0487FF03C080E00E941506809132
:1047B000CE0261E00E94E51F8091480480688093EA
:1047C0004804089585FF08C080E00E94150683E034
:1047D00061E00E94AA1B089582E060E00E94AA1B8B
:1047E0000895982F8091480480FF16C08091490455
:1047F00086FF06C08F73809349040E94670C08955A
:1048000087FF07C0913009F460C081E080936404A1
:1048100008950E94CA2408958091CE0218162CF49F
:1048200080E00E94440C1092CE029091480492FFC6
:1048300023C08091590490915A0490936905809304
:10484000680580915B0490915C0490936B05809364
:104850006A050E940813909148049B7F10925404AB
:1048600080919F048F7D80939F049064909348046F
:1048700081E080932B0407C096FD0AC0906490935A
:10488000480410922B0480E060E00E94AA1B089567
:1048900095FF19C080912B0460912C0441E00E9487
:1048A00091191092470480914A048B3019F483E0E7
:1048B00061E007C0809148048F7C8093480483E0C6
:1048C00060E00E94AA1B0E94831C0895813021F49D
:1048D000862F0E94F1230895843021F4862F0E94B0
:1048E00070230895853021F4862F0E94F5220895C3
:1048F000823021F4862F0E94C6210895833019F456
:10490000862F0E94852108951F930E94E20A182F86
:104910000E945F0A8823E1F1813069F41092CA0590
:1049200081E090E09093D2028093D102812F60E0E9
:104930000E94662402C0823010F480E029C08330D7
:1049400031F5812F61E00E9466248091CA058F5F56
:104950008093CA058A30D8F02091D1023091D202DA
:1049600083E0283E380758F4C90113E0880F991FE7
:104970001A95E1F7220F331F820F931F02C088EEB2
:1049800093E09093D2028093D1021092CA0581E005
:104990001F9108956F927F928F929F92AF92BF92D4
:1049A000CF92DF92EF92FF920F931F93CF93DF93FB
:1049B0008091490480688093490487E080934A0489
:1049C00010924704AA24BB24DA2C60915304C62F0A
:1049D000D0E0FE01EE0FFF1FEE0FFF1FEF5AFA4F60
:1049E00067A570A981A992A92AE037ED43E25CE3AB
:1049F0000E947C383B014C01CC0FDD1FC856DA4FBA
:104A00006881798180E090E00E94C6372AE037ED26
:104A100043E25CE30E947C380E949A377B018C0160
:104A20006092320470923304809234049092350480
:104A300080EA94E00E94D42880EA94E060E040E0BC
:104A40000E94A52880EA94E061E772E00E94D935CF
:104A500080EA94E06BE50E94DD34D39480EA94E030
:104A60006D2D4AE050E00E94743580EA94E06AE7D8
:104A700072E00E94D93581E0B7014A2D0E94CD1C19
:104A80000E94A0071092640402C00E9484248091B6
:104A900064048823D1F32091630430E080915304AF
:104AA00090E0880F991F8C01A3E0000F111FAA95B9
:104AB000E1F7080F191FC901880F991F820F931F73
:104AC000880F991F080F191F0A0D1B1D000F111FBA
:104AD000000F111F0B541B4FC401B301209132046E
:104AE0003091330440913404509135040E942D37A5
:104AF000F80161837283838394830894A11CB11CA1
:104B0000F2E0AF16B10409F05FCF61E0A62EB12C40
:104B10008A2D8A2C880C813019F490904E0502C0A1
:104B200090904F05C0E0D0E080915304692D70E073
:104B300041E00E944C026B017C016093320470934F
:104B400033048093340490933504839480EA94E092
:104B50000E94D42880EA94E060E040E00E94A5280A
:104B600080EA94E061E772E00E94D93580EA94E03F
:104B70006BE50E94DD3480EA94E0682D4AE050E065
:104B80000E94743580EA94E06AE772E00E94D935A9
:104B900082E0692D70E04C2F0E94CD1C0E94A0077E
:104BA0001092640402C00E948424809164048823CB
:104BB000D1F38091630490E02091530430E08C01A4
:104BC000000F111F080F191FC90143E0880F991F1B
:104BD0004A95E1F7820F931F080F191F0A0D1B1D3D
:104BE000000F111F0C0F1D1F000F111F000F111FB1
:104BF0000B541B4F60913204709133048091340444
:104C000090913504A70196010E942D37F801618328
:104C10007283838394832196C230D10509F084CFB7
:104C20000894A11CB11CF3E0AF16B10409F070CFD9
:104C3000809149048F778064809349040E9408130F
:104C4000DF91CF911F910F91FF90EF90DF90CF9068
:104C5000BF90AF909F908F907F906F900895EF924C
:104C6000FF920F931F9380E00E94291F81E00E9412
:104C7000291F8091480481FFEEC0E0904304F0902A
:104C8000440400914504109146040E94A6304091CE
:104C9000A6055091A70528EE33E0F9014E9F90013B
:104CA0004F9F300D5E9F300D112440E050E0621B9D
:104CB000730B840B950BE616F7060807190708F027
:104CC000CAC0809148048D7F809348048091A805D4
:104CD000882321F080EA94E00E949D2889E060E02A
:104CE0000E94223232C0E0904304F09044040091CC
:104CF0004504109146040E94A6304091A6055091AB
:104D0000A70528EE33E0F9014E9F90014F9F300D2B
:104D10005E9F300D112440E050E0621B730B840B4A
:104D2000950B6E157F058007910778F480914804F4
:104D300082608093480480EA94E00E949328609106
:104D4000C00589E070E00E9483318091C20588230C
:104D500099F18091C905882379F1E0903F04F090A2
:104D6000400400914104109142040E94A630645F07
:104D7000714080409040E616F70608071907E0F4F6
:104D80008091CB05882339F080EA94E00E948B283B
:104D90001092CB0507C080EA94E00E94812881E050
:104DA0008093CB050E94A63060933F04709340042B
:104DB00080934104909342048091480487FD17C07A
:104DC000E0903B04F0903C0400913D0410913E04BF
:104DD0000E94A630685E734080409040E616F70659
:104DE0000807190718F58091480486FD1FC08091B7
:104DF000480482FD03C00E940A2209C080919F04DA
:104E000085FF03C00E94DB0C02C00E949D0C8091B4
:104E100048048F77809348040E94A63060933B0437
:104E200070933C0480933D0490933E040E9484243C
:104E3000982F8091480482FF13C0992389F48091B0
:104E40004B0484FF0DC08091530460E00E94F00980
:104E50000E949D0C05C08091480481FD76CF43CF10
:104E60001F910F91FF90EF9008958FE196E00E94BF
:104E7000C8331816190614F090E008C08FE196E0C8
:104E80000E94E43390E0843509F491E0892F08957D
:104E90008091BD05813049F40E943527813029F485
:104EA00080914C04806280934C0480914B0487FF76
:104EB00003C00E94780F0EC08091480482FD0AC092
:104EC00080919F04807C31F080E00E94220F81E07D
:104ED0000E94220F0E942F2608958DE061E00E941B
:104EE000E3318CE061E00E94E33185E061E00E9403
:104EF000E33186E061E00E94E33180E161E00E94FD
:104F0000E3318FE061E00E94E3318FE196E040E819
:104F100055E260E070E00E9441330E94E70B0E947E
:104F20004E1280E06091A9050E94850B81E060919E
:104F3000A9050E94850B8091C0050E94120881E09E
:104F40000E94440C0E94A630609343047093440472
:104F500080934504909346040E940A2208950F937B
:104F60001F938C01FC01868160E00E94223281E067
:104F700090E00E94B430F801868161E00E94223204
:104F800081E090E00E94B430F801868160E00E94E8
:104F9000223284E690E00E94B4301F910F91089570
:104FA000CF92DF92EF92FF920F931F93CF93DF93F5
:104FB000D82EC92E282F392FC9018C01C0E0D0E08E
:104FC000E62EFF24F801878161E00E94E331B701FA
:104FD0000C2E02C0759567950A94E2F76170F8018E
:104FE00087810E94223221960F5F1F4FC830D10562
:104FF00049F78D2D9C2D0E94AF27DF91CF911F91F6
:105000000F91FF90EF90DF90CF900895CF92DF92B5
:10501000EF92FF920F931F93CF93DF93D82EC92E59
:10502000282F392FC9018C01C0E0D0E0E62EFF24E3
:10503000F801878161E00E94E331B7010C2E02C0C4
:10504000759567950A94E2F76170F80187810E946F
:10505000223221960F5F1F4FC430D10549F78D2DA5
:105060009C2D0E94AF27DF91CF911F910F91FF9050
:10507000EF90DF90CF9008951F93CF93DF93EC01D3
:10508000162F8C81642F0E9422328D818F3F19F060
:1050900060E00E9422328F8584FF05C0CE01612F1F
:1050A0000E94D0270EC0612F70E084E0759567954F
:1050B0008A95E1F7CE010E940628CE01612F0E9459
:1050C0000628DF91CF911F91089541E00E943C286E
:1050D00081E090E0089540E00E943C280895FC01A2
:1050E0006089862F8160808B6960CF010E946B2868
:1050F0000895FC0160896E7F608B68600E946B2858
:105100000895FC016089862F8260808B6A60CF01E0
:105110000E946B280895FC0160896D7F608B686038
:105120000E946B280895FC016089862F8460808B23
:105130006C60CF010E946B280895FC0160896B7F31
:10514000608B68600E946B280895DF93CF93CDB782
:10515000DEB728970FB6F894DEBF0FBECDBF9C0117
:10516000FE013196A7EFB3E088E00D9001928150E7
:10517000E1F7F9018389481710F0482F4150E42FD7
:10518000F0E0EE0FFF1FEC0FFD1F8181680F6068DC
:10519000C9010E946B2828960FB6F894DEBF0FBE97
:1051A000CDBFCF91DF91089561E00E946B2880ED23
:1051B00097E00E94B4300895CF93DF93EC01423022
:1051C00018F08F8588608F874B8B1C8A222329F0EB
:1051D000413019F48F8584608F8780E593EC0E94BD
:1051E000B4308C8160E00E9422328E8160E00E94A7
:1051F00022328D818F3F19F060E00E9422326F854C
:1052000064FD1DC0CE0163E00E94062884E991E19F
:105210000E94B430CE0163E00E94062884E991E147
:105220000E94B430CE0163E00E94062886E990E037
:105230000E94B430CE0162E00E94062816C060626F
:10524000CE010E946B2884E991E10E94B4306F8501
:105250006062CE010E946B2886E990E00E94B43023
:105260006F856062CE010E946B286F856062CE01FF
:105270000E946B2884E0888BCE010E949328CE0187
:105280000E94D42882E0898BCE0166E00E946B28C0
:10529000DF91CF9108956F927F928F92AF92CF92CC
:1052A000EF920F931F93DF93CF93CDB7DEB73C01FF
:1052B000162F842FF301448325830683E782C0865B
:1052C000A18682869D8593879E8594879F859587F5
:1052D0009889968761E00E94E331F30185818F3FD1
:1052E00019F061E00E94E331F301868161E00E94E0
:1052F000E331112319F0F301178603C080E1F301B4
:105300008787C30160E141E020E00E94DC28CF9163
:10531000DF911F910F91EF90CF90AF908F907F9082
:105320006F9008958F92AF92CF92EF920F931F9349
:10533000CF93DF93DC01362F542F722F102FAE2C1A
:105340008C2C13961C921E92129783EF93E0119669
:105350009C938E9300D000D0EDB7FEB73196CDB7B9
:10536000DEB71982118212821382CD0161E0432FD0
:105370002FEF052FE72EC12E0E944B290F900F9083
:105380000F900F90DF91CF911F910F91EF90CF90E1
:10539000AF908F9008950F931F938B019C01809184
:1053A00070008E7F809370008091B0008C7F80931E
:1053B000B0008091B100877F8093B1008091B600EA
:1053C0008F7D8093B600809170008D7F80937000F8
:1053D0008091B10084608093B1008091B1008C7F96
:1053E0008093B10086E090E09093E2058093E10520
:1053F000011511052105310569F481E090E0A0E077
:10540000B0E08093D6059093D705A093D805B093CC
:10541000D90508C00093D6051093D7052093D80569
:105420003093D9055093DB054093DA051F910F9116
:1054300008951092DC051092DD051092DE051092A1
:10544000DF051092E0058091E1059091E2058093DF
:10545000B200E0E7F0E08081816080830895E0E7BA
:10546000F0E080818E7F808308958091DC059091AB
:10547000DD05A091DE05B091DF050196A11DB11DEE
:105480008093DC059093DD05A093DE05B093DF05E6
:105490002091DC053091DD054091DE055091DF055E
:1054A0008091D6059091D705A091D805B091D905E6
:1054B000281739074A075B07B0F08091E005882379
:1054C00091F481E08093E0051092DC051092DD05F7
:1054D0001092DE051092DF05E091DA05F091DB0510
:1054E00009951092E00508951F920F920FB60F9242
:1054F00011242F933F934F935F936F937F938F93D9
:105500009F93AF93BF93EF93FF938091E1059091A9
:10551000E2058093B2000E94352AFF91EF91BF917E
:10552000AF919F918F917F916F915F914F913F913B
:105530002F910F900FBE0F901F9018951F920F92F2
:105540000FB60F9211242F933F934F935F936F9356
:105550007F938F939F93AF93BF93EF93FF93E091CC
:10556000E605F091E7050995FF91EF91BF91AF91A5
:105570009F918F917F916F915F914F913F912F916B
:105580000F900FBE0F901F901895FC01A3E0440FE1
:10559000551F661F771FAA95D1F7403080E0580746
:1055A00081E0680780E0780714F481E010C033E000
:1055B00075956795579547953A95D1F7403080E0B6
:1055C000580781E0680780E078071CF482E0828356
:1055D00039C023E075956795579547952A95D1F77A
:1055E000403080E0580781E0680780E0780714F4D5
:1055F00083E0EDCF92E075956795579547959A951D
:10560000D1F7403080E0580781E0680780E07807F4
:1056100014F484E0DCCF82E0759567955795479543
:105620008A95D1F7403080E0580781E0680780E034
:10563000780714F485E0CBCF85E082834FEF5FEFEE
:1056400060E070E051834083509387004093860070
:1056500080918100887F8093810080918100928178
:10566000892B8093810008951092800020E120937F
:1056700081000E94C52A08950F931F93CF93DF9353
:10568000EC018B01121613061406150624F4BA0158
:10569000A9010E94C52A1C830B8381E080936F00BF
:1056A0007894809181009A81892B80938100DF9189
:1056B000CF911F910F910895EFE6F0E080818E7FEA
:1056C00080830895E62FF0E03197E80FF91F81817C
:1056D00041830895FB0120E030E040E050E065E0C8
:1056E00070E094E0220F331F441F551F9A95D1F7A5
:1056F0009481892F80538A3030F4892F992787FD30
:105700009095C09709C0892F8154863068F4892FFD
:10571000992787FD9095C797AA2797FDA095BA2F3F
:10572000280F391F4A1F5B1F84E0220F331F441FBD
:10573000551F8A95D1F79581892F80538A3030F48F
:10574000892F992787FD9095C09709C0892F81548B
:10575000863068F4892F992787FD9095C797AA27E7
:1057600097FDA095BA2F280F391F4A1F5B1F625063
:10577000704032978FEF6F3F780709F0B2CFB901D1
:10578000CA01089581E08093E9058093EA051092AB
:10579000FB051092FC051092FD051092FE0510927B
:1057A000FF05109200061092010610920206109258
:1057B0000B0610920C0610920D0610920E06109217
:1057C0000F061092100610921106109212061092F7
:1057D0000306109204061092050610920606109217
:1057E0000706109208061092090610920A0684E62F
:1057F00090E090931406809313061092E8050895A4
:105800000F931F93CF93DF93EB018FE196E00E94FC
:10581000C833892BD1F300E010E015C08FE196E08A
:105820000E94E4338D3311F411E00DC0912F8132C9
:1058300011F491E007C0113029F4FE01E00FF11DD1
:1058400080830F5F192F8FE196E00E94C8331816EE
:10585000190624F3C00FD11D1882DF91CF911F913B
:105860000F910895EF92FF920F931F938C017A018D
:105870008FE196E00E94D93562E370E080E090E02D
:105880000E94F930C801B7010E94002C1F910F91AE
:10589000FF90EF900895DF92EF92FF920F931F9386
:1058A000DF93CF93CDB7DEB760970FB6F894DEBF26
:1058B0000FBECDBF7C01D62E0FE116E0C80161E816
:1058C00072E00E94D935C8016D2D4AE050E00E9477
:1058D0007435C70164E872E08E010F5F1F4FA801A5
:1058E0000E94322CC701B8010E946A2B60960FB645
:1058F000F894DEBF0FBECDBFCF91DF911F910F9106
:10590000FF90EF90DF900895FF920F931F93DF9326
:10591000CF93CDB7DEB760970FB6F894DEBF0FBE5A
:10592000CDBF8C01F62E8FE196E066E872E00E9412
:10593000D9358FE196E06F2D4AE050E00E94743532
:10594000C80164E872E0AE014F5F5F4F0E94322CE5
:1059500090E08A81803309F091E0892F60960FB63C
:10596000F894DEBF0FBECDBFCF91DF911F910F9195
:10597000FF900895DF92EF92FF920F931F93DF93B2
:10598000CF93CDB7DEB760970FB6F894DEBF0FBEEA
:10599000CDBF7C01D62E0FE116E0C80169E872E0A8
:1059A0000E94D935C8016D2D4AE050E00E9474353F
:1059B000C70164E872E08E010F5F1F4FA8010E94CB
:1059C000322CC701B8010E946A2B60960FB6F8947A
:1059D000DEBF0FBECDBFCF91DF911F910F91FF9022
:1059E000EF90DF900895CF92DF92EF92FF920F93A6
:1059F0001F93DF93CF93CDB7DEB760970FB6F894C0
:105A0000DEBF0FBECDBF7C01D62EC42E0FE116E047
:105A1000C8016CE872E00E94D935C8016D2D4AE0DA
:105A200050E00E947435F701ED0DF11DC801608151
:105A30004AE050E00E947435C8016C2D4AE050E005
:105A40000E947435C70164E872E0AE014F5F5F4F9A
:105A50000E94322C60960FB6F894DEBF0FBECDBF09
:105A6000CF91DF911F910F91FF90EF90DF90CF903A
:105A70000895DF92EF92FF920F931F93DF93CF93DE
:105A8000CDB7DEB760970FB6F894DEBF0FBECDBFBF
:105A90007C01D62E0FE116E0C8016FE872E00E948B
:105AA000D935C8016D2D4AE050E00E947435C70118
:105AB00064E872E08E010F5F1F4FA8010E94322C34
:105AC000C701B8010E946A2B60960FB6F894DEBF3A
:105AD0000FBECDBFCF91DF911F910F91FF90EF903F
