:100000000C94C5010C94ED010C94ED010C94ED01E0
:100010000C94ED010C94ED010C94ED010C94ED01A8
:100020000C94ED010C943F2A0C94ED010C94ED011D
:100030000C94ED010C94692A0C94ED010C94ED01E3
:100040000C948C2F0C94ED010C94E9310C94373204
:100050000C94ED010C94ED010C94ED010C94ED0168
:100060000C94ED010C94ED0170157E158C159A150C
:10007000B715C815D615E915FA15E016EE16FC16D3
:100080000D172A174F175D176B1783174D616E7584
:10009000616C204D6F7665004178697320310041B5
:1000A00078697320320043616D657261005061723E
:1000B0006B0052657365740053657474696E677381
:1000C0000053636F70650041786973203100417897
:1000D000697320320053636F70650052616D702048
:1000E00053686F74730052504D00416E676C650029
:1000F00043616C69627261746500536C6F77204D67
:100100006F64652049504D00446973742E207065FA
:100110007220526576004D696E2050756C736500D3
:100120004C65616420496E004C656164204F7574B4
:100130000043616C2E20436F6E7374616E740049CE
:100140006E74657276616C20736563004D61782012
:1001500053686F7473004578702E2054696D652064
:100160006D73004578702E2044656C6179206D7345
:1001700000466F63757320546170206D730053687F
:1001800075747465722B466F637573005265706584
:100190006174005265706561742044656C6179001A
:1001A000416C74204D656E75004D6F746F72204404
:1001B000697370004D6F746F72204D6F64650042FB
:1001C00061636B6C69676874004175746F44696D35
:1001D00020287365632900426C616E6B204C434498
:1001E00000492F4F203100492F4F2032004D6574B8
:1001F00072696320446973702E0053636F706500E9
:1002000043616C2E20537064204C6F770043616C07
:100210002E2053706420486900416C744F7574201F
:10022000507265206D7300416C744F757420506F6F
:100230007374206D7300555342205472696767656B
:100240007200496E766572742044697200496E7658
:1002500065727420492F4F00554C696E65204375B7
:1002600072736F72005061726B204C65667400503F
:1002700061726B20526967687400526573657420FF
:1002800043616C005265736574204D656D0050616B
:100290006E204D616E2E205370642E0054696C7474
:1002A000204D616E2E205370642E008C0098009FAC
:1002B00000A600AD00B200B800C100C700CE00D556
:1002C0000065026F02DB0020012801E600EA00F071
:1002D000003101FA0008011601DB0020012801E6C7
:1002E00000EA00F0003101FA00080116013F014C5C
:1002F000015601630171017E018C019301A001A9E6
:1003000001B401BF01C901D701E101E701ED01FA23
:100310000100020D0219022702360242024D025864
:10032000028E029C027A0284020000000024002750
:10033000002A0000000000250028002B000000001B
:100340000023002600290004040404040404040219
:100350000202020202030303030303010204081062
:10036000204080010204081020010204081020002F
:100370000000070002010000030406000000000066
:10038000000000005007F02AA33311241FBECFEF56
:10039000D8E0DEBFCDBF14E0A0E0B1E0E8E2F1E7D5
:1003A00002C005900D92A031B107D9F716E0A0E187
:1003B000B4E001C01D92AB3CB107E1F713E0CAE81D
:1003C000D3E004C02297FE010E948E38C438D107C2
:1003D000C9F70E94F9330C9492380C940000FB0189
:1003E000DC0105900D920020E1F70895DC0101C0C9
:1003F0006D9341505040E0F70895EF92FF920F93B4
:100400001F9380915C0590915D05009711F4E0E0E9
:1004100002C0E82FEC5960915E0570915F0580E0A5
:1004200090E0209158053091590540915A0550911E
:100430005B05620F731F841F951F6E0F711D811D59
:10044000911D0E941A377B018C01809197058823AA
:10045000B1F4609181047091820420917F04309105
:100460008004620F731F80E090E00E941A379B01A6
:10047000AC01C801B7010E9419367B018C01C8018B
:10048000B70120E030E04AE754E40E9481361F9132
:100490000F91FF90EF900895CF92DF92EF92FF922D
:1004A0000F931F93CF93DF93082FEB01442359F051
:1004B0000F2EF0E0CF2EF0E0DF2EFFE7EF2EF3E47B
:1004C000FF2EF02D0EC0E82FF0E0EE0FFF1FE656D6
:1004D000FA4F6081718180E090E00E941A376B01D1
:1004E0007C01809148048C7051F00F2EF0E0CF2EEB
:1004F000F0E0DF2EFFE7EF2EF3E4FF2EF02D10E00B
:10050000000F111F000F111F0D5A1A4FBE0180E07E
:1005100090E00E941A37A70196010E948136F801E7
:1005200027A530A941A952A90E94D037DF91CF91C8
:100530001F910F91FF90EF90DF90CF9008953F9221
:100540004F925F926F927F928F929F92AF92BF92E3
:10055000CF92DF92EF92FF920F931F93CF93DF938F
:1005600080916004882309F49CC08091CE058F5F40
:100570008093CE05BDE5AB2EB4E0BB2EEE24FF2468
:10058000CC24DD24A0E24A2E512CF1E06F2E712CF8
:10059000812C912C33243394F601E159FB4F408197
:1005A000518162817381411551056105710509F41D
:1005B00069C0870101531A4FD8018C919701220F0E
:1005C000331F220F331F882391F5E901CA51DC4FF5
:1005D000288139814A815B81F601E958FB4F80818E
:1005E0009181A281B381281739074A075B0760F41C
:1005F00088819981AA81BB810196A11DB11D888343
:100600009983AA83BB833EC02BB1C2010E2C02C0CA
:10061000880F991F0A94E2F7282B2BB9F801308232
:10062000D5013C92688279828A829B822BC0F90133
:10063000EA51FC4F80819181A281B3818417950793
:10064000A607B70760F480819181A281B3810196EA
:10065000A11DB11D80839183A283B38313C02BB1ED
:10066000C2010E2C02C0880F991F0A94E2F78095F0
:1006700082238BB9D8011C92D5011C9260827182B1
:10068000828293820894E11CF11CE4E0F0E0CE0E3B
:10069000DF1E0894A11CB11CF8E0CF16D10409F0AC
:1006A0007BCFDF91CF911F910F91FF90EF90DF9063
:1006B000CF90BF90AF909F908F907F906F905F9002
:1006C0004F903F9008958F929F92BF92CF92DF926A
:1006D000EF92FF920F931F93CF93DF93B62E833049
:1006E00008F06FC0C82FD0E0FE01E856FA4F6083D3
:1006F0006E01CC0CDD1CCC0CDD1C662309F451C052
:10070000E0915404F0E0EE0FFF1FEC0FFD1FEE0F21
:10071000FF1FEB5AFB4F80809180B40180E090E096
:100720000E941A377B018C016B2D70E0882777FDC2
:100730008095982F0E941C379B01AC01C801B7011E
:100740000E94813625E634E0C20ED31EF601608396
:1007500071838283938320E030E040E85FE30E946E
:100760007D36FE01E359FB4F8823CCF48B2D90E0BE
:10077000B4010E9456386083623008F462E06083FE
:10078000CC0FDD1FCC0FDD1FCB59DB4F80E090E09D
:10079000A0E8BFE388839983AA83BB8312C0108239
:1007A00010C025E634E0C20ED31E80E090E0A0E049
:1007B000B0E0F60180839183A283B383C359DB4FFA
:1007C0001882DF91CF911F910F91FF90EF90DF90F2
:1007D000CF90BF909F908F9008957F928F929F921D
:1007E000AF92BF92CF92DF92EF92FF920F931F933F
:1007F000D62E722E91E0961708F4DAC08823D9F429
:10080000862F90E0FC01E256FA4F208130E0880FFD
:10081000991FFC0113E0EE0FFF1F1A95E1F7E80F97
:10082000F91FC901880F991F820F931F880F991F05
:10083000E80FF91FDDC080905105C0905005C41627
:1008400008F061C0481508F05EC0642F70E06C19B4
:10085000710980E090E00E941A377B018C018C18AE
:10086000682D70E080E090E00E941A379B01AC0197
:10087000C801B7010E9481364B015C012D2D30E08B
:10088000F901E256FA4F808190E08C01000F111FB0
:10089000080F191F000F111F220F331FC90143E05A
:1008A000880F991F4A95E1F7280F391F020F131F70
:1008B000070D111D000F111F000F111FF801E95343
:1008C000FB4FC501B40121813281438154810E94D3
:1008D000D0376B017C0101541B4F60E070E080E871
:1008E0009FE3A50194010E941836F801218132810D
:1008F000438154810E94D0379B01AC01C701B601EE
:100900000E9419364CC0841608F04CC02D2D30E0E2
:10091000F901E256FA4F808190E0FC01EE0FFF1FD3
:10092000E80FF91FEE0FFF1F220F331FC901A3E0CD
:10093000880F991FAA95E1F7280F391FE20FF31FBF
:10094000E70DF11DEE0FFF1FEE0FFF1FE953FB4FE9
:10095000A180B280C380D480642F70E068197109CF
:1009600080E090E00E941A377B018C018094682D12
:1009700070E080E090E00E941A379B01AC01C80152
:10098000B7010E9481369B01AC01C601B5010E94EE
:10099000D0379B01AC01C601B5010E941836E62F85
:1009A000692F39C0C41610F041E008C0481529F07D
:1009B000E0E070E080E86FE32EC042E02D2D30E0F3
:1009C000F901E256FA4F808190E0FC01EE0FFF1F23
:1009D000E80FF91FC90153E0880F991F5A95E1F7F5
:1009E000820F931FE80FF91FE40FF11DEE0FFF1F99
:1009F000E70DF11DEE0FFF1FEE0FFF1FE954FB4F38
:100A0000DF011196E18111967C91119712968C91DC
:100A1000129713966C912E2F372F482F562FB9010E
:100A2000CA011F910F91FF90EF90DF90CF90BF9080
:100A3000AF909F908F907F9008952F923F924F920A
:100A40005F926F927F928F929F92AF92BF92CF925E
:100A5000DF92EF92FF920F931F93DF93CF93CDB767
:100A6000DEB72A970FB6F894DEBF0FBECDBFF82EC3
:100A70008B01E42E482F50E05A87498780E090E0B0
:100A80000E941A3720E030E04FE753E40E9481369D
:100A900020E030EA46EA54E40E94D0370E94EE3665
:100AA0005B016C0189849A84880C991C880C991CC0
:100AB000F401E159FB4F60837183828393830E9429
:100AC0001A379B01AC0160E070EA86EA94E40E9468
:100AD00018360E94EE366D837E838F839887E7E712
:100AE0002E2EE4E03E2E280C391CD1016D937D930F
:100AF0008D939C931397E0915404F0E0EE0FFF1F49
:100B0000ED5AFA4F49855A85E40FF51F81E06F2DA4
:100B1000402F238D0E94ED032B013C01EE2051F567
:100B200020E030E040E85FE30E947D36882311F149
:100B30006D817E818F8198850E941A377B018C019F
:100B400068E475E0860E971EC301B201D4012D91B1
:100B50003D914D915C910E94D0379B01AC01C80141
:100B6000B7010E94D0370E94EE36F1016083718395
:100B700082839383A114B104C104D10481F4E98573
:100B8000FA85EE0FFF1FEE0FFF1FE159FB4F81E0CB
:100B900090E0A0E0B0E080839183A283B3832985B5
:100BA0003A85220F331F220F331F9FE6292E94E030
:100BB000392E220E331ED1014D905D906D907C90A8
:100BC000411451046104710409F44AC0E985FA85AD
:100BD000EC56FA4F8081482F50E060E070E0498386
:100BE0005A836B837C834416550666067706C0F5E8
:100BF00087E7882E84E0982E820E931ED4016D9193
:100C00007D918D919C910E941A375B016C016981E5
:100C10007A818B819C810E941A377B018C01C301F0
:100C2000B2010E941A379B01AC01C801B7010E94B2
:100C300081369B01AC01C601B5010E94D0370E94EC
:100C4000EE36F401608371838283938349815A81F4
:100C50006B817C81D1014D935D936D937C93139750
:100C60002A960FB6F894DEBF0FBECDBFCF91DF91AD
:100C70001F910F91FF90EF90DF90CF90BF90AF90BA
:100C80009F908F907F906F905F904F903F902F90AC
:100C90000895AF92BF92CF92DF92EF92FF920F939F
:100CA0001F93D82E60914A04673009F065C0809187
:100CB0004704882359F40F2EFAE0EF2EF7EDFF2EAC
:100CC000F3E20F2FFCE31F2FF02D0AC00F2EFDECD7
:100CD000EF2EFCECFF2EFCEC0F2FFDE31F2FF02D71
:100CE0006091D1027091D20280E090E00E941A37A8
:100CF0009B01AC01C801B7010E94D0377B018C0178
:100D000071E0D71669F460913204709133048091D8
:100D1000340490913504A80197010E94193623C02C
:100D2000A0903204B0903304C0903404D0903504C5
:100D3000C601B501A80197010E947D3688236CF495
:100D400080E090E0A0E0B0E0809332049093330420
:100D5000A0933404B09335049AC0C601B501A8012C
:100D600097010E9418366093320470933304809385
:100D70003404909335048BC0862F8150863048F41C
:100D800090E080913604882309F491E09093360432
:100D90007EC08091D1029091D202A0E0B0E020917B
:100DA0002E0430912F04409130045091310471E0B1
:100DB000D71629F4280F391F4A1F5B1F12C02817A6
:100DC00039074A075B0748F410922E0410922F044B
:100DD00010923004109231040CC0281B390B4A0BBE
:100DE0005B0B20932E0430932F04409330045093D8
:100DF0003104683091F480912E0490912F04A091D9
:100E00003004B09131040397A105B10508F43FC047
:100E100082E090E0A0E0B0E012C06930C9F48091B7
:100E20002E0490912F04A0913004B09131040997C1
:100E3000A105B10560F188E090E0A0E0B0E080930A
:100E40002E0490932F04A0933004B09331041FC05C
:100E50006B30E9F480912E0490912F04A09130041E
:100E6000B09131040297A105B10560F081E090E0F6
:100E7000A0E0B0E080932E0490932F04A093300460
:100E8000B0933104809148048F7E809348041F9171
:100E90000F91FF90EF90DF90CF90BF90AF900895AB
:100EA000CF92EF920F9382EA94E061E142E12BE06E
:100EB00008E0B7E0EB2EA4E0CA2E0E9457290F915C
:100EC000EF90CF900895E62FF0E0EE0FFF1FEE0FAA
:100ED000FF1FE756FB4F408151816281738182EA97
:100EE00094E022E030E00E9415360895EF92FF92E0
:100EF0000F931F9390E0A0E0B0E0BC01CD010E94F1
:100F00001A3720E030E04FE753E40E94813620E0BA
:100F100030E048EC52E40E94D0377B018C0120E0A5
:100F200030E048EC52E40E947D3688234CF482EA9B
:100F300094E0B801A70121E030E00E9415360DC011
:100F4000C801B7010E94E9369B01AC0182EA94E036
:100F5000B9014AE050E00E941B3582EA94E065E264
:100F60000E9432341F910F91FF90EF9008959C01E1
:100F7000862FB901409197050E944C02AB01BC013C
:100F800082EA94E022E030E00E9415368091AD05BF
:100F9000882321F082EA94E063E603C082EA94E0C9
:100FA00069E60E94323408950F931F9302EA14E019
:100FB000C8010E949928C80160E040E00E946A28A8
:100FC000C80160E071E00E942E35C80160E041E098
:100FD0000E946A2840913204509133046091340495
:100FE00070913504C80122E030E00E9415361F914F
:100FF0000F91089582EA94E00E94992882EA94E091
:1010000060E040E00E946A2880914B0487FF12C094
:1010100080914C04807C21F48091BF05813029F4BB
:1010200082EA94E06CE071E009C082EA94E060E159
:1010300071E004C082EA94E063E171E00E942E3521
:1010400082EA94E064E040E00E946A28089585E026
:10105000E0E1F4E0DF011D928A95E9F708951F931E
:10106000182F823088F480935304882311F086E08F
:1010700001C085E06FEF70E00E94A230E12FF0E048
:10108000E35AFB4F81E080831F910895682F809180
:101090005F04882329F489E070E00E94A23008955B
:1010A000662319F089E061E002C089E060E00E94F7
:1010B00041310895809160048823A1F58091C20593
:1010C000882319F089E061E002C089E060E00E94B5
:1010D000413185E060E00E94413186E060E00E949D
:1010E000413180E1809381001092800021E02093C3
:1010F000E90580EF90E09093E8058093E7059093F1
:1011000087008093860081E1809381008FE992E0DF
:101110009093E6058093E50520936F00209360048B
:1011200020935F0408953F924F925F926F927F9257
:101130008F929F92AF92BF92CF92DF92EF92FF92E7
:101140000F931F93CF93DF93382E3B0181E08315DC
:1011500008F4C9C080915404A82FB0E0832C9924CE
:101160006D01CC0CDD1CF601E80DF91DEE0FFF1F23
:10117000EB5AFB4F71836083E401CC0FDD1F6FE7F7
:10118000462E64E0562E4C0E5D1EF2011182108236
:1011900080919705882321F4809148048C70B1F0E8
:1011A000FFEF6F16710409F008F44FC0AA0FBB1FC0
:1011B000A80DB91DAA0FBB1FAB5ABB4F8FEF90E014
:1011C0008D939C933FEF632E712C42C0B30180E05E
:1011D00090E00E941A377B018C01C656DA4F688175
:1011E000798180E090E00E941A379B01AC01C80130
:1011F000B7010E94813620E030E64AE657E40E94BB
:10120000D0370E94EE367B01F2017183608383E563
:1012100095E0C80ED91EC80CD91C80E0632D40E0B3
:10122000F601238D0E94ED035B016C0100E010E0EC
:10123000C801B7010E941A37A60195010E94D03754
:101240000E94EE36F201718360836114710471F0C3
:10125000F401EE56FA4F808190E06816790630F47A
:10126000832DB30140E00E941D050BC0F401EE0F79
:10127000FF1FEE0FFF1FE159FB4F108211821282F8
:101280001382332011F425E001C026E080914B0445
:1012900084FF29C0809148048C7071F4F401EE0F32
:1012A000FF1FE158FB4F80819181892B29F0822F0C
:1012B00060E00E94413117C0F401EE56FA4F808180
:1012C00090E0E401C35ADB4F6816790638F0822FAC
:1012D000B3010E94A23081E0888305C0822F60E0C4
:1012E0000E9441311882DF91CF911F910F91FF90A1
:1012F000EF90DF90CF90BF90AF909F908F907F90B6
:101300006F905F904F903F9008953F924F925F9201
:101310006F927F928F929F92AF92BF92CF92DF9205
:10132000EF92FF920F931F93CF93DF9375E6472EB3
:1013300074E0572E6DE6662E64E0762E50EA852E18
:1013400055E0952EC0E0D0E03C2EFE01E856FA4F65
:10135000E081EE2309F4A4C0209183043091840439
:101360004091850450918604D4018D919C91BC01DB
:1013700080E090E0621773078407950720F08C2FB8
:1013800060E070E08BC0AE2EBB24CC24DD2479015C
:101390008A01E61AF70A080B190BC801B701AE1447
:1013A000BF04C006D10640F1D3012C912223E1F005
:1013B00030E040E050E00E946A3861157105810517
:1013C000910509F06DC0E0915404F0E0EE0FFF1FAD
:1013D000EC0FFD1FEE0FFF1FEB5AFB4F6081718179
:1013E0006F5F7F4F8C2F5AC00E941A37F201208105
:1013F0003181428153814AC080916005909161059D
:101400007C0100E010E0E21AF30A040B150BD40192
:1014100014968D919C911597A0E0B0E0E81AF90A16
:101420000A0B1B0BAE14BF04C006D106C8F1F301B2
:101430002081222311F130E040E050E0C801B701E3
:101440000E946A38611571058105910549F5E091A1
:101450005404F0E0EE0FFF1FEC0FFD1FEE0FFF1F17
:10146000EB5AFB4F608171816115710511F460E0E9
:1014700001C06150832D70E011C0C801B7010E9406
:101480001A37D2012D913D914D915C910E94D03738
:101490000E94EE369B01AC018C2FB9010E9493088B
:1014A0002196E4E0F0E04E0E5F1E0894611C711C72
:1014B00082E0E82EF12C8E0C9F1CC230D10509F081
:1014C00043CFDF91CF911F910F91FF90EF90DF906D
:1014D000CF90BF90AF909F908F907F906F905F90D4
:1014E0004F903F9008950F931F93CF93DF93982FC2
:1014F000C82FD0E0E0915404662311F5F0E0EE0F20
:10150000FF1FEC0FFD1FEE0FFF1FEB5AFB4F00817B
:10151000118160E070E00E949308E0915404F0E0D3
:10152000EE0FFF1FEC0FFD1FEE0FFF1FEB5AFB4FDF
:101530001183008380914B048F7E80934B0413C0F2
:1015400080914B04806180934B04F0E0EE0FFF1F0D
:10155000EC0FFD1FEE0FFF1FEB5AFB4F60817181F7
:10156000892F0E949308DF91CF911F910F910895C9
:10157000282FA82FB0E0E0915404F0E0EE0FFF1FF9
:10158000EA0FFB1FEE0FFF1FEB5AFB4F808191818B
:10159000680F791F6F3F71051CF06FEF70E00EC090
:1015A00077FF02C060E070E0442341F0AE56BA4FCE
:1015B0008C9190E0681779070CF4BC01822F0E948F
:1015C0009308089580916004882321F010926F00A1
:1015D0001092600485E060E00E94413186E060E0A6
:1015E0000E94413180E060E00E94730A81E060E087
:1015F0000E94730A089580914B048F7680934B0468
:101600000E94E20A0895982F882309F457C0809118
:10161000CA05891709F052C00E94D42F20914304B3
:10162000309144044091450450914604621B730B71
:10163000840B950B2091E2033091E3034091E40386
:101640005091E503261737074807590710F080E047
:1016500008950E94D42F2091C6053091C70540916E
:10166000C8055091C905621B730B840B950B209123
:10167000E2033091E3034091E4035091E503261720
:1016800037074807590710F082E008950E94D42FC9
:101690006093C6057093C7058093C8059093C905EC
:1016A00088EC90E0A0E0B0E08093E2039093E30345
:1016B000A093E403B093E50383E008959093CA05F3
:1016C0009923B1F00E94D42F609343047093440493
:1016D00080934504909346040E94D42F6093C605DE
:1016E0007093C7058093C8059093C90581E008955C
:1016F00084EF91E0A0E0B0E08093E2039093E303F5
:10170000A093E403B093E50380E00895CF93DF93C3
:1017100080E00E948030EC018091CF029091D00255
:101720008C1B9D0B97FF03C0909581959F4FCD9784
:101730007CF0D093D002C093CF020E94D42F60934C
:101740003704709338048093390490933A0439C075
:101750000E94D42F209137043091380440913904ED
:1017600050913A04621B730B840B950B6431710525
:101770008105910530F1CE010B978737910510F463
:1017800081E020C0CE018F5B90408737910510F437
:1017900082E018C0CE01875891408737910510F438
:1017A00083E010C0CE01845592408737910510F434
:1017B00084E008C0C350D340C737D10510F485E09A
:1017C00001C080E0DF91CF910895FF920F931F93A6
:1017D000CF93DF93182F8E5F0E949531FF24892BC2
:1017E00011F4FF24F394012F10E0F801E157FB4FAF
:1017F0008081E801CC0FDD1FCC0FDD1FF81651F002
:10180000F0820E94D42FC957DB4F688379838A8383
:101810009B8315C00E94D42FC957DB4F2881398183
:101820004A815B81621B730B840B950B683C7105CD
:101830008105910520F0F801EF56FB4FF0820F561D
:101840001B4FF8018081DF91CF911F910F91FF9085
:1018500008950F931F93082F162F862F85508330DE
:1018600018F5802F8E5F61E00E940231153051F42F
:1018700080E890E002C0959587950A95E2F720915F
:101880004D040EC020914D04163019F480E290E012
:1018900002C080EA90E002C0959587950A95E2F72C
:1018A000282B20934D0434C0662399F4802F8E5F3B
:1018B00060E00E94413180EA90E002C095958795F2
:1018C0000A95E2F7809520914C04282320934C043C
:1018D0001FC020914C04643051F480E890E0002E49
:1018E00002C0959587950A94E2F7282B0AC080EAF2
:1018F00090E0002E02C0959587950A94E2F78095B6
:10190000282320934C04802F8E5F62E00E940231D6
:101910001F910F9108950F931F9389E061E00E943A
:10192000023189E06FEF70E00E94A23002EA14E019
:10193000C80160E142E020E00E94A128C80160E007
:1019400040E00E946A28C8010E949928C80167E106
:1019500071E00E942E35C80165E041E00E946A28CE
:10196000C80168E271E00E942E3560ED77E080E00A
:1019700090E00E94E22FC8010E949928C80160E00F
:1019800040E00E946A28C80163E371E00E942E359E
:10199000C80160E041E00E946A28C80164E471E087
:1019A0000E942E358EE060E00E9402318EE061E000
:1019B0000E9441318091480482688093480460ED20
:1019C00077E080E090E00E94E22F1F910F91089550
:1019D0008093CB05882389F08091C405882329F062
:1019E00082EA94E00E94462804C082EA94E00E94C1
:1019F000342881E08093CD0508958091C405882323
:101A000029F082EA94E00E945028089582EA94E046
:101A10000E943E2808950F931F938091480481608F
:101A20008093480402EA14E0C8010E94992880E0EB
:101A30000E94E80CC80165E571E00E942E356091B6
:101A4000530470E06F5F7F4FC8014AE050E00E948E
:101A50001B35C8016BE571E00E942E35609163046F
:101A60008DE2689FB0011124C8014AE050E00E9455
:101A7000C934C8016EE571E00E942E351F910F91A7
:101A8000089582EA94E00E94992880E00E94E80C80
:101A900082EA94E060E040E00E946A28809153046A
:101AA000882329F482EA94E064E671E004C082EAC3
:101AB00094E06BE671E00E942E3582EA94E060E0EB
:101AC00041E00E946A2882EA94E062E771E00E94A5
:101AD0002E3560915304E62FF0E0EE0FFF1FE75A1A
:101AE000FB4F2081918180919605882321F0822FE0
:101AF0000E94B7070895822F0E94760708950F93DA
:101B00001F938091A10480628093A10402EA14E0F3
:101B1000C8010E94992880E00E94E80CC8016AE789
:101B200071E00E942E35C80160E041E00E946A2801
:101B3000C80167E871E00E942E351F910F9108954A
:101B4000982F8091480484608093480481E08093BA
:101B50005404923041F48091A10480628093A104E6
:101B60000E947F0D0895909353040E94410D0895A3
:101B7000EF92FF920F931F937B018C01809164057C
:101B8000882321F08CE061E00E9441318DE061E02A
:101B90000E944131C801B70149E55EE00E949029E9
:101BA0000E94D82980914B04806480934B041F913C
:101BB0000F91FF90EF900895EF92FF920F931F9374
:101BC000982F813049F4E090AE05F090AF05009178
:101BD000B0051091B10508C0E090B205F090B305D2
:101BE0000091B4051091B50580914B0488608093F5
:101BF0004B0480914D04913059F487FF04C082E07A
:101C000061E00E94413180914D0486FF0FC00AC0FF
:101C100085FF04C082E061E00E94413180914D0463
:101C200084FF04C083E061E00E944131C801B70134
:101C30004EE65EE00E9490290E94D8291F910F91E4
:101C4000FF90EF9008950E94EE298091530488231D
:101C500011F086E001C085E060E070E00E94A230F3
:101C6000809162048F5F80936204E0915304F0E0FE
:101C7000E35AFB4F108208950E94EE2984E080937E
:101C80004E0408950E94EE298CE060E00E944131EC
:101C900082E080934E0408950E94EE2980914B04C7
:101CA0008F7B80934B0480914B04806280934B0424
:101CB00008958DE060E00E9441318CE060E00E9478
:101CC00041310E94EE2980914B048F7B80934B041D
:101CD00080914B04806280934B04089580914D0461
:101CE000807A21F082E060E00E94413180914D04D1
:101CF000807521F083E060E00E9441310E94EE296E
:101D000080914B04877F80934B040895AF92BF92DC
:101D1000CF92DF92FF920F931F93F82E5A016B011F
:101D20000AEE15E0C8010E94FB2CEF2DF0E0EE0F4B
:101D3000FF1FEE0FFF1FE756FB4FA082B182C2824A
:101D4000D382F394C8016F2D41E00E94902AC8010C
:101D50006F2DA60195010E94E92D1F910F91FF9013
:101D6000DF90CF90BF90AF9008951F93182F8AEE09
:101D700095E00E94FB2C4091A104E12FF0E020E8C7
:101D800030E0012E02C0359527950A94E2F7842FA2
:101D900090E082239323892B61F4422B4093A1048A
:101DA0001F5FEB56FB4F8AEE95E0612F40810E944A
:101DB000A62E1F9108958091A10487FD17C0609100
:101DC000990470919A0480919B0490919C0420E066
:101DD00030E040E050E00E94CC3718163CF480918F
:101DE00095048093970480E00E94B50E8091A10431
:101DF00086FD17C060919D0470919E0480919F04A0
:101E00009091A00420E030E040E050E00E94CC3708
:101E100018163CF4809196048093980481E00E9407
:101E2000B50E0895BF92CF92DF92EF92FF920F937B
:101E30001F93D82EB62E5AEEE52E55E0F52EC7018B
:101E40000E94FB2CCD2CC394C7016C2D43E00E9453
:101E5000902A0D2D10E0F801EE0FFF1FEE0FFF1F6F
:101E6000EA54FA4F2081318142815381C7016C2DA0
:101E70000E94E92DF801EB56FB4F808109561B4F5C
:101E8000D8018C93B0828D2D0E94B50E1F910F91B9
:101E9000FF90EF90DF90CF90BF900895EF92FF9268
:101EA0001F93182F6AEEE62E65E0F62EC7010E94FA
:101EB000FB2C80E890E0012E02C0959587950A944E
:101EC000E2F780952091A10428232093A1041F5FAD
:101ED000C701612F0E94A02C1F91FF90EF900895E1
:101EE000AF92BF92CF92DF92EF92FF920F931F9328
:101EF000182F5A016B017AEEE72E75E0F72EC70115
:101F00000E94FB2CE12FF0E080E890E0012E02C05F
:101F1000959587950A94E2F72091A104282B2093A8
:101F2000A1041F5FEB56FB4FC701612F4081960153
:101F300085010E942D2F1F910F91FF90EF90DF9050
:101F4000CF90BF90AF900895AF92BF92CF92DF92A3
:101F5000EF92FF920F931F932091600530916105DE
:101F600021153105E1F140E050E08091830490912A
:101F70008404A0918504B091860482179307A40776
:101F8000B50768F18091D505882321F56091550446
:101F90007091560480E090E00E941A3720E030E013
:101FA00040E050E00E947D36181684F0609157049E
:101FB0007091580480E090E00E941A3720E030E0F1
:101FC00040E050E00E947D36181624F48091970579
:101FD000882329F01092D5050E94FB0A32C0809117
:101FE0004E04823071F464E670E080E090E04CE3EF
:101FF0005EE00E9490290E94D82983E080934E04DD
:1020000020C0809197058823E1F0209155043091FC
:1020100056042115310531F08091920590E0281782
:10202000390768F020915704309158042115310583
:1020300041F08091930590E02817390710F40E9431
:102040005A0880919705882349F08091BE0588231E
:1020500029F00E94DB0E81E08093D5058091610418
:102060008823A1F120916204213019F58091D405D3
:10207000882309F068C180917F0490918004892BA6
:10208000A9F060918104709182046115710571F06D
:102090002093D40580E090E043E25EE00E94902926
:1020A00081E00E942F080E94D8294DC1109261043E
:1020B000CFC080916204882309F445C11092610465
:1020C00081E08093D5051092D4053DC180914B04E9
:1020D000887409F038C180914E04833009F0CDC175
:1020E00032C180914B048F7D80934B048091D70542
:1020F000813081F51092D7058091830490918404FA
:10210000A0918504B09186040196A11DB11D809314
:10211000830490938404A0938504B09386040E9462
:10212000850960915E0570915F056115710591F0FB
:1021300080914B04806480934B0480E090E04CE4F9
:102140005EE00E9490290E94D8291092D605109234
:10215000D50516C080914D04807379F08091B20549
:102160009091B305A091B405B091B5050097A10574
:10217000B10519F080E00E94DC0D81E08093D60566
:102180008091D605813009F0DEC08091BE0588239C
:1021900009F4D9C080919705882309F0D4C0E09054
:1021A0009904F0909A0400919B0410919C04C8013A
:1021B000B70120E030E040E050E00E94CC37181634
:1021C0003CF480E0B801A7010E94700F1092D50581
:1021D000E0909D04F0909E0400919F041091A00453
:1021E000C801B70120E030E040E050E00E94CC3769
:1021F00018160CF0A8C081E0B801A7010E94700F6A
:102200005EC08091D605813009F05CC08091970551
:10221000882309F057C08091BE058823E9F080919A
:10222000A104807CC9F08AEE95E061E00E94B22BA7
:10223000882309F088C08AEE95E062E00E94B22B04
:10224000882309F080C08091A1048F738093A1043A
:1022500081E08093D50577C020917F043091800480
:102260002115310531F48091810490918204892BEC
:1022700049F110926204232B41F080E00E942F0864
:1022800060917F04709180040DC0809181049091D1
:102290008204892B69F081E00E942F0860918104FB
:1022A0007091820480E090E043E25EE00E94902919
:1022B0000E94D82981E0809361041092D605109283
:1022C000D50541C08091BF05813021F080914C043B
:1022D000807C41F080914C0485FF35C08F7D8093D8
:1022E0004C042EC060914F047091500480915104B1
:1022F000909152040E941A375B016C010E94D42F06
:102300000E941A377B018C0160915405709155052C
:10231000809156059091570520E030E04AE754EC53
:102320000E94D0379B01AC01C801B7010E94193649
:102330009B01AC01C601B5010E947D3688231CF4C7
:1023400081E08093D3058091D305813009F0A0C04E
:1023500080914D04807CF9F08091AE059091AF059D
:10236000A091B005B091B1050097A105B10599F014
:102370008091D205882379F480916505882321F026
:102380008091D105882339F481E00E94DC0D81E041
:102390008093D2057DC020914E04243081F080913D
:1023A0005C0590915D05892B51F08091650588232E
:1023B00009F468C08091D105882309F463C0809135
:1023C0004B0483FD5FC080916505882321F08091D7
:1023D000D105882351F40E94D42F60934F04709349
:1023E0005004809351049093520490916505992371
:1023F00021F08091D105891750F081E08093D705B5
:102400001092D3051092D2051092D1050FC08823E7
:1024100041F0609162057091630580E090E00E9458
:10242000E22F8091D1058F5F8093D105609158058F
:102430007091590580915A0590915B050E94B80DE5
:1024400010924E0425C0222319F580914B0483FD80
:102450001FC08CE061E00E94413160915C05709189
:102460005D0580E090E042E45EE00E9490290E94D9
:10247000D82981E080934E040BC080914B0485FDE8
:1024800030CEBFCE80915C0590915D05892BD9F649
:102490001F910F91FF90EF90DF90CF90BF90AF9082
:1024A0000895CF93DF93CCEBD0E087E196E0BE01B7
:1024B0000E94792FFE01E956FB4F8083219681E02F
:1024C000CF32D80791F7DF91CF910895CF93DF9363
:1024D000C0E2D0E087E196E0BE010E94792FFE01C4
:1024E000E956FB4F80832196CC3BD10599F7DF91CC
:1024F000CF910895CF93DF930E9466120E945112EC
:1025000082EA94E00E94992882EA94E065E971E009
:102510000E942E3582EA94E06091B7044AE050E0D0
:102520000E94C93482EA94E060E041E00E946A2897
:1025300082EA94E061EA71E00E942E3582EA94E03A
:10254000609153054AE050E00E94C93460ED77E0A5
:1025500080E090E00E94E22F82EA94E00E949928B5
:102560008091B7048D3521F4809152058D3529F184
:10257000C0E2D0E0FE01ED54FD4F87E196E0BE01E0
:1025800040810E94802F2196CC3BD10599F782EAA9
:1025900094E06DEA71E00E942E3582EA94E06DE5E8
:1025A00070E04AE050E00E941B350E94661260ED28
:1025B00077E080E090E00E94E22F809153058D3516
:1025C00021F48091C5058D3561F1CCEBD0E0FE01A1
:1025D000ED54FD4F87E196E0BE0140810E94802FBF
:1025E000219681E0CF32D80791F782EA94E060E04B
:1025F00041E00E946A2882EA94E069EB71E00E945F
:102600002E3582EA94E06DE570E04AE050E00E94E9
:102610001B350E94511260ED77E080E090E00E944F
:10262000E22F809166059091670590935604809300
:1026300055048091680590916905909358048093A2
:10264000570480916A0590916B0590935A0480938A
:10265000590480916C0590916D0590935C04809372
:102660005B04DF91CF910895CF93DF93C0E2D0E078
:1026700087E196E0BE010E94792FFE01E956FB4FEB
:102680004081841729F087E196E0BE010E94802FE7
:102690002196CC3BD10561F7CCEBD0E087E196E009
:1026A000BE010E94792FFE01E956FB4F408184173D
:1026B00029F087E196E0BE010E94802F219681E0FB
:1026C000CF32D80759F7DF91CF910895EF92FF925B
:1026D0000F931F93982F1092470487E080934A042A
:1026E000992321F0913009F06AC031C0613031F591
:1026F000E0903204F09033040091340410913504DA
:10270000C801B70120E030E04FEA53E40E94CC3723
:10271000181654F40F2EF0E0EF2EF0E0FF2EFFEA33
:102720000F2FF3E41F2FF02DE092B605F092B705BE
:102730000093B8051093B9050E9434138091B60533
:102740009091B705A091B805B091B90530C061303E
:1027500031F5E0903204F09033040091340410918C
:102760003504C801B70120E030E04FEA53E40E948D
:10277000CC37181654F40F2EF0E0EF2EF0E0FF2EB9
:10278000FFEA0F2FF3E41F2FF02DE092BA05F0922D
:10279000BB050093BC051093BD050E9434138091C6
:1027A000BA059091BB05A091BC05B091BD05809381
:1027B000320490933304A0933404B09335041F91F2
:1027C0000F91FF90EF90089591E090934A04882331
:1027D000B1F4613069F480913604882311F080E00F
:1027E00001C08DE58093B704809352050E94341395
:1027F0008091B7048D35E9F48091520515C06130A0
:1028000069F480913604882311F080E001C08DE5E1
:10281000809353058093C5050E943413809153051E
:102820008D3539F48091C5058D3519F41092360433
:10283000089581E080933604089510924704833010
:1028400009F46EC0843030F48130E1F1823008F058
:102850004AC00DC0853009F485C0853008F471C0C8
:10286000863009F48FC0873009F0D4C0B9C087E042
:1028700080934A0481E080934704613091F4809111
:10288000320490913304A0913404B09135048093C4
:10289000540590935505A0935605B09357050E9493
:1028A00034138091540590915505A0915605B0912F
:1028B00057058093320490933304A0933404B0936B
:1028C00035040895613051F480912E0490912F04C5
:1028D00090936105809360050E9434138091600598
:1028E0009091610572C0613091F480912E049091B5
:1028F0002F04A0913004B091310480935805909337
:102900005905A0935A05B0935B050E94341380913A
:10291000580590915905A0915A05B0915B0557C093
:10292000613051F480912E0490912F0490935F05B3
:1029300080935E050E94341380915E0590915F053F
:1029400044C0613051F480912E0490912F049093F3
:102950005D0580935C050E94341380915C05909125
:102960005D0533C081E080934A04613031F4809189
:102970003604809364050E9434138091640580932B
:10298000360408956130F1F480912E0490912F0463
:10299000A0913004B09131048F3F9105A105B1059C
:1029A00029F020F08FEF90E0A0E0B0E080932E04BB
:1029B00090932F04A0933004B09331048093650565
:1029C0000E9434138091650590E0A0E0B0E0809310
:1029D0002E0490932F04A0933004B09331040895F3
:1029E000613051F480912E0490912F0490936305EF
:1029F000809362050E943413809162059091630573
:102A0000A0E0B0E080932E0490932F04A0933004B4
:102A1000B09331040895AF92BF92CF92DF92EF92BC
:102A2000FF920F931F93A82EBB24CB01BA01A901DB
:102A300098010E94D0376B017C0103E515E0F50198
:102A4000EE0FFF1FEE0FFF1FE00FF11F67A770AB28
:102A500081AB92AB0A0D1B1D015C1F4F67A970ADC6
:102A600081AD92ADA70196010E94813620E030E051
:102A70004FE753E40E94D0370E94EE36F80160839E
:102A8000AA0CBB1C8AE995E0A80EB91EC701B601C5
:102A900020E030E048EC52E40E94D0370E94EE364D
:102AA000F501718360830E9434131F910F91FF9091
:102AB000EF90DF90CF90BF90AF9008950F931F934A
:102AC00010924A04E82FF0E0E231F10508F032C23A
:102AD000EC5CFF4FEE0FFF1F0590F491E02D099481
:102AE00081E080934A04613031F480913604809310
:102AF000C3050E9434138091C3051AC284E08093F9
:102B00004A04613031F480913604809396050E9426
:102B10003413809196050CC285E080934A0461309D
:102B200031F480913604809397050E94341380918C
:102B30009705FEC16130C1F480912E0490912F045D
:102B4000A0913004B09131048F3F9105A105B105EA
:102B500029F020F08FEF90E0A0E0B0E08093C20574
:102B60000E9446080E9434138091C20552C1613010
:102B700051F480912E0490912F049093A905809395
:102B8000A8050E9434138091A8059091A90542C11F
:102B900081E080934A04613031F48091360480935F
:102BA000AA050E9434138091AA05C2C189E08093CE
:102BB0004A04613059F480912E048093AB050E9441
:102BC000341380E060912E040E94290C8091AB05A3
:102BD00020C189E080934A04613049F460912E0459
:102BE0006093AC0581E00E94290C0E94341380910F
:102BF000AC050FC181E080934A04613009F0DDC06B
:102C0000109136048091AD05181709F4D6C08823B9
:102C100009F451C06091720570917305809174053B
:102C2000909175052CE53FE842E250E40E94813620
:102C30006093720570937305809374059093750586
:102C400060918A0570918B0580918C0590918D051E
:102C50002CE53FE842E250E40E94813660938A0509
:102C600070938B0580938C0590938D05609176050C
:102C70007091770580917805909179052CE53FE872
:102C800042E250E40E9481366093760570937705A6
:102C9000809378059093790560918E0570918F05EA
:102CA00080919005909191052CE53FE842E250E437
:102CB0000E94813650C060917205709173058091B9
:102CC0007405909175052CE53FE842E250E40E94BE
:102CD000D037609372057093730580937405909359
:102CE000750560918A0570918B0580918C05909196
:102CF0008D052CE53FE842E250E40E94D037609316
:102D00008A0570938B0580938C0590938D05609157
:102D100076057091770580917805909179052CE57D
:102D20003FE842E250E40E94D0376093760570930A
:102D30007705809378059093790560918E05709161
:102D40008F0580919005909191052CE53FE842E236
:102D500050E40E94D03760938E0570938F05809366
:102D60009005909391051093AD050E943413409106
:102D70007A0550917B0560917C0570917D050091ED
:102D8000720510917305209174053091750580E0EE
:102D90000E940B1540917E0550917F056091800542
:102DA0007091810500917605109177052091780545
:102DB0003091790581E00E940B158091AD05B8C076
:102DC00081E080934A04613031F48091360480932D
:102DD000BE050E9434138091BE05AAC08AE080938C
:102DE0004A04613031F480912E04809350050E9492
:102DF0003413809150050DC08AE080934A046130FD
:102E000031F480912E04809351050E9434138091F7
:102E1000510590E0A0E0B0E039C0613091F48091BC
:102E20002E0490912F04A0913004B091310480932E
:102E3000AE059093AF05A093B005B093B1050E9485
:102E400034138091AE059091AF05A091B005B0917B
:102E5000B1051CC0613091F480912E0490912F0433
:102E6000A0913004B09131048093B2059093B305E2
:102E7000A093B405B093B5050E9434138091B205B8
:102E80009091B305A091B405B091B50580932E043F
:102E900090932F04A0933004B09331044BC081E091
:102EA00080934A04613031F4809136048093BF05E9
:102EB0000E9434138091BF053BC081E080934A0497
:102EC000613031F4809136048093C1050E9434133F
:102ED0008091C1052DC081E080934A04613059F48E
:102EE00080913604882311F083E001C082E0809352
:102EF000C0050E943413109236048091C0058230C0
:102F0000C9F081E015C081E080934A04613071F41A
:102F10001091CB0580E00E94E80C809136048093EC
:102F2000C405812F0E94E80C0E9434138091C405CF
:102F3000809336041F910F910895FF920F931F9372
:102F4000F42E10924A04843009F48CC0853050F479
:102F5000813049F18130C8F08230E1F1833009F0ED
:102F600067C151C0873009F4BDC0883038F485305E
:102F700009F48BC0863009F05BC18CC0883009F43D
:102F8000EBC0893009F054C11EC1613039F4842F7F
:102F900060912E040E9463030E943413EF2DF0E031
:102FA000E856FA4F39C1613071F4E42FF0E0EE0FCA
:102FB000FF1FE056FA4F80912E0490912F049183C9
:102FC00080830E943413EF2DF0E0EE0FFF1FE056D8
:102FD000FA4F16C0613071F4E42FF0E0EE0FFF1FDE
:102FE000EC55FA4F80912E0490912F0491838083A9
:102FF0000E943413EF2DF0E0EE0FFF1FEC55FA4F57
:10300000808191810BC187E080934A046130E9F4AB
:10301000E42FF0E040913204509133046091340485
:1030200070913504EE0FFF1FEE0FFF1FED5AFA4FA0
:1030300047A350A761A772A7078D10A121A132A1B4
:103040008F2D0E940B150E943413EF2DF0E0EE0F30
:10305000FF1FEE0FFF1FED5AFA4F87A190A5A1A504
:10306000B2A5A8C088E080934A04613049F4E42FF7
:10307000F0E0E256FA4F80912E0480830E943413D0
:10308000EF2DF0E0E256FA4FC7C0409353040E9480
:103090000B0DCEC087E080934A046130B1F4E42F79
:1030A000F0E0EE0FFF1FEE0FFF1FE85BFA4F80917D
:1030B000320490913304A0913404B091350480839C
:1030C0009183A283B3830E943413EF2DF0E0EE0FBF
:1030D000FF1FEE0FFF1FE85BFA4F80819181A281F5
:1030E000B38168C080934A04613049F5042F10E031
:1030F00060913204709133048091340490913504CE
:10310000F801EE0FFF1FEE0FFF1FED5AFA4F67ABEE
:1031100070AF81AF92AF0E561A4F27A530A941A9C3
:1031200052A90E94813620E030E04FE753E40E942C
:10313000D0370E94EE36F80160830E943413EF2DE1
:10314000F0E0EE0FFF1FEE0FFF1FED5AFA4F87A9B9
:1031500090ADA1ADB2AD2EC087E080934A0461303E
:10316000E9F4E42FF0E0009132041091330420914F
:10317000340430913504EE0FFF1FEE0FFF1FED5AA0
:10318000FA4F078F10A321A332A347A150A561A531
:1031900072A58F2D0E940B150E943413EF2DF0E0C5
:1031A000EE0FFF1FEE0FFF1FED5AFA4F878D90A114
:1031B000A1A1B2A18093320490933304A09334046C
:1031C000B093350435C0613019F580912E0490918B
:1031D0002F04A0913004B09131048F3F9105A105D7
:1031E000B10569F060F08FEF90E0A0E0B0E080936F
:1031F0002E0490932F04A0933004B0933104EF2D4C
:10320000F0E0EC56FA4F80912E0480830E94341334
:10321000EF2DF0E0EC56FA4F808190E0A0E0B0E0B6
:1032200080932E0490932F04A0933004B093310424
:103230001F910F91FF9008950F931F93CF93DF93EA
:10324000082F162F80915404E82FF0E0C02FD0E013
:10325000EE0FFF1FED5AFA4FEC0FFD1F838D8617FF
:1032600019F0638F0E9434138091C105882329F0DF
:1032700080E0112309F481E0182FE0915404F0E07C
:10328000EE0FFF1FEC0FFD1FEE0FFF1FEB5AFB4F62
:10329000C081D18180914B0484FF0BC0802F60E0FE
:1032A00070E00E94930868EC70E080E090E00E947B
:1032B000E22F002369F4612F8FE00E944131809159
:1032C0004B0484FF0BC0802FBE010E94930806C0F0
:1032D00060E0112309F461E080E1EFCFDF91CF914D
:1032E0001F910F9108951F93182F809148048860B3
:1032F0008093480480E062E00E94290C81E0809382
:103300005404109253048BE080934A0480912E045D
:1033100090912F04A0913004B09131040097A10541
:10332000B10571F480914B0484FF25C080E060E01A
:103330000E94730A80914B048B7F80934B041BC0C7
:103340000197A105B105B9F480914B0484FD13C028
:1033500080914B04846080934B04113019F480E019
:1033600060E002C080E061E00E941C19809153047B
:1033700061E00E94730A1F910895982FE82FF0E0F2
:10338000EB53FD4F80818617E0F110924A04943090
:1033900001F1953038F4923091F09330A0F49130EF
:1033A00081F509C09630F9F09630C0F0973001F100
:1033B000983039F522C0862F0E94A00D0895862FDF
:1033C000642F40E003C0862F642F41E00E949D17C8
:1033D0000895862F642F0E941D140895862F642F50
:1033E0000E9473190895862F642F0E94E413089594
:1033F000862F642F0E945E150895862F642F0E94E9
:10340000661308951F93CF93DF93EC01142F61305F
:1034100009F0AEC182EA94E00E9499288AE194E022
:1034200060E270E041E150E00E94F60182EA94E03F
:103430000E94502882EA94E060E040E00E946A28FE
:1034400080912C0480932D04E82FF0E0EE0FFF1FF5
:10345000EC0FFD1F659174918AE194E00E94EF01E9
:1034600082EA94E065EC71E00E942E3582EA94E0F5
:103470006AE174E00E942E3582EA94E060E041E067
:103480000E946A281123D1F540912C04842F90E0EA
:10349000E0912B04F0E0EB53FD4F208130E08217E8
:1034A000930734F54F5F40932D048AE194E060E286
:1034B00070E041E150E00E94F60180912C04E82F79
:1034C000F0E03196EE0FFF1FEC0FFD1F6591749138
:1034D0008AE194E00E94EF0182EA94E068EC71E0F6
:1034E0000E942E3582EA94E06AE174E00E942E3553
:1034F000809148048F7C8093480454C18091480493
:1035000080628093480484FD0CC080912B046091FC
:103510002C0440E00E94BD19809148048061809392
:10352000480480914A04873079F4409132045091E4
:103530003304609134047091350482EA94E022E00F
:1035400030E00E9415362EC1813081F4809136041E
:10355000813029F482EA94E060E171E004C082EAFB
:1035600094E063E171E00E942E351CC1823071F459
:1035700080913604813029F482EA94E06BEC71E0AA
:10358000F2CF82EA94E06EEC71E0EDCF833071F41B
:1035900080913604813029F482EA94E061ED71E093
:1035A000E2CF82EA94E064ED71E0DDCF843071F423
:1035B00080913604813029F482EA94E067ED71E06D
:1035C000D2CF82EA94E06BED71E0CDCF853071F41B
:1035D00080913604813029F482EA94E06FED71E045
:1035E000C2CF82EA94E06AEE71E0BDCF863071F41A
:1035F00080913604813029F482EA94E065EF71E02D
:10360000B2CF82EA94E06CEF71E0ADCF883019F56B
:1036100080912E0490912F04A0913004B091310438
:103620000097A105B10529F482EA94E060E070E01A
:103630000DC00197A105B10529F482EA94E06DE27D
:1036400070E004C082EA94E06AE570E04AE050E08D
:103650000E941B35A7C0893009F05BC080912E0401
:1036600090912F04A0913004B09131040097A105EE
:10367000B10529F482EA94E063E072E074CF81300E
:103680009105A105B10529F482EA94E06CE072E0AD
:103690006ACF82309105A105B10529F482EA94E050
:1036A00062E172E060CF83309105A105B10529F494
:1036B00082EA94E067E172E056CF84309105A1057B
:1036C000B10529F482EA94E06EE172E04CCF8530D6
:1036D0009105A105B10529F482EA94E06DE272E05A
:1036E00042CF86309105A105B10529F482EA94E024
:1036F00068E372E038CF0797A105B10529F482EAA3
:1037000094E062E472E02FCF82EA94E06BE472E02E
:103710002ACF8A3041F480912E0490912F0460E0EA
:103720000E94B7073FC040912E0450912F04609132
:103730003004709131048B30A1F4411551056105BD
:10374000710529F482EA94E066E572E00CCF41301D
:1037500051056105710531F582EA94E06EE572E08C
:1037600002CF82EA94E02AE030E00E94BA341AC024
:103770008091480485FD16C082EA94E060E040E054
:103780000E946A2882EA94E060E20E94323482EA6F
:1037900094E060E041E00E946A2882EA94E06EE3EF
:1037A0000E943234DF91CF911F9108950F931F93A0
:1037B000182F062F80E00E94E80C1130E1F4E09110
:1037C0002C04EE2339F4E0912B04F0E0EB53FD4F91
:1037D000908102C09E2F915090932C0480912D04D3
:1037E000981700F1E0912B04F0E0EB53FD4F80813E
:1037F000981719F517C01230D1F490912C04E0916C
:103800002B04F0E0EB53FD4F8081981710F090E00F
:1038100001C09F5F90932C0480912D04891710F0B4
:10382000992359F482EA94E00E94992804C0133045
:1038300011F010922C0461E001C060E080912B0433
:10384000843001F1853048F4813099F0813070F096
:10385000823091F0833039F512C08630C9F086305D
:10386000A0F08730C1F08830F1F418C08BEA92E004
:1038700017C08BEB92E014C085EC92E011C089ED8B
:1038800092E00EC08DEE92E00BC081EC92E008C099
:1038900085E293E005C08DEF92E002C081E293E003
:1038A000402F0E94021A1F910F91089580914804A1
:1038B00080FF03C08E7F809348049091480493FF5B
:1038C0000EC080914B0482FD49C010925404977F32
:1038D0009093480480E06091AB050E94290C909180
:1038E000480495FF0AC09F7C9093480410924704B7
:1038F00083E060E00E94D61B089580912B0488230A
:1039000071F410922C049F7B9068909348040E945D
:10391000270881E08093CE020E94E80C089510925F
:103920002B0410922C04E4E0F0E0DF01A05FBB4F19
:103930008C91882351F0815080932B04EB5EFB4FD8
:10394000808180932C041C9205C031978FEFEF3F4C
:10395000F80759F783E060E00E94D61B0895909124
:103960002B04892F8250823038F480912C048530CA
:1039700019F4892F65E010C060912C04992319F087
:10398000913081F408C08091C502861758F0262F27
:103990002F5F2E3F29F4892F40E00E94BD19089522
:1039A0002F3F49F48091480485FD22C083E061E007
:1039B0000E94D61B0895E0E0F0E0DF01A05FBB4F5E
:1039C0008C91882331F481E08C93EB5EFB4F608314
:1039D00004C03196E530F10581F7809148048F7D70
:1039E0008093480420932B0480E060E00E94D61B63
:1039F0000895AF92BF92CF92DF92EF92FF920F9312
:103A00001F93182F7B0180915304E0915404F0E040
:103A1000EE0FFF1FED5AFA4FE80FF11DA38C642F34
:103A20000E941C19D09053041130B1F5B70180E009
:103A300090E00E941A377B018C01ED2DF0E0EE0F33
:103A4000FF1FE656FA4F6081718180E090E00E948E
:103A50001A379B01AC01C801B7010E94813620E0F2
:103A600030E64AE657E40E94D0370E94EE367B01EA
:103A70008C01109262048D2D0E942F08B70180E006
:103A800090E043E25EE00E9490290E94D829809154
:103A900062048823E1F34AC0ED2DF0E0EE0FFF1F32
:103AA000EE0FFF1FDF01A159BB4FCC90E958FB4F30
:103AB000B0808D2DB70141E00E941D050E94D42FDA
:103AC0007B018C010E945A0803C08EE00E94803066
:103AD0000E94D42F6E197F09800B910B6059724E92
:103AE0008040904090F30E94E20A80915304E82FB6
:103AF000F0E0EE0FFF1FEE0FFF1FDF01A159BB4FDC
:103B00002C2D30E040E050E02D933D934D935C939D
:103B10001397E958FB4F2B2D30E040E050E0208315
:103B20003183428353836A2D0E941C191F910F9188
:103B3000FF90EF90DF90CF90BF90AF90089580916D
:103B40004C048F7D80934C0480914B04806980935A
:103B50004B04E0915404F0E0EE0FFF1FED5AFA4FD2
:103B600080E0638D0E941C19E0915404F0E0EE0F98
:103B7000FF1FE159FA4F81E060810E941C1980E02B
:103B800061E00E94730A81E061E00E94730A809103
:103B90009805882329F080E060E070E00E94930897
:103BA00080919905882329F081E060E070E00E940F
:103BB000930810928304109284041092850410924A
:103BC00086040895DF92EF92FF920F931F93D62EF3
:103BD00010924A0410924704833009F441C08430A3
:103BE00030F4813059F0823009F0D7C023C08430DE
:103BF00009F475C0853009F0D0C089C082EA94E02C
:103C000060E040E00E946A28DD2049F0809136049F
:103C1000882319F00E949F1D02C00E94FB0A81E0C8
:103C200080934A0480914B0490E0880F892F881F6D
:103C3000990B6AC082EA94E060E041E00E946A2841
:103C4000DD2041F090913604809195048093970493
:103C50009093950483E080934A048091950454C026
:103C600082EA94E061E041E00E946A2887E0809364
:103C70004A0410924704E0903204F090330400911B
:103C8000340410913504C801B70120E030E044EB62
:103C900053E40E94CC37181654F40F2EF0E0EF2EA8
:103CA000F0E0FF2EF4EB0F2FF3E41F2FF02DE09246
:103CB0003204F09233040093340410933504DD2071
:103CC00029F080E0B801A7010E94860E8091990436
:103CD00090919A04A0919B04B0919C0456C082EAF2
:103CE00094E068E041E00E946A28DD2041F0909174
:103CF000360480919604809398049093960483E010
:103D000080934A04809196048093360446C082EAE8
:103D100094E069E041E00E946A2887E080934A04C9
:103D200010924704E0903204F09033040091340480
:103D300010913504C801B70120E030E044EB53E4B2
:103D40000E94CC37181654F40F2EF0E0EF2EF0E05E
:103D5000FF2EF4EB0F2FF3E41F2FF02DE09232042F
:103D6000F09233040093340410933504DD2029F0DD
:103D700081E0B801A7010E94860E80919D04909178
:103D80009E04A0919F04B091A0048093320490936C
:103D90003304A0933404B09335041F910F91FF9026
:103DA000EF90DF90089582EA94E066E672E00E9468
:103DB0002E3582EA94E060E041E00E946A2880911A
:103DC0009504813021F482EA94E06CE403C082EA35
:103DD00094E062E50E9432346091990470919A04F3
:103DE00080919B0490919C040E94EE36DC01CB01F3
:103DF00060E00E94630782EA94E068E041E00E948C
:103E00006A2880919604813021F482EA94E064E487
:103E100003C082EA94E065E50E94323460919D041B
:103E200070919E0480919F049091A0040E94EE36B0
:103E3000DC01CB0161E00E9463078091CE02882300
:103E400019F060E00E94E21D089580914B0487FF05
:103E500003C00E94FB0A08950E949F1D08951F93AE
:103E6000182F0E94E50B982FE12FF0E0DF01AD56EF
:103E7000BB4F8C91981709F45EC09C93992309F469
:103E80005AC080914B0482FF18C080E060E00E941D
:103E9000730A80914B048B7F80934B0410922E0405
:103EA00010922F04109230041092310481EC92E0B1
:103EB00061E041E00E94021A3EC0E555FA4F1081D0
:103EC000133091F0143028F4113041F0123099F58C
:103ED00008C0143061F0183071F50FC00E949F1DAA
:103EE0002AC00E94FB0A27C00E94251F24C080917F
:103EF0004C04806280934C041EC060E0E091540446
:103F0000F0E0EE0FFF1FED5AFA4F838D882309F47E
:103F100061E080E00E941C1960E0E0915404F0E050
:103F2000EE0FFF1FE159FA4F8081882309F461E009
:103F300081E00E941C191F9108951F93982F162F3E
:103F400010924A04109247048091A10484FF04C097
:103F5000892F0E94E21D5EC1933009F45FC0943046
:103F600030F4913071F0923009F054C126C0953090
:103F700009F4CBC0953008F46AC0963009F04AC104
:103F8000DFC082EA94E060E040E00E946A281123EA
:103F900049F080913604882319F00E949F1D02C0C9
:103FA0000E94FB0A81E080934A0480914B0490E0D8
:103FB000880F892F881F990BC0C082EA94E064E0C3
:103FC00040E00E946A2887E080934A0481E0809361
:103FD0004704112391F08091320490913304A09111
:103FE0003404B09135048093540590935505A09303
:103FF0005605B09357050E94341380915405909153
:104000005505A0915605B0915705809332049093C1
:104010003304A0933404B0933504FCC082EA94E0E6
:1040200060E041E00E946A28112329F080E060915D
:1040300036040E941C1983E080934A04E0915404E2
:10404000F0E0EE0FFF1FED5AFA4F838D76C082EA43
:1040500094E061E041E00E946A28809197052091F8
:104060002E0430912F044091300450913104882364
:1040700071F480919A0590919B05A0E0B0E028171B
:1040800039074A075B0778F4DA01C9010CC0DA0185
:10409000C9012F3F31054105510529F020F08FEF6F
:1040A00090E0A0E0B0E080932E0490932F04A093C2
:1040B0003004B09331041123F1F060912E0470911B
:1040C0002F0480E00E949308E0915404F0E0EE0F8A
:1040D000FF1FEE0FFF1FDF01AB5ABB4F8D919C916D
:1040E000ED5AFA4F948B838B0E94341380E06091D9
:1040F00098050E946303E0915404F0E0EE0FFF1F67
:10410000EE0FFF1FEB5AFB4F79C082EA94E068E0A4
:1041100041E00E946A28112329F081E06091360471
:104120000E941C1983E080934A04E0915404F0E05B
:10413000EE0FFF1FE159FA4F8081809336046AC069
:1041400082EA94E069E041E00E946A288091970544
:1041500020912E0430912F0440913004509131046D
:10416000882371F480919C0590919D05A0E0B0E0BA
:10417000281739074A075B0778F4DA01C9010CC030
:10418000DA01C9012F3F31054105510529F020F021
:104190008FEF90E0A0E0B0E080932E0490932F0486
:1041A000A0933004B09331041123F9F060912E04F0
:1041B00070912F0481E00E949308E0915404F0E094
:1041C000EE0FFF1FEE0FFF1F3296DF01AB5ABB4F02
:1041D0008D919C91ED5AFA4F948B838B0E943413EE
:1041E00081E0609199050E946303E0915404F0E03E
:1041F000EE0FFF1FEE0FFF1FE95AFB4F80819181E9
:10420000A0E0B0E080932E0490932F04A09330049C
:10421000B09331041F9108951F93182F81E00E94DD
:10422000E80C4091BE05442331F08091A10484FF45
:1042300002C025E001C026E08091CE02112371F07A
:104240008F5F8093CE02992787FD909530E02817E5
:104250003907B4F4442351F481E00FC0823024F0D4
:1042600081508093CE020CC0442331F080E00E9444
:10427000E80C1092CE0209C086E08093CE0205C001
:104280008091CE0260E00E949D1F1F910895982F9B
:104290008091480482FF2FC08091A10485FF18C03F
:1042A0009130A9F187FF0FC080E00E944E0F40912E
:1042B000990450919A0460919B0470919C0480E051
:1042C0000E94860E089580E061E00E94120F08951A
:1042D000913071F480914B0484FD0AC080915304A5
:1042E00061E00E941C198091530461E00E94730AEE
:1042F0000E94410D089586FD04C080E00E940C21BB
:1043000008958091C305882311F00E94561C0895DA
:10431000982F8091480482FF2FC08091A10485FFCF
:1043200018C09130C1F187FF0FC080E00E944E0F8E
:104330004091990450919A0460919B0470919C045F
:1043400080E00E94860E089580E060E00E94120FD7
:104350000895913071F480914B0484FD0AC08091DE
:10436000530460E00E941C198091530461E00E9494
:10437000730A0E94410D089586FD04C081E00E94E9
:104380000C2108958091C305882319F00E94AF1C69
:1043900008950E94561C0895AF92BF92CF92DF926B
:1043A000EF92FF920F931F930E94FA078091A1044E
:1043B00084FF03C00E94D31ED1C00E94FD015B0197
:1043C0006C01E0905405F090550500915605109150
:1043D0005705C801B701A60195010E947D368823C3
:1043E0002CF482EA94E0B601A50104C082EA94E0CC
:1043F000B801A70121E030E00E94153682EA94E07E
:104400006EE672E00E942E358091830490918404C0
:10441000A0918504B0918604883E23E0920720E0B5
:10442000A20720E0B20720F082EA94E06AE014C01C
:1044300084369105A105B10520F082EA94E06BE095
:104440000BC00A97A105B10520F082EA94E06CE068
:1044500003C082EA94E06DE040E00E946A2882EAAC
:1044600094E06BE50E9432344091830450918404BF
:10447000609185047091860482EA94E02AE030E03D
:104480000E94BA3482EA94E06DE50E94323482EAF6
:1044900094E060E041E00E946A28E0915404F0E07A
:1044A000EE0FFF1FED5AFA4F838D813021F482EA1F
:1044B00094E06CE403C082EA94E062E50E94323446
:1044C000E0915404F0E0EE0FFF1FEE0FFF1FEB5AD8
:1044D000FB4F2081918180919605882329F0822FBE
:1044E00060E00E94B70703C0822F0E94760782EA2D
:1044F00094E068E041E00E946A28E0915404F0E012
:10450000EE0FFF1FE159FA4F8081813021F482EADA
:1045100094E06CE403C082EA94E062E50E943234E5
:10452000E0915404F0E0EE0FFF1FEE0FFF1FE95A79
:10453000FB4F2081918180919605882329F0822F5D
:1045400061E00E94B70703C0822F0E947607809126
:10455000CE02882319F060E00E949D1F1F910F91E9
:10456000FF90EF90DF90CF90BF90AF900895982F7D
:104570008091480480FF16C08091490487FF06C0DF
:1045800081E00E9449060E94D40708958091630447
:10459000823010F082E001C08F5F809363040E943C
:1045A0000B0D089582FF2BC08091A10485FF1BC0D5
:1045B000913009F456C086FF0FC081E00E944E0F73
:1045C00040919D0450919E0460919F047091A004BD
:1045D00081E00E94860E04C081E060E00E94120F1C
:1045E0000E947F0D08956091D1027091D202809156
:1045F000530441E00E94B80A0E94410D0895909131
:10460000CE0286FD10C0992371F48091BE058823E7
:1046100041F18091A10484FF02C08F7E01C08061BE
:104620008093A1040895191674F481E00E9449064C
:104630008091CE0261E00E949D1F809148048068B5
:1046400080934804089585FF08C081E00E944906D0
:1046500083E061E00E94D61B089581E060E00E9443
:10466000D61B0895982F8091480480FF13C0809135
:10467000490487FF06C080E00E9449060E94D407D3
:1046800008958091630481118150809363040E9496
:104690000B0D089582FF2EC08091A10485FF1BC0E1
:1046A000913009F45FC086FF0FC081E00E944E0F79
:1046B00040919D0450919E0460919F047091A004CC
:1046C00081E00E94860E04C081E061E00E94120F2A
:1046D0000E947F0D08956091D1027091D202709571
:1046E00061957F4F8091530441E00E94B80A0E9477
:1046F000410D08959091CE0286FD10C0992371F46A
:104700008091BE05882371F18091A10484FF02C0CD
:104710008F7E01C080618093A10408951916A4F4CE
:10472000913021F480914B0487FF03C080E00E9408
:1047300049068091CE0261E00E949D1F809148044D
:10474000806880934804089585FF08C080E00E9437
:10475000490683E061E00E94D61B089582E060E094
:104760000E94D61B0895982F8091480480FF16C0A0
:104770008091490486FF06C08F73809349040E948C
:104780000B0D089587FF07C0913009F460C081E0E8
:104790008093640408950E948F2408958091CE022E
:1047A00018162CF480E00E94E80C1092CE02909132
:1047B000480492FF23C08091590490915A04909329
:1047C0006B0580936A0580915B0490915C049093E3
:1047D0006D0580936C050E943413909148049B7F73
:1047E000109254048091A1048F7D8093A104906461
:1047F0009093480481E080932B0407C096FD0AC083
:1048000090649093480410922B0480E060E00E9432
:10481000D61B089595FF19C080912B0460912C043C
:1048200041E00E94BD191092470480914A048B30E8
:1048300019F483E061E007C0809148048F7C809385
:10484000480483E060E00E94D61B0E94AF1C0895DC
:10485000813021F4862F0E94B3230895843021F4FF
:10486000862F0E9432230895853021F4862F0E94DE
:10487000B7220895823021F4862F0E94882108955E
:10488000833019F4862F0E94472108950F931F93B8
:104890000E94860B082F0E94030B182F882389F093
:1048A000813069F41092CC0581E090E09093D202BF
:1048B0008093D102802F60E00E94282402C08230C1
:1048C00010F480E029C0802F61E00E94282413307A
:1048D00011F58091CC058F5F8093CC058A30D8F09C
:1048E0002091D1023091D20283E0283E380758F45B
:1048F000C901E3E0880F991FEA95E1F7220F331F02
:10490000820F931F02C088EE93E09093D2028093AF
:10491000D1021092CC0581E01F910F9108956F9202
:104920007F928F929F92AF92BF92CF92DF92EF923F
:10493000FF920F931F93CF93DF9380914904806878
:104940008093490487E080934A0410924704AA2484
:10495000BB24DA2C60915304C62FD0E0FE01EE0F89
:10496000FF1FEE0FFF1FED5AFA4F67A570A981A92F
:1049700092A92AE037ED43E25CE30E94D0373B0185
:104980004C01CC0FDD1FC656DA4F6881798180E07B
:1049900090E00E941A372AE037ED43E25CE30E9480
:1049A000D0370E94EE367B018C0160923204709207
:1049B0003304809234049092350482EA94E00E9499
:1049C000992882EA94E060E040E00E946A2882EA46
:1049D00094E061E772E00E942E3582EA94E06BE594
:1049E0000E943234D39482EA94E06D2D4AE050E084
:1049F0000E94C93482EA94E06AE772E00E942E3590
:104A000081E0B7014A2D0E94F91C0E94D407109240
:104A1000640402C00E944624809164048823D1F378
:104A20002091630430E08091530490E0880F991F37
:104A30008C01F3E0000F111FFA95E1F7080F191F21
:104A4000C901880F991F820F931F880F991F080FA4
:104A5000191F0A0D1B1D000F111F000F111F0954F4
:104A60001B4FC401B30120913204309133044091B3
:104A70003404509135040E948136F80161837283B9
:104A8000838394830894A11CB11CF2E0AF16B10497
:104A900009F05FCF51E0A52EB12C8A2D8A2C880C0D
:104AA000813019F49090500502C090905105C0E0FB
:104AB000D0E080915304692D70E041E00E944C02E7
:104AC0006B017C016093320470933304809334044F
:104AD00090933504839482EA94E00E94992882EAB4
:104AE00094E060E040E00E946A2882EA94E061E796
:104AF00072E00E942E3582EA94E06BE50E94323427
:104B000082EA94E0682D4AE050E00E94C93482EACB
:104B100094E06AE772E00E942E3582E0692D70E031
:104B20004C2F0E94F91C0E94D4071092640402C00A
:104B30000E944624809164048823D1F38091630409
:104B400090E02091530430E08C01000F111F080FFA
:104B5000191FC901B3E0880F991FBA95E1F7820FB9
:104B6000931F080F191F0A0D1B1D000F111F0C0F9B
:104B70001D1F000F111F000F111F09541B4F6091C3
:104B80003204709133048091340490913504A7016C
:104B900096010E948136F801618372838383948336
:104BA0002196C230D10509F084CF0894A11CB11C14
:104BB000F3E0AF16B10409F070CF809149048F770C
:104BC0008064809349040E943413DF91CF911F9138
:104BD0000F91FF90EF90DF90CF90BF90AF909F909C
:104BE0008F907F906F900895EF92FF920F931F9395
:104BF00080E00E942F1F81E00E942F1F80914804B7
:104C000081FFEEC0E0904304F0904404009145041D
:104C1000109146040E94D42F4091A8055091A905F7
:104C200028EE33E0F9014E9F90014F9F300D5E9FBB
:104C3000300D112440E050E0621B730B840B950B88
:104C4000E616F7060807190708F0CAC0809148045D
:104C50008D7F809348048091AA05882321F082EA01
:104C600094E00E94622889E060E00E94413132C0F5
:104C7000E0904304F09044040091450410914604F0
:104C80000E94D42F4091A8055091A90528EE33E049
:104C9000F9014E9F90014F9F300D5E9F300D112402
:104CA00040E050E0621B730B840B950B6E157F0583
:104CB0008007910778F480914804826080934804CB
:104CC00082EA94E00E9458286091C20589E070E071
:104CD0000E94A2308091C405882399F18091CB0570
:104CE000882379F1E0903F04F09040040091410462
:104CF000109142040E94D42F645F71408040904024
:104D0000E616F70608071907E0F48091CD05882319
:104D100039F082EA94E00E9450281092CD0507C035
:104D200082EA94E00E94462881E08093CD050E94AB
:104D3000D42F60933F047093400480934104909378
:104D400042048091480487FD17C0E0903B04F09036
:104D50003C0400913D0410913E040E94D42F685EF3
:104D6000734080409040E616F7060807190718F5CB
:104D70008091480486FD1FC08091480482FD03C0D5
:104D80000E94CC2109C08091A10485FF03C00E942C
:104D90007F0D02C00E94410D809148048F7780935F
:104DA00048040E94D42F60933B0470933C0480938A
:104DB0003D0490933E040E944624982F809148041D
:104DC00082FF13C0992389F480914B0484FF0DC0A6
:104DD0008091530460E00E94730A0E94410D05C057
:104DE0008091480481FD76CF43CF1F910F91FF90B2
:104DF000EF90089589EA96E00E94F9321816190694
:104E000014F090E008C089EA96E00E942A3390E00E
:104E1000843509F491E0892F08958091BF05813090
:104E200049F40E94FA26813029F480914C04806272
:104E300080934C0480914B0487FF03C00E94A40F11
:104E40000EC08091480482FD0AC08091A104807C3C
:104E500031F080E00E944E0F81E00E944E0F0E94D0
:104E6000F42508958DE061E00E9402318CE061E05C
:104E70000E94023185E061E00E94023186E061E03B
:104E80000E94023180E161E00E9402318FE061E026
:104E90000E94023189EA96E040E855E260E070E065
:104EA0000E9472320E948B0C0E947A1280E0609104
:104EB000AB050E94290C81E06091AB050E94290C92
:104EC0008091C2050E94460881E00E94E80C0E9481
:104ED000D42F6093430470934404809345049093CB
:104EE00046040E94CC2108950F931F938C01FC016E
:104EF000868160E00E94413181E090E00E943B3079
:104F0000F801868161E00E94413181E090E00E94D9
:104F10003B30F801868160E00E94413184E690E0F8
:104F20000E943B301F910F910895CF92DF92EF9234
:104F3000FF920F931F93CF93DF93D82EC92E282F64
:104F4000392FC9018C01C0E0D0E0E62EFF24F80122
:104F5000878161E00E940231B7010C2E02C0759575
:104F600067950A94E2F76170F80187810E944131E8
:104F700021960F5F1F4FC830D10549F78D2D9C2D0D
:104F80000E947427DF91CF911F910F91FF90EF90B6
:104F9000DF90CF900895CF92DF92EF92FF920F9320
:104FA0001F93CF93DF93D82EC92E282F392FC901F5
:104FB0008C01C0E0D0E0E62EFF24F801878161E09B
:104FC0000E940231B7010C2E02C0759567950A94B4
:104FD000E2F76170F80187810E94413121960F5FED
:104FE0001F4FC430D10549F78D2D9C2D0E94742789
:104FF000DF91CF911F910F91FF90EF90DF90CF90B5
:1050000008951F93CF93DF93EC01162F8C81642FAB
:105010000E9441318D818F3F19F060E00E94413143
:105020008F8584FF05C0CE01612F0E9495270EC099
:10503000612F70E084E0759567958A95E1F7CE0160
:105040000E94CB27CE01612F0E94CB27DF91CF9109
:105050001F91089541E00E94012881E090E00895A9
:1050600040E00E9401280895FC016089862F81603C
:10507000808B6960CF010E9430280895FC0160890F
:105080006E7F608B68600E9430280895FC01608903
:10509000862F8260808B6A60CF010E94302808953D
:1050A000FC0160896D7F608B68600E9430280895E4
:1050B000FC016089862F8460808B6C60CF010E9428
:1050C00030280895FC0160896B7F608B68600E94C6
:1050D00030280895DF93CF93CDB7DEB728970FB66A
:1050E000F894DEBF0FBECDBF9C01FE013196A7EF45
:1050F000B3E088E00D9001928150E1F7F9018389D6
:10510000481710F0482F4150E42FF0E0EE0FFF1F3A
:10511000EC0FFD1F8181680F6068C9010E94302873
:1051200028960FB6F894DEBF0FBECDBFCF91DF91AA
:10513000089561E00E94302880ED97E00E943B30A6
:105140000895CF93DF93EC01423018F08F8588608B
:105150008F874B8B1C8A222329F0413019F48F85CD
:1051600084608F8780E593EC0E943B308C8160E007
:105170000E9441318E8160E00E9441318D818F3FDC
:1051800019F060E00E9441316F8564FD1DC0CE01C1
:1051900063E00E94CB2784E991E10E943B30CE017D
:1051A00063E00E94CB2784E991E10E943B30CE016D
:1051B00063E00E94CB2786E990E00E943B30CE015D
:1051C00062E00E94CB2716C06062CE010E943028A8
:1051D00084E991E10E943B306F856062CE010E94BC
:1051E000302886E990E00E943B306F856062CE01F6
:1051F0000E9430286F856062CE010E94302884E0D2
:10520000888BCE010E945828CE010E94992882E006
:10521000898BCE0166E00E943028DF91CF910895FE
:105220006F927F928F92AF92CF92EF920F931F93D4
:10523000DF93CF93CDB7DEB73C01162F842FF30158
:10524000448325830683E782C086A18682869D8566
:1052500093879E8594879F8595879889968761E037
:105260000E940231F30185818F3F19F061E00E94B5
:105270000231F301868161E00E940231112319F0AD
:10528000F301178603C080E1F3018787C30160E162
:1052900041E020E00E94A128CF91DF911F910F9162
:1052A000EF90CF90AF908F907F906F9008958F92F6
:1052B000AF92CF92EF920F931F93CF93DF93DC01C6
:1052C000362F542F722F102FAE2C8C2C13961C922D
:1052D0001E92129783EF93E011969C938E9300D0C9
:1052E00000D0EDB7FEB73196CDB7DEB71982118287
:1052F00012821382CD0161E0432F2FEF052FE72E9D
:10530000C12E0E9410290F900F900F900F90DF91E7
:10531000CF911F910F91EF90CF90AF908F90089504
:10532000611571058105910569F481E090E0A0E0C7
:10533000B0E08093D8059093D905A093DA05B09397
:10534000DB0508C06093D8057093D9058093DA0512
:105350009093DB055093DD054093DC058091700050
:105360008E7F809370008091B0008C7F8093B0001E
:105370008091B100877F8093B1008091B6008F7DCE
:105380008093B600809170008D7F80937000809133
:10539000B10084608093B1008091B1008C7F8093D4
:1053A000B10086E090E09093E4058093E3050895D2
:1053B0001092DE051092DF051092E0051092E105D3
:1053C0001092E2058091E3059091E4058093B2008C
:1053D000E0E7F0E08081816080830895E0E7F0E01D
:1053E00080818E7F808308958091DE059091DF0516
:1053F000A091E005B091E1050196A11DB11D80933A
:10540000DE059093DF05A093E005B093E105809160
:10541000DE059091DF05A091E005B091E1052091B6
:10542000D8053091D9054091DA055091DB058217F6
:105430009307A407B50710F18091E2058823F1F4E2
:1054400081E08093E2058091DE059091DF05A091D7
:10545000E005B091E105821B930BA40BB50B809383
:10546000DE059093DF05A093E005B093E105E091A0
:10547000DC05F091DD0509951092E20508951F9273
:105480000F920FB60F9211242F933F934F935F9378
:105490006F937F938F939F93AF93BF93EF93FF93FC
:1054A0008091E3059091E4058093B2000E94F42975
:1054B000FF91EF91BF91AF919F918F917F916F91EC
:1054C0005F914F913F912F910F900FBE0F901F90C2
:1054D00018951F920F920FB60F9211242F933F939E
:1054E0004F935F936F937F938F939F93AF93BF93EC
:1054F000EF93FF93E091E505F091E6050995FF91A3
:10550000EF91BF91AF919F918F917F916F915F913B
:105510004F913F912F910F900FBE0F901F901895B4
:10552000E62FF0E03197E80FF91F8181418308955C
:10553000FB0120E030E040E050E065E070E094E006
:10554000220F331F441F551F9A95D1F79481892F3D
:1055500080538A3030F4892F992787FD9095C09722
:1055600009C0892F8154863068F4892F992787FDD7
:105570009095C797AA2797FDA095BA2F280F391F96
:105580004A1F5B1F84E0220F331F441F551F8A955B
:10559000D1F79581892F80538A3030F4892F99274C
:1055A00087FD9095C09709C0892F8154863068F493
:1055B000892F992787FD9095C797AA2797FDA095D2
:1055C000BA2F280F391F4A1F5B1F62507040329755
:1055D0008FEF6F3F780709F0B2CFB901CA01089584
:1055E00081E08093EB058093EC051092FD0510920D
:1055F000FE051092FF05109200061092010610920F
:105600000206109203061092040610920D061092E4
:105610000E0610920F0610921006109211061092AC
:10562000120610921306109214061092050610929C
:1056300006061092070610920806109209061092AC
:105640000A0610920B0610920C0684E690E09093E6
:105650001606809315061092EA0508950F931F937E
:10566000CF93DF93EB0189EA96E00E94F932892B10
:10567000D1F300E010E015C089EA96E00E942A33D9
:105680008D3311F411E00DC0912F813211F491E0AE
:1056900007C0113029F4FE01E00FF11D80830F5F78
:1056A000192F89EA96E00E94F9321816190624F398
:1056B000C00FD11D1882DF91CF911F910F910895D6
:1056C000EF92FF920F931F938C017A0189EA96E083
:1056D0000E942E3562E370E080E090E00E94E22FAD
:1056E000C801B7010E942E2B1F910F91FF90EF90E0
:1056F0000895DF92EF92FF920F931F93DF93CF9362
:10570000CDB7DEB760970FB6F894DEBF0FBECDBF42
:105710007C01D62E09EA16E0C80161E872E00E9419
:105720002E35C8016D2D4AE050E00E94C934C701F2
:1057300064E872E08E010F5F1F4FA8010E94602B8A
:10574000C701B8010E94982A60960FB6F894DEBF90
:105750000FBECDBFCF91DF911F910F91FF90EF90C2
:10576000DF900895FF920F931F93DF93CF93CDB7F0
:10577000DEB760970FB6F894DEBF0FBECDBF8C01C9
:10578000F62E89EA96E066E872E00E942E3589EAF4
:1057900096E06F2D4AE050E00E94C934C80164E8E9
:1057A00072E0AE014F5F5F4F0E94602B90E08A81F4
:1057B000803309F091E0892F60960FB6F894DEBF30
:1057C0000FBECDBFCF91DF911F910F91FF90089534
:1057D000DF92EF92FF920F931F93DF93CF93CDB79A
:1057E000DEB760970FB6F894DEBF0FBECDBF7C0169
:1057F000D62E09EA16E0C80169E872E00E942E354B
:10580000C8016D2D4AE050E00E94C934C70164E828
:1058100072E08E010F5F1F4FA8010E94602BC7012D
:10582000B8010E94982A60960FB6F894DEBF0FBEAA
:10583000CDBFCF91DF911F910F91FF90EF90DF903F
:105840000895CF92DF92EF92FF920F931F93DF9311
:10585000CF93CDB7DEB760970FB6F894DEBF0FBE1B
:10586000CDBF7C01D62EC42E09EA16E0C8016CE833
:1058700072E00E942E35C8016D2D4AE050E00E9472
:10588000C934F701ED0DF11DC80160814AE050E017
:105890000E94C934C8016C2D4AE050E00E94C9340E
:1058A000C70164E872E0AE014F5F5F4F0E94602B5A
:1058B00060960FB6F894DEBF0FBECDBFCF91DF91DB
:1058C0001F910F91FF90EF90DF90CF900895DF929E
:1058D000EF92FF920F931F93DF93CF93CDB7DEB775
:1058E00060970FB6F894DEBF0FBECDBF7C01D62EF9
:1058F00009EA16E0C8016FE872E00E942E35C8017F
:105900006D2D4AE050E00E94C934C70164E872E09E
:105910008E010F5F1F4FA8010E94602BC701B801C5
:105920000E94982A60960FB6F894DEBF0FBECDBFD6
:10593000CF91DF911F910F91FF90EF90DF9008952D
:10594000DF92EF92FF920F931F93DF93CF93CDB728
:10595000DEB760970FB6F894DEBF0FBECDBF8C01E7
:10596000D62E29EAE22E26E0F22EC70162E972E085
:105970000E942E35C7016D2D4AE050E00E94C934C7
:10598000C80164E872E0AE014F5F5F4F0E94602B78
:1059900060960FB6F894DEBF0FBECDBFCF91DF91FA
:1059A0001F910F91FF90EF90DF900895BF92CF92DB
:1059B000DF92EF92FF920F931F937C01B62E6A0144
:1059C00009EA16E0C80165E972E00E942E35C801B7
:1059D0006B2D4AE050E00E94C934C70164E872E0D0
:1059E000A6010E94602B1F910F91FF90EF90DF9016
:1059F000CF90BF900895EF92FF920F931F93DF9384
:105A0000CF93CDB7DEB760970FB6F894DEBF0FBE69
:105A1000CDBF7C01FC0180818130A9F1C70168E91B
:105A200072E08E010F5F1F4FA8010E94602BC7011B
:105A30006DE972E0A8010E94602BC70161E00E943D
:105A4000792BF701638B748B858B968BC70161E093
:105A50000E94672CF70163A374A385A396A3C701D3
:105A600062E00E94792BF701678B708F818F928F94
:105A7000C70162E00E94672CF70167A370A781A7A6
:105A800092A781E0808381E060960FB6F894DEBF34
:105A90000FBECDBFCF91DF911F910F91FF90EF907F
:105AA0000895AF92BF92CF92DF92EF92FF920F9341
:105AB0001F93CF93DF935A016B01C0E0D0E08601C2
:105AC00075010C2E04C016950795F794E7940A9477
:105AD000D2F78E2DEE2039F489EA96E06EEA72E074
