:100000000C94C5010C94ED010C94ED010C94ED01E0
:100010000C94ED010C94ED010C94ED010C94ED01A8
:100020000C94ED010C94342A0C94ED010C94ED0128
:100030000C94ED010C945E2A0C94ED010C94ED01EE
:100040000C94812F0C94ED010C94DE310C942C3225
:100050000C94ED010C94ED010C94ED010C94ED0168
:100060000C94ED010C94ED014C155A15681576159C
:100070009315A415B215C515D615BC16CA16D816F3
:10008000E91606172B17391747175F174D616E755D
:10009000616C204D6F7665004178697320310041B5
:1000A00078697320320043616D657261005061723E
:1000B0006B0052657365740053657474696E677381
:1000C0000053636F70650041786973203100417897
:1000D000697320320053636F70650052616D702048
:1000E00053686F74730052504D00416E676C650029
:1000F00043616C69627261746500536C6F77204D67
:100100006F64652049504D00446973742E207065FA
:100110007220526576004D696E2050756C736500D3
:100120004C65616420496E004C656164204F7574B4
:100130000043616C2E20436F6E7374616E740049CE
:100140006E74657276616C20736563004D61782012
:1001500053686F7473004578702E2054696D652064
:100160006D73004578702E2044656C6179206D7345
:1001700000466F63757320546170206D730053687F
:1001800075747465722B466F637573005265706584
:100190006174005265706561742044656C6179001A
:1001A000416C74204D656E75004D6F746F72204404
:1001B000697370004D6F746F72204D6F64650042FB
:1001C00061636B6C69676874004175746F44696D35
:1001D00020287365632900426C616E6B204C434498
:1001E00000492F4F203100492F4F2032004D6574B8
:1001F00072696320446973702E0053636F706500E9
:1002000043616C2E20537064204C6F770043616C07
:100210002E2053706420486900416C744F7574201F
:10022000507265206D7300416C744F757420506F6F
:100230007374206D7300555342205472696767656B
:100240007200496E766572742044697200496E7658
:1002500065727420492F4F00554C696E65204375B7
:1002600072736F72005061726B204C65667400503F
:1002700061726B20526967687400526573657420FF
:1002800043616C005265736574204D656D0050616B
:100290006E204D616E2E205370642E0054696C7474
:1002A000204D616E2E205370642E008C0098009FAC
:1002B00000A600AD00B200B800C100C700CE00D556
:1002C0000065026F02DB0020012801E600EA00F071
:1002D000003101FA0008011601DB0020012801E6C7
:1002E00000EA00F0003101FA00080116013F014C5C
:1002F000015601630171017E018C019301A001A9E6
:1003000001B401BF01C901D701E101E701ED01FA23
:100310000100020D0219022702360242024D025864
:10032000028E029C027A0284020000000024002750
:10033000002A0000000000250028002B000000001B
:100340000023002600290004040404040404040219
:100350000202020202030303030303010204081062
:10036000204080010204081020010204081020002F
:100370000000070002010000030406000000000066
:10038000000000001C07E52A983311241FBECFEFA0
:10039000D8E0DEBFCDBF14E0A0E0B1E0EAEEF0E7C8
:1003A00002C005900D92A031B107D9F716E0A0E187
:1003B000B4E001C01D92A93CB107E1F713E0CAE81F
:1003C000D3E004C02297FE010E946F38C438D107E1
:1003D000C9F70E94EE330C9473380C940000FB01B3
:1003E000DC0105900D920020E1F70895DC0101C0C9
:1003F0006D9341505040E0F70895EF92FF920F93B4
:100400001F9380915A0590915B05009711F4E0E0ED
:1004100002C0E82FEC5960915C0570915D0580E0A9
:1004200090E0209156053091570540915805509124
:100430005905620F731F841F951F6E0F711D811D5B
:10044000911D0E940F377B018C01809195058823B7
:10045000B1F460917F047091800420917D0430910B
:100460007E04620F731F80E090E00E940F379B01B3
:10047000AC01C801B7010E940E367B018C01C80196
:10048000B70120E030E04AE754E40E9476361F913D
:100490000F91FF90EF900895CF92DF92EF92FF922D
:1004A0000F931F93CF93DF93082FEB01442359F051
:1004B0000F2EF0E0CF2EF0E0DF2EFFE7EF2EF3E47B
:1004C000FF2EF02D0EC0E82FF0E0EE0FFF1FE856D4
:1004D000FA4F6081718180E090E00E940F376B01DC
:1004E0007C01809148048C7051F00F2EF0E0CF2EEB
:1004F000F0E0DF2EFFE7EF2EF3E4FF2EF02D10E00B
:10050000000F111F000F111F0F5A1A4FBE0180E07C
:1005100090E00E940F37A70196010E947636F801FD
:1005200027A530A941A952A90E94C537DF91CF91D3
:100530001F910F91FF90EF90DF90CF9008953F9221
:100540004F925F926F927F928F929F92AF92BF92E3
:10055000CF92DF92EF92FF920F931F93CF93DF938F
:1005600080916004882309F49CC08091CC058F5F42
:100570008093CC05BDE5AB2EB4E0BB2EEE24FF246A
:10058000CC24DD24A0E24A2E512CF1E06F2E712CF8
:10059000812C912C33243394F601E359FB4F408195
:1005A000518162817381411551056105710509F41D
:1005B00069C0870103531A4FD8018C919701220F0C
:1005C000331F220F331F882391F5E901CA51DC4FF5
:1005D000288139814A815B81F601EB58FB4F80818C
:1005E0009181A281B381281739074A075B0760F41C
:1005F00088819981AA81BB810196A11DB11D888343
:100600009983AA83BB833EC02BB1C2010E2C02C0CA
:10061000880F991F0A94E2F7282B2BB9F801308232
:10062000D5013C92688279828A829B822BC0F90133
:10063000EA51FC4F80819181A281B3818417950793
:10064000A607B70760F480819181A281B3810196EA
:10065000A11DB11D80839183A283B38313C02BB1ED
:10066000C2010E2C02C0880F991F0A94E2F78095F0
:1006700082238BB9D8011C92D5011C9260827182B1
:10068000828293820894E11CF11CE4E0F0E0CE0E3B
:10069000DF1E0894A11CB11CF8E0CF16D10409F0AC
:1006A0007BCFDF91CF911F910F91FF90EF90DF9063
:1006B000CF90BF90AF909F908F907F906F905F9002
:1006C0004F903F900895BF92CF92DF92EF92FF92AA
:1006D0000F931F93B62E833008F041C090E0FC01C9
:1006E000EA56FA4F6083FC01EE0FFF1FEE0FFF1F6B
:1006F000662359F125E6C22E24E0D22ECE0EDF1E4F
:10070000E0915404F0E0EE0FFF1FE80FF91FEE0F29
:10071000FF1FEB5AFB4F6081718180E090E00E94E7
:100720000F377B018C016B2D70E080E090E00E9420
:100730000F379B01AC01C801B7010E947636F60164
:1007400060837183828393830AC0EB59FB4F80E0FF
:1007500090E0A0E0B0E080839183A283B3831F91F7
:100760000F91FF90EF90DF90CF90BF9008957F9210
:100770008F929F92AF92BF92CF92DF92EF92FF92B1
:100780000F931F93D62E722E91E0961708F4DAC0BD
:100790008823D9F4862F90E0FC01E456FA4F20819B
:1007A00030E0880F991FFC0143E0EE0FFF1F4A95D0
:1007B000E1F7E80FF91FC901880F991F820F931FF6
:1007C000880F991FE80FF91FDDC080904F05C0907A
:1007D0004E05C41608F061C0481508F05EC0642FCD
:1007E00070E06C19710980E090E00E940F377B0186
:1007F0008C018C18682D70E080E090E00E940F372B
:100800009B01AC01C801B7010E9476364B015C0127
:100810002D2D30E0F901E456FA4F808190E08C01F3
:10082000000F111F080F191F000F111F220F331F78
:10083000C901E3E0880F991FEA95E1F7280F391FF6
:10084000020F131F070D111D000F111F000F111FA5
:10085000F801EB53FB4FC501B40121813281438183
:1008600054810E94C5376B017C0103541B4F60E02B
:1008700070E080E89FE3A50194010E940D36F80125
:1008800021813281438154810E94C5379B01AC0193
:10089000C701B6010E940E364CC0841608F04CC049
:1008A0002D2D30E0F901E456FA4F808190E0FC01F3
:1008B000EE0FFF1FE80FF91FEE0FFF1F220F331F70
:1008C000C901B3E0880F991FBA95E1F7280F391FC6
:1008D000E20FF31FE70DF11DEE0FFF1FEE0FFF1FDD
:1008E000EB53FB4FA180B280C380D480642F70E0B3
:1008F0006819710980E090E00E940F377B018C013C
:100900008094682D70E080E090E00E940F379B019A
:10091000AC01C801B7010E9476369B01AC01C6014B
:10092000B5010E94C5379B01AC01C601B5010E940B
:100930000D36E62F692F39C0C41610F041E008C00B
:10094000481529F0E0E070E080E86FE32EC042E057
:100950002D2D30E0F901E456FA4F808190E0FC0142
:10096000EE0FFF1FE80FF91FC90163E0880F991F01
:100970006A95E1F7820F931FE80FF91FE40FF11D4D
:10098000EE0FFF1FE70DF11DEE0FFF1FEE0FFF1F14
:10099000EB54FB4FDF011196E18111967C91119789
:1009A00012968C91129713966C912E2F372F482FF9
:1009B000562FB901CA011F910F91FF90EF90DF9060
:1009C000CF90BF90AF909F908F907F9008952F927F
:1009D0003F924F925F926F927F928F929F92AF92CF
:1009E000BF92CF92DF92EF92FF920F931F93DF930C
:1009F000CF93CDB7DEB72A970FB6F894DEBF0FBE00
:100A0000CDBFF82E8B01E42E482F50E05A8749873E
:100A100080E090E00E940F3720E030E04FE753E4A1
:100A20000E94763620E030EA46EA54E40E94C53758
:100A30000E94E3365B016C0189849A84880C991CBE
:100A4000880C991CF401E359FB4FA082B182C28249
:100A5000D382C601B5010E940F379B01AC0160E053
:100A600070EA86EA94E40E940D360E94E3366D83B4
:100A70007E838F83988715E7212E14E0312E280C72
:100A8000391CD1016D937D938D939C931397E091C5
:100A90005404F0E0EE0FFF1FEF5AFA4F49855A85D4
:100AA000E40FF51F81E06F2D402F238D0E94B703C7
:100AB0002B013C01EE2051F520E030E040E85FE3FF
:100AC0000E947236882311F16D817E818F81988515
:100AD0000E940F377B018C0166E475E0860E971E3D
:100AE000C301B201D4012D913D914D915C910E94C1
:100AF000C5379B01AC01C801B7010E94C5370E94F0
:100B0000E336F1016083718382839383A114B1047E
:100B1000C104D10481F4E985FA85EE0FFF1FEE0FC1
:100B2000FF1FE359FB4F81E090E0A0E0B0E080833D
:100B30009183A283B38329853A85220F331F220F25
:100B4000331F7DE6272E74E0372E220E331ED1018F
:100B50004D905D906D907C9041145104610471043E
:100B600009F44AC0E985FA85EE56FA4F8081482F8C
:100B700050E060E070E049835A836B837C834416C5
:100B8000550666067706C0F565E7862E64E0962E64
:100B9000820E931ED4016D917D918D919C910E9446
:100BA0000F375B016C0169817A818B819C810E9486
:100BB0000F377B018C01C301B2010E940F379B01EB
:100BC000AC01C801B7010E9476369B01AC01C60199
:100BD000B5010E94C5370E94E336F401608371833A
:100BE0008283938349815A816B817C81D1014D93AA
:100BF0005D936D937C9313972A960FB6F894DEBF9E
:100C00000FBECDBFCF91DF911F910F91FF90EF905D
:100C1000DF90CF90BF90AF909F908F907F906F901C
:100C20005F904F903F902F900895AF92BF92CF92D8
:100C3000DF92EF92FF920F931F93D82E60914A0498
:100C4000673009F065C080914704882359F40F2E5E
:100C5000FAE0EF2EF7EDFF2EF3E20F2FFCE31F2F4C
:100C6000F02D0AC00F2EFDECEF2EFCECFF2EFCEC5D
:100C70000F2FFDE31F2FF02D6091D1027091D20252
:100C800080E090E00E940F379B01AC01C801B701E2
:100C90000E94C5377B018C0171E0D71669F4609121
:100CA0003204709133048091340490913504A8018A
:100CB00097010E940E3623C0A0903204B0903304F6
:100CC000C0903404D0903504C601B501A801970145
:100CD0000E94723688236CF480E090E0A0E0B0E0DF
:100CE0008093320490933304A0933404B09335047A
:100CF0009AC0C601B501A80197010E940D36609304
:100D000032047093330480933404909335048BC081
:100D1000862F8150863048F490E0809136048823F5
:100D200009F491E0909336047EC08091D1029091B5
:100D3000D202A0E0B0E020912E0430912F04409127
:100D400030045091310471E0D71629F4280F391F6F
:100D50004A1F5B1F12C0281739074A075B0748F470
:100D600010922E0410922F0410923004109231042D
:100D70000CC0281B390B4A0B5B0B20932E043093BD
:100D80002F044093300450933104683091F48091E3
:100D90002E0490912F04A0913004B0913104039758
:100DA000A105B10508F43FC082E090E0A0E0B0E00A
:100DB00012C06930C9F480912E0490912F04A09143
:100DC0003004B09131040997A105B10560F188E0C4
:100DD00090E0A0E0B0E080932E0490932F04A093C5
:100DE0003004B09331041FC06B30E9F480912E04BD
:100DF00090912F04A0913004B09131040297A10585
:100E0000B10560F081E090E0A0E0B0E080932E04B6
:100E100090932F04A0933004B09331048091480440
:100E20008F7E809348041F910F91FF90EF90DF9089
:100E3000CF90BF90AF900895CF92EF920F9380EA3A
:100E400094E061E142E12BE008E057E0E52E34E078
:100E5000C32E0E944C290F91EF90CF900895E62F5A
:100E6000F0E0EE0FFF1FEE0FFF1FE956FB4F408132
:100E700051816281738180EA94E022E030E00E9437
:100E80000A360895EF92FF920F931F9390E0A0E02F
:100E9000B0E0BC01CD010E940F3720E030E04FE709
:100EA00053E40E94763620E030E048EC52E40E94A1
:100EB000C5377B018C0120E030E048EC52E40E9411
:100EC000723688234CF480EA94E0B801A70121E04F
:100ED00030E00E940A360DC0C801B7010E94DE361C
:100EE0009B01AC0180EA94E0B9014AE050E00E9425
:100EF000103580EA94E065E20E9427341F910F913B
:100F0000FF90EF9008959C01862FB90140919505BF
:100F10000E944C02AB01BC0180EA94E022E030E088
:100F20000E940A368091AB05882321F080EA94E084
:100F300063E603C080EA94E069E60E9427340895DE
:100F40000F931F9300EA14E0C8010E948E28C80185
:100F500060E040E00E945F28C80160E071E00E940C
:100F60002335C80160E041E00E945F2840913204CF
:100F7000509133046091340470913504C80122E02B
:100F800030E00E940A361F910F91089580EA94E0A4
:100F90000E948E2880EA94E060E040E00E945F2892
:100FA00080914B0487FF12C080914C04807C21F417
:100FB0008091BD05813029F480EA94E06CE071E015
:100FC00009C080EA94E060E171E004C080EA94E046
:100FD00063E171E00E94233580EA94E064E040E040
:100FE0000E945F28089585E0E0E1F4E0DF011D92B2
:100FF0008A95E9F708951F93182F823088F480931B
:101000005304882311F086E001C085E06FEF70E0A3
:101010000E949730E12FF0E0E35AFB4F81E080839C
:101020001F910895682F80915F04882329F489E037
:1010300070E00E9497300895662319F089E061E01E
:1010400002C089E060E00E9436310895809160041A
:101050008823A1F58091C005882319F089E061E01B
:1010600002C089E060E00E94363185E060E00E94C5
:10107000363186E060E00E94363180E18093810065
:101080001092800021E02093E70580EF90E090939C
:10109000E6058093E505909387008093860081E1C3
:1010A000809381008FE992E09093E4058093E305BB
:1010B00020936F002093600420935F0408953F9273
:1010C0004F925F926F927F928F929F92AF92BF9258
:1010D000CF92DF92EF92FF920F931F93CF93DF9304
:1010E000382E3B0181E0831508F4C8C08091540478
:1010F000A82FB0E0832C99246D01CC0CDD1CF601E7
:10110000E80DF91DEE0FFF1FEB5AFB4F7183608353
:10111000E401CC0FDD1F8DE7482E84E0582E4C0EE5
:101120005D1EF2011182108280919505882321F4C1
:10113000809148048C70B1F0FFEF6F16710409F0D4
:1011400008F44EC0AA0FBB1FA80DB91DAA0FBB1FE4
:10115000AB5ABB4F8FEF90E08D939C93BFEF6B2EFC
:10116000712C41C080E090E00E940F377B018C0120
:10117000C856DA4F6881798180E090E00E940F378D
:101180009B01AC01C801B7010E94763620E030E631
:101190004AE657E40E94C5370E94E3367B01F2011C
:1011A0007183608381E595E0C80ED91EC80CD91CF7
:1011B00080E0632D40E0F601238D0E94B7035B01C0
:1011C0006C0100E010E0C801B7010E940F37A601D2
:1011D00095010E94C5370E94E336F2017183608356
:1011E0006114710471F0F401E057FA4F808190E0CE
:1011F0006816790630F4832DB30140E00E94E704BD
:101200000BC0F401EE0FFF1FEE0FFF1FE359FB4F62
:101210001082118212821382332011F425E001C062
:1012200026E080914B0484FF29C0809148048C7093
:1012300071F4F401EE0FFF1FE358FB4F80819181A1
:10124000892B29F0822F60E00E94363117C0F4010B
:10125000E057FA4F808190E0E401C35ADB4F6816F3
:10126000790638F0822FB3010E94973081E088839D
:1012700005C0822F60E00E9436311882DF91CF9145
:101280001F910F91FF90EF90DF90CF90BF90AF90A4
:101290009F908F907F906F905F904F903F900895B8
:1012A0005F926F927F928F929F92AF92BF92CF92F6
:1012B000DF92EF92FF920F931F93CF93DF9375E628
:1012C000672E74E0772E6EE9862E65E0962EC0E0DC
:1012D000D0E05C2EFE01EA56FA4FE081EE2309F4DD
:1012E0009BC0E0908104F0908204009183041091EF
:1012F0008404D4018D919C91BC0180E090E06E1536
:101300007F058007910720F08C2F60E070E082C09D
:10131000AE2EBB24CC24DD24A8019701261B370B5D
:10132000480B590BCA01B901A216B306C406D5066B
:1013300058F10E940F37D3012D913D914D915C9151
:101340000E94C5375B016C01E0915404F0E0EE0FA0
:10135000FF1FEC0FFD1FEE0FFF1FEF5AFA4F6389BF
:10136000748980E090E00E940F377B018C01C601F8
:10137000B501A80197010E94C137181614F457014E
:101380006801C601B5013AC080915E0590915F0584
:101390009C0140E050E02E193F09400B510BF40135
:1013A00084819581A0E0B0E0281B390B4A0B5B0BD0
:1013B000A216B306C406D50678F1CA01B9010E9487
:1013C0000F37D3012D913D914D915C910E94C5370E
:1013D0007B018C0120E030E040E050E00E9472365A
:1013E000882354F40F2EF0E0EF2EF0E0FF2EF0E013
:1013F0000F2FF0E01F2FF02DC801B70120E030E0E3
:1014000040E05FE30E940E360E94DE369B01AC0195
:10141000852DB9010E945F082196E4E0F0E06E0E90
:101420007F1E22E030E0820E931EC230D10509F00B
:1014300050CFDF91CF911F910F91FF90EF90DF90F0
:10144000CF90BF90AF909F908F907F906F905F9064
:1014500008950F931F93CF93DF93982FC82FD0E059
:10146000E0915404662311F5F0E0EE0FFF1FEC0F3E
:10147000FD1FEE0FFF1FEB5AFB4F0081118160E053
:1014800070E00E945F08E0915404F0E0EE0FFF1F4F
:10149000EC0FFD1FEE0FFF1FEB5AFB4F1183008374
:1014A00080914B048F7E80934B0413C080914B043A
:1014B000806180934B04F0E0EE0FFF1FEC0FFD1FE7
:1014C000EE0FFF1FEB5AFB4F60817181892F0E9445
:1014D0005F08DF91CF911F910F910895282FA82FBA
:1014E000B0E0E0915404F0E0EE0FFF1FEA0FFB1FA5
:1014F000EE0FFF1FEB5AFB4F80819181680F791F20
:101500006F3F71051CF06FEF70E00EC077FF02C0F7
:1015100060E070E0442341F0A057BA4F8C9190E016
:10152000681779070CF4BC01822F0E945F080895A8
:1015300080916004882321F010926F001092600463
:1015400085E060E00E94363186E060E00E9436313E
:1015500080E060E00E94290A81E060E00E94290AA0
:10156000089580914B048F7680934B040E94980AD3
:101570008091540490E045E554E0FC01EE0FFF1F1C
:10158000EE0FFF1FBA016E0F7F1FA1E5B5E0EA0F56
:10159000FB1F23893489FB0131832083880F991F26
:1015A000880F991F0296480F591FA80FB91F53960D
:1015B0008D919C915497FA01918380830895982F7F
:1015C000882309F457C08091C805891709F052C0D3
:1015D0000E94C92F20914304309144044091450456
:1015E00050914604621B730B840B950B2091E20310
:1015F0003091E3034091E4035091E5032617370748
:101600004807590710F080E008950E94C92F2091E3
:10161000C4053091C5054091C6055091C705621BB0
:10162000730B840B950B2091E2033091E3034091FF
:10163000E4035091E503261737074807590710F0D0
:1016400082E008950E94C92F6093C4057093C50578
:101650008093C6059093C70588EC90E0A0E0B0E0C9
:101660008093E2039093E303A093E403B093E50334
:1016700083E008959093C8059923B1F00E94C92F83
:10168000609343047093440480934504909346040C
:101690000E94C92F6093C4057093C5058093C60549
:1016A0009093C70581E0089584EF91E0A0E0B0E059
:1016B0008093E2039093E303A093E403B093E503E4
:1016C00080E00895CF93DF9380E00E947530EC01B5
:1016D0008091CF029091D0028C1B9D0B97FF03C08D
:1016E000909581959F4FCD977CF0D093D002C09379
:1016F000CF020E94C92F60933704709338048093FF
:10170000390490933A0439C00E94C92F20913704BC
:10171000309138044091390450913A04621B730BA4
:10172000840B950B643171058105910530F1CE0173
:101730000B978737910510F481E020C0CE018F5BB5
:1017400090408737910510F482E018C0CE01875889
:1017500091408737910510F483E010C0CE01845585
:1017600092408737910510F484E008C0C350D340FD
:10177000C737D10510F485E001C080E0DF91CF913B
:101780000895FF920F931F93CF93DF93182F8E5FCF
:101790000E948A31FF24892B11F4FF24F394012F36
:1017A00010E0F801E357FB4F8081E801CC0FDD1F0B
:1017B000CC0FDD1FF81651F0F0820E94C92FCB57D5
:1017C000DB4F688379838A839B8315C00E94C92F6E
:1017D000CB57DB4F288139814A815B81621B730BB8
:1017E000840B950B683C71058105910520F0F8018B
:1017F000E157FB4FF08201571B4FF8018081DF91C9
:10180000CF911F910F91FF9008950F931F93082F71
:10181000162F862F8550833018F5802F8E5F61E05C
:101820000E94F730153051F480E890E002C09595A1
:1018300087950A95E2F720914D040EC020914D0442
:10184000163019F480E290E002C080EA90E002C015
:10185000959587950A95E2F7282B20934D0434C07F
:10186000662399F4802F8E5F60E00E94363180EA13
:1018700090E002C0959587950A95E2F780952091B2
:101880004C04282320934C041FC020914C04643046
:1018900051F480E890E0002E02C0959587950A9457
:1018A000E2F7282B0AC080EA90E0002E02C095954E
:1018B00087950A94E2F78095282320934C04802F83
:1018C0008E5F62E00E94F7301F910F9108950F9391
:1018D0001F9389E061E00E94F73089E06FEF70E0CC
:1018E0000E94973000EA14E0C80160E142E020E085
:1018F0000E949628C80160E040E00E945F28C8016D
:101900000E948E28C80167E171E00E942335C8015A
:1019100065E041E00E945F28C80168E271E00E9432
:10192000233560ED77E080E090E00E94D72FC8017A
:101930000E948E28C80160E040E00E945F28C80134
:1019400063E371E00E942335C80160E041E00E943A
:101950005F28C80164E471E00E9423358EE060E0F6
:101960000E94F7308EE061E00E9436318091480499
:1019700082688093480460ED77E080E090E00E9408
:10198000D72F1F910F9108958093C905882389F05F
:101990008091C205882329F080EA94E00E943B28C8
:1019A00004C080EA94E00E94292881E08093CB055E
:1019B00008958091C205882329F080EA94E00E946E
:1019C0004528089580EA94E00E94332808950F93F3
:1019D0001F938091480481608093480400EA14E0DA
:1019E000C8010E948E2880E00E94C40CC80165E5F1
:1019F00071E00E9423356091530470E06F5F7F4F68
:101A0000C8014AE050E00E941035C8016BE571E062
:101A10000E942335609163048DE2689FB001112418
:101A2000C8014AE050E00E94BE34C8016EE571E092
:101A30000E9423351F910F91089580EA94E00E943F
:101A40008E2880E00E94C40C80EA94E060E040E0D0
:101A50000E945F2880915304882329F480EA94E04F
:101A600064E671E004C080EA94E06BE671E00E94F5
:101A7000233580EA94E060E041E00E945F2880EA3C
:101A800094E062E771E00E94233560915304E62FF1
:101A9000F0E0EE0FFF1FE75AFB4F2081918180910C
:101AA0009405882321F0822F0E9483070895822FB6
:101AB0000E94420708950F931F9380919F048062B4
:101AC00080939F0400EA14E0C8010E948E2880E001
:101AD0000E94C40CC8016AE771E00E942335C80166
:101AE00060E041E00E945F28C80167E871E00E9461
:101AF00023351F910F910895982F80914804846099
:101B00008093480481E080935404923041F48091A2
:101B10009F04806280939F040E945B0D08959093C0
:101B200053040E941D0D0895EF92FF920F931F938F
:101B30007B018C0180916205882321F08CE061E0BB
:101B40000E9436318DE061E00E943631C801B70154
:101B500045E35EE00E9485290E94CD2980914B04D7
:101B6000806480934B041F910F91FF90EF90089534
:101B7000EF92FF920F931F93982F813049F4E090DA
:101B8000AC05F090AD050091AE051091AF0508C011
:101B9000E090B005F090B1050091B2051091B30549
:101BA00080914B04886080934B0480914D04913068
:101BB00059F487FF04C082E061E00E9436318091D1
:101BC0004D0486FF0FC00AC085FF04C082E061E0BB
:101BD0000E94363180914D0484FF04C083E061E0AF
:101BE0000E943631C801B7014AE45EE00E948529AF
:101BF0000E94CD291F910F91FF90EF9008950E94B0
:101C0000E32980915304882311F086E001C085E028
:101C100060E070E00E949730809162048F5F809353
:101C20006204E0915304F0E0E35AFB4F1082089500
:101C30000E94E32984E080934E0408950E94E329E2
:101C40008CE060E00E94363182E080934E0408957B
:101C50000E94E32980914B048F7B80934B048091F9
:101C60004B04806280934B0408958DE060E00E94F5
:101C700036318CE060E00E9436310E94E329809189
:101C80004B048F7B80934B0480914B048062809344
:101C90004B04089580914D04807A21F082E060E049
:101CA0000E94363180914D04807521F083E060E020
:101CB0000E9436310E94E32980914B04877F8093F4
:101CC0004B040895AF92BF92CF92DF92FF920F9391
:101CD0001F93F82E5A016B0108EE15E0C8010E940F
:101CE000F02CEF2DF0E0EE0FFF1FEE0FFF1FE95677
:101CF000FB4FA082B182C282D382F394C8016F2DC0
:101D000041E00E94852AC8016F2DA60195010E941D
:101D1000DE2D1F910F91FF90DF90CF90BF90AF907D
:101D200008951F93182F88EE95E00E94F02C4091A3
:101D30009F04E12FF0E020E830E0012E02C035954D
:101D400027950A94E2F7842F90E082239323892B2E
:101D500061F4422B40939F041F5FED56FB4F88EECA
:101D600095E0612F40810E949B2E1F9108958091E4
:101D70009F0487FD17C0609197047091980480912B
:101D8000990490919A0420E030E040E050E00E94F5
:101D9000C13718163CF4809193048093950480E039
:101DA0000E94910E80919F0486FD17C060919B0454
:101DB00070919C0480919D0490919E0420E030E0FD
:101DC00040E050E00E94C13718163CF48091940422
:101DD0008093960481E00E94910E0895BF92CF9265
:101DE000DF92EF92FF920F931F93D82EB62EE8EE5C
:101DF000EE2EE5E0FE2EC7010E94F02CCD2CC39400
:101E0000C7016C2D43E00E94852A0D2D10E0F801DA
:101E1000EE0FFF1FEE0FFF1FEC54FA4F20813181B0
:101E200042815381C7016C2D0E94DE2DF801ED56D1
:101E3000FB4F80810B561B4FD8018C93B0828D2DA8
:101E40000E94910E1F910F91FF90EF90DF90CF9025
:101E5000BF900895EF92FF921F93182FF8EEEF2E88
:101E6000F5E0FF2EC7010E94F02C80E890E0012EE3
:101E700002C0959587950A94E2F7809520919F047A
:101E8000282320939F041F5FC701612F0E94952C78
:101E90001F91FF90EF900895AF92BF92CF92DF9283
:101EA000EF92FF920F931F93182F5A016B01A8EE28
:101EB000EA2EA5E0FA2EC7010E94F02CE12FF0E0F7
:101EC00080E890E0012E02C0959587950A94E2F78C
:101ED00020919F04282B20939F041F5FED56FB4FFA
:101EE000C701612F4081960185010E94222F1F9119
:101EF0000F91FF90EF90DF90CF90BF90AF9008953B
:101F0000AF92BF92CF92DF92EF92FF920F931F9307
:101F100020915E0530915F0521153105E1F140E02A
:101F200050E08091810490918204A0918304B0914B
:101F3000840482179307A407B50768F18091D3053D
:101F4000882321F5609155047091560480E090E05B
:101F50000E940F3720E030E040E050E00E947236EF
:101F6000181684F0609157047091580480E090E056
:101F70000E940F3720E030E040E050E00E947236CF
:101F8000181624F480919505882329F01092D30522
:101F90000E94B10A32C080914E04823071F464E62E
:101FA00070E080E090E048E15EE00E9485290E94B8
:101FB000CD2983E080934E0420C08091950588232D
:101FC000E1F020915504309156042115310531F08E
:101FD0008091900590E02817390768F02091570408
:101FE000309158042115310541F08091910590E020
:101FF0002817390710F40E94260880919505882338
:1020000049F08091BC05882329F00E94B70E81E039
:102010008093D305809161048823A1F1209162040B
:10202000213019F58091D205882309F068C180918B
:102030007D0490917E04892BA9F060917F047091BA
:1020400080046115710571F02093D20580E090E065
:102050004FEF5DE00E94852981E00E94FB070E940E
:10206000CD294DC110926104CFC0809162048823B4
:1020700009F445C11092610481E08093D305109268
:10208000D2053DC180914B04887409F038C180911C
:102090004E04833009F0CDC132C180914B048F7D55
:1020A00080934B048091D505813081F51092D50540
:1020B0008091810490918204A0918304B091840462
:1020C0000196A11DB11D8093810490938204A09379
:1020D0008304B09384040E94500960915C05709160
:1020E0005D056115710591F080914B0480648093CA
:1020F0004B0480E090E048E25EE00E9485290E9467
:10210000CD291092D4051092D30516C080914D04AC
:10211000807379F08091B0059091B105A091B205DE
:10212000B091B3050097A105B10519F080E00E94B8
:10213000B80D81E08093D4058091D405813009F0F9
:10214000DEC08091BC05882309F4D9C08091950533
:10215000882309F0D4C0E0909704F090980400918F
:10216000990410919A04C801B70120E030E040E0E2
:1021700050E00E94C13718163CF480E0B801A70176
:102180000E944C0F1092D305E0909B04F0909C04A9
:1021900000919D0410919E04C801B70120E030E039
:1021A00040E050E00E94C13718160CF0A8C081E052
:1021B000B801A7010E944C0F5EC08091D405813008
:1021C00009F05CC080919505882309F057C0809183
:1021D000BC058823E9F080919F04807CC9F088EEDB
:1021E00095E061E00E94A72B882309F088C088EE63
:1021F00095E062E00E94A72B882309F080C08091BF
:102200009F048F7380939F0481E08093D30577C0F0
:1022100020917D0430917E042115310531F48091A7
:102220007F0490918004892B49F110926204232B42
:1022300041F080E00E94FB0760917D0470917E0474
:102240000DC080917F0490918004892B69F081E01A
:102250000E94FB0760917F047091800480E090E011
:102260004FEF5DE00E9485290E94CD2981E0809397
:1022700061041092D4051092D30541C08091BD0530
:10228000813021F080914C04807C41F080914C049D
:1022900085FF35C08F7D80934C042EC060914F0424
:1022A0007091500480915104909152040E940F3714
:1022B0005B016C010E94C92F0E940F377B018C01CA
:1022C0006091520570915305809154059091550588
:1022D00020E030E04AE754EC0E94C5379B01AC0196
:1022E000C801B7010E940E369B01AC01C601B501C1
:1022F0000E94723688231CF481E08093D10580917E
:10230000D105813009F0A0C080914D04807CF9F0A6
:102310008091AC059091AD05A091AE05B091AF054F
:102320000097A105B10599F08091D005882379F433
:1023300080916305882321F08091CF05882339F4AB
:1023400081E00E94B80D81E08093D0057DC020918E
:102350004E04243081F080915A0590915B05892BC1
:1023600051F080916305882309F468C08091CF05FE
:10237000882309F463C080914B0483FD5FC0809182
:102380006305882321F08091CF05882351F40E94B2
:10239000C92F60934F04709350048093510490931D
:1023A000520490916305992321F08091CF058917FC
:1023B00050F081E08093D5051092D1051092D005A0
:1023C0001092CF050FC0882341F060916005709195
:1023D000610580E090E00E94D72F8091CF058F5F4C
:1023E0008093CF05609156057091570580915805EF
:1023F000909159050E94940D10924E0425C02223FD
:1024000019F580914B0483FD1FC08CE061E00E94B0
:10241000363160915A0570915B0580E090E04EE1A5
:102420005EE00E9485290E94CD2981E080934E04C0
:102430000BC080914B0485FD30CEBFCE80915A05F4
:1024400090915B05892BD9F61F910F91FF90EF902A
:10245000DF90CF90BF90AF900895CF93DF93CCEBF8
:10246000D0E085E196E0BE010E946E2FFE01EB56A2
:10247000FB4F8083219681E0CF32D80791F7DF911F
:10248000CF910895CF93DF93C0E2D0E085E196E04D
:10249000BE010E946E2FFE01EB56FB4F80832196FA
:1024A000CC3BD10599F7DF91CF910895CF93DF937E
:1024B0000E9442120E942D1280EA94E00E948E280F
:1024C00080EA94E065E971E00E94233580EA94E0B7
:1024D0006091B5044AE050E00E94BE3480EA94E086
:1024E00060E041E00E945F2880EA94E061EA71E0E8
:1024F0000E94233580EA94E0609151054AE050E063
:102500000E94BE3460ED77E080E090E00E94D72F1B
:1025100080EA94E00E948E288091B5048D3521F4E4
:10252000809150058D3529F1C0E2D0E0FE01ED54D7
:10253000FD4F85E196E0BE0140810E94752F2196F6
:10254000CC3BD10599F780EA94E06DEA71E00E94F6
:10255000233580EA94E06DE570E04AE050E00E94A7
:1025600010350E94421260ED77E080E090E00E941A
:10257000D72F809151058D3521F48091C3058D357C
:1025800061F1CCEBD0E0FE01ED54FD4F85E196E02A
:10259000BE0140810E94752F219681E0CF32D8077D
:1025A00091F780EA94E060E041E00E945F2880EAD1
:1025B00094E069EB71E00E94233580EA94E06DE5D8
:1025C00070E04AE050E00E9410350E942D1260ED4C
:1025D00077E080E090E00E94D72F80916405909191
:1025E00065059093560480935504809166059091FB
:1025F00067059093580480935704809168059091E3
:10260000690590935A048093590480916A059091CA
:102610006B0590935C0480935B04DF91CF910895E8
:10262000CF93DF93C0E2D0E085E196E0BE010E9447
:102630006E2FFE01EB56FB4F4081841729F085E198
:1026400096E0BE010E94752F2196CC3BD10561F723
:10265000CCEBD0E085E196E0BE010E946E2FFE013A
:10266000EB56FB4F4081841729F085E196E0BE01CF
:102670000E94752F219681E0CF32D80759F7DF915C
:10268000CF910895EF92FF920F931F93982F10927E
:10269000470487E080934A04992321F0913009F0A0
:1026A0006AC031C0613031F5E0903204F0903304FB
:1026B0000091340410913504C801B70120E030E0E6
:1026C0004FEA53E40E94C137181654F40F2EF0E07D
:1026D000EF2EF0E0FF2EFFEA0F2FF3E41F2FF02D77
:1026E000E092B405F092B5050093B6051093B705D6
:1026F0000E9410138091B4059091B505A091B60584
:10270000B091B70530C0613031F5E0903204F090FF
:1027100033040091340410913504C801B70120E05E
:1027200030E04FEA53E40E94C137181654F40F2EDC
:10273000F0E0EF2EF0E0FF2EFFEA0F2FF3E41F2F63
:10274000F02DE092B805F092B9050093BA05109308
:10275000BB050E9410138091B8059091B905A09116
:10276000BA05B091BB058093320490933304A093D3
:102770003404B09335041F910F91FF90EF900895AA
:1027800091E090934A048823B1F4613069F4809118
:102790003604882311F080E001C08EE58093B504F3
:1027A000809350050E9410138091B5048E35E9F492
:1027B0008091500515C0613069F4809136048823FA
:1027C00011F080E001C08EE5809351058093C30530
:1027D0000E941013809151058E3539F48091C30504
:1027E0008E3519F410923604089581E080933604F2
:1027F000089510924704833009F46EC0843030F499
:102800008130E1F1823008F04AC00DC0853009F412
:1028100085C0853008F471C0863009F48FC08730D8
:1028200009F0D4C0B9C087E080934A0481E0809366
:102830004704613091F48091320490913304A09167
:102840003404B09135048093520590935305A093BE
:102850005405B09355050E94101380915205909134
:102860005305A0915405B09155058093320490937F
:102870003304A0933404B09335040895613051F4C7
:1028800080912E0490912F0490935F0580935E05B4
:102890000E94101380915E0590915F0572C06130B7
:1028A00091F480912E0490912F04A0913004B09166
:1028B00031048093560590935705A0935805B09323
:1028C00059050E9410138091560590915705A091CB
:1028D0005805B091590557C0613051F480912E04CC
:1028E00090912F0490935D0580935C050E941013D6
:1028F00080915C0590915D0544C0613051F48091F8
:102900002E0490912F0490935B0580935A050E94AA
:10291000101380915A0590915B0533C081E080933C
:102920004A04613031F480913604809362050E943C
:102930001013809162058093360408956130F1F49C
:1029400080912E0490912F04A0913004B091310415
:102950008F3F9105A105B10529F020F08FEF90E0A0
:10296000A0E0B0E080932E0490932F04A093300455
:10297000B0933104809363050E9410138091630526
:1029800090E0A0E0B0E080932E0490932F04A093F9
:102990003004B09331040895613051F480912E04D5
:1029A00090912F0490936105809360050E9410130D
:1029B0008091600590916105A0E0B0E080932E04C5
:1029C00090932F04A0933004B09331040895AF92F4
:1029D000BF92CF92DF92EF92FF920F931F93A82E98
:1029E000BB24CB01BA01A90198010E94C5376B0134
:1029F0007C0101E515E0F501EE0FFF1FEE0FFF1F53
:102A0000E00FF11FC7A6D0AAE1AAF2AA0A0D1B1D6A
:102A1000015C1F4F67A970AD81AD92ADA701960112
:102A20000E94763620E030E04FE753E40E94C5373D
:102A30000E94E336F8016083AA0CBB1C88E995E08C
:102A4000A80EB91EC701B60120E030E048EC52E400
:102A50000E94C5370E94E336F501718360830E94AE
:102A600010131F910F91FF90EF90DF90CF90BF90C8
:102A7000AF9008950F931F9310924A04E82FF0E04F
:102A8000E231F10508F032C2EC5CFF4FEE0FFF1FA0
:102A90000590F491E02D099481E080934A0461301F
:102AA00031F4809136048093C1050E941013809107
:102AB000C1051AC284E080934A04613031F48091E8
:102AC0003604809394050E941013809194050CC2E3
:102AD00085E080934A04613031F48091360480931C
:102AE00095050E94101380919505FEC16130C1F4D7
:102AF00080912E0490912F04A0913004B091310464
:102B00008F3F9105A105B10529F020F08FEF90E0EE
:102B1000A0E0B0E08093C0050E9412080E9410134C
:102B20008091C00552C1613051F480912E04909182
:102B30002F049093A7058093A6050E9410138091FF
:102B4000A6059091A70542C181E080934A046130B7
:102B500031F4809136048093A8050E94101380916F
:102B6000A805C2C189E080934A04613059F480917C
:102B70002E048093A9050E94101380E060912E041A
:102B80000E94050C8091A90520C189E080934A0428
:102B9000613049F460912E046093AA0581E00E949F
:102BA000050C0E9410138091AA050FC181E080934B
:102BB0004A04613009F0DDC0109136048091AB0504
:102BC000181709F4D6C0882309F451C06091700524
:102BD0007091710580917205909173052CE53FE825
:102BE00042E250E40E94763660937005709371055E
:102BF00080937205909373056091880570918905A3
:102C000080918A0590918B052CE53FE842E250E4E3
:102C10000E947636609388057093890580938A05B3
:102C200090938B0560917405709175058091760580
:102C3000909177052CE53FE842E250E40E94763619
:102C4000609374057093750580937605909377056E
:102C500060918C0570918D0580918E0590918F0506
:102C60002CE53FE842E250E40E94763650C0609185
:102C700070057091710580917205909173052CE536
:102C80003FE842E250E40E94C537609370057093BC
:102C9000710580937205909373056091880570911A
:102CA000890580918A0590918B052CE53FE842E2E9
:102CB00050E40E94C537609388057093890580931E
:102CC0008A0590938B0560917405709175058091CC
:102CD0007605909177052CE53FE842E250E40E94AA
:102CE000C53760937405709375058093760590934E
:102CF000770560918C0570918D0580918E0590917E
:102D00008F052CE53FE842E250E40E94C53760930E
:102D10008C0570938D0580938E0590938F0510938D
:102D2000AB050E9410134091780550917905609190
:102D30007A0570917B0500917005109171052091C5
:102D400072053091730580E00E94E71440917C0584
:102D500050917D0560917E0570917F05009174050D
:102D600010917505209176053091770581E00E94DC
:102D7000E7148091AB05B8C081E080934A046130CC
:102D800031F4809136048093BC050E941013809129
:102D9000BC05AAC08AE080934A04613031F4809176
:102DA0002E0480934E050E94101380914E050DC095
:102DB0008AE080934A04613031F480912E0480933C
:102DC0004F050E94101380914F0590E0A0E0B0E005
:102DD00039C0613091F480912E0490912F04A0911C
:102DE0003004B09131048093AC059093AD05A0936D
:102DF000AE05B093AF050E9410138091AC05909181
:102E0000AD05A091AE05B091AF051CC0613091F445
:102E100080912E0490912F04A0913004B091310440
:102E20008093B0059093B105A093B205B093B3051C
:102E30000E9410138091B0059091B105A091B20548
:102E4000B091B30580932E0490932F04A093300487
:102E5000B09331044BC081E080934A04613031F477
:102E6000809136048093BD050E9410138091BD05AA
:102E70003BC081E080934A04613031F48091360494
:102E80008093BF050E9410138091BF052DC081E083
:102E900080934A04613059F480913604882311F0FC
:102EA00083E001C082E08093BE050E94101310925F
:102EB00036048091BE058230C9F081E015C081E002
:102EC00080934A04613071F41091C90580E00E943A
:102ED000C40C809136048093C205812F0E94C40CDB
:102EE0000E9410138091C205809336041F910F91A8
:102EF0000895FF920F931F93F42E10924A0484308A
:102F000009F48CC0853050F4813049F18130C8F02B
:102F10008230E1F1833009F067C151C0873009F494
:102F2000BDC0883038F4853009F48BC0863009F094
:102F30005BC18CC0883009F4EBC0893009F054C102
:102F40001EC1613039F4842F60912E040E94630306
:102F50000E941013EF2DF0E0EA56FA4F39C16130AC
:102F600071F4E42FF0E0EE0FFF1FE256FA4F80916C
:102F70002E0490912F04918380830E941013EF2DD3
:102F8000F0E0EE0FFF1FE256FA4F16C0613071F409
:102F9000E42FF0E0EE0FFF1FEE55FA4F80912E0464
:102FA00090912F04918380830E941013EF2DF0E005
:102FB000EE0FFF1FEE55FA4F808191810BC187E024
:102FC00080934A046130E9F4E42FF0E04091320448
:102FD000509133046091340470913504EE0FFF1F5B
:102FE000EE0FFF1FEF5AFA4F47A350A761A772A732
:102FF000078D10A121A132A18F2D0E94E7140E94FC
:103000001013EF2DF0E0EE0FFF1FEE0FFF1FEF5A32
:10301000FA4F87A190A5A1A5B2A5A8C088E080938A
:103020004A04613049F4E42FF0E0E456FA4F80910D
:103030002E0480830E941013EF2DF0E0E456FA4F27
:10304000C7C0409353040E94E70CCEC087E0809332
:103050004A046130B1F4E42FF0E0EE0FFF1FEE0FF1
:10306000FF1FEA5BFA4F8091320490913304A091E4
:103070003404B091350480839183A283B3830E948A
:103080001013EF2DF0E0EE0FFF1FEE0FFF1FEA5BB6
:10309000FA4F80819181A281B38168C080934A04F4
:1030A000613049F5042F10E06091320470913304CF
:1030B0008091340490913504F801EE0FFF1FEE0F5C
:1030C000FF1FEF5AFA4F67AB70AF81AF92AF005757
:1030D0001A4F27A530A941A952A90E94763620E0AF
:1030E00030E04FE753E40E94C5370E94E336F80111
:1030F00060830E941013EF2DF0E0EE0FFF1FEE0F24
:10310000FF1FEF5AFA4F87A990ADA1ADB2AD2EC007
:1031100087E080934A046130E9F4E42FF0E0009105
:103120003204109133042091340430913504EE0FB1
:10313000FF1FEE0FFF1FEF5AFA4F078F10A321A3B7
:1031400032A347A150A561A572A58F2D0E94E71457
:103150000E941013EF2DF0E0EE0FFF1FEE0FFF1F88
:10316000EF5AFA4F878D90A1A1A1B2A180933204AA
:1031700090933304A0933404B093350435C0613088
:1031800019F580912E0490912F04A0913004B091F4
:1031900031048F3F9105A105B10569F060F08FEF13
:1031A00090E0A0E0B0E080932E0490932F04A093D1
:1031B0003004B0933104EF2DF0E0EE56FA4F8091D9
:1031C0002E0480830E941013EF2DF0E0EE56FA4F8C
:1031D000808190E0A0E0B0E080932E0490932F04D3
:1031E000A0933004B09331041F910F91FF90089584
:1031F0000F931F93CF93DF93082F162F80915404C2
:10320000E82FF0E0C02FD0E0EE0FFF1FEF5AFA4F8B
:10321000EC0FFD1F838D861719F0638F0E9410132A
:103220008091BF05882329F080E0112309F481E013
:10323000182FE0915404F0E0EE0FFF1FEC0FFD1F7C
:10324000EE0FFF1FEB5AFB4FC081D18180914B04E1
:1032500084FF0BC0802F60E070E00E945F0868EC84
:1032600070E080E090E00E94D72F002369F4612F86
:103270008FE00E94363180914B0484FF0BC0802F79
:10328000BE010E945F0806C060E0112309F461E0FE
:1032900080E1EFCFDF91CF911F910F9108951F93A0
:1032A000182F8091480488608093480480E062E091
:1032B0000E94050C81E080935404109253048BE02B
:1032C00080934A0480912E0490912F04A0913004A1
:1032D000B09131040097A105B10571F480914B04C0
:1032E00084FF25C080E060E00E94290A80914B04A1
:1032F0008B7F80934B041BC00197A105B105B9F4E6
:1033000080914B0484FD13C080914B0484608093B2
:103310004B04113019F480E060E002C080E061E00D
:103320000E94F8188091530461E00E94290A1F91BD
:103330000895982FE82FF0E0EB53FD4F808186171A
:10334000E0F110924A04943001F1953038F4923053
:1033500091F09330A0F4913081F509C09630F9F0E6
:103360009630C0F0973001F1983039F522C0862FA1
:103370000E947C0D0895862F642F40E003C0862FA5
:10338000642F41E00E9479170895862F642F0E94D0
:10339000F9130895862F642F0E944F190895862FE0
:1033A000642F0E94C0130895862F642F0E943A153F
:1033B0000895862F642F0E94421308951F93CF9380
:1033C000DF93EC01142F613009F0AEC180EA94E084
:1033D0000E948E288AE194E060E270E041E150E0D2
:1033E0000E94F60180EA94E00E94452880EA94E079
:1033F00060E040E00E945F2880912C0480932D04BF
:10340000E82FF0E0EE0FFF1FEC0FFD1F65917491A8
:103410008AE194E00E94EF0180EA94E065EC71E0BB
:103420000E94233580EA94E06AE174E00E9423352B
:1034300080EA94E060E041E00E945F281123D1F52A
:1034400040912C04842F90E0E0912B04F0E0EB53AA
:10345000FD4F208130E08217930734F54F5F409392
:103460002D048AE194E060E270E041E150E00E94C6
:10347000F60180912C04E82FF0E03196EE0FFF1F4B
:10348000EC0FFD1F659174918AE194E00E94EF01B9
:1034900080EA94E068EC71E00E94233580EA94E0D1
:1034A0006AE174E00E942335809148048F7C809308
:1034B000480454C18091480480628093480484FD8C
:1034C0000CC080912B0460912C0440E00E9499195B
:1034D0008091480480618093480480914A04873039
:1034E00079F4409132045091330460913404709126
:1034F000350480EA94E022E030E00E940A362EC1D2
:10350000813081F480913604813029F480EA94E09E
:1035100060E171E004C080EA94E063E171E00E9440
:1035200023351CC1823071F480913604813029F436
:1035300080EA94E06BEC71E0F2CF80EA94E06EEC0C
:1035400071E0EDCF833071F480913604813029F43D
:1035500080EA94E061ED71E0E2CF80EA94E064ED0E
:1035600071E0DDCF843071F480913604813029F42C
:1035700080EA94E067ED71E0D2CF80EA94E06BEDF1
:1035800071E0CDCF853071F480913604813029F41B
:1035900080EA94E06FED71E0C2CF80EA94E06AEED9
:1035A00071E0BDCF863071F480913604813029F40A
:1035B00080EA94E065EF71E0B2CF80EA94E06CEFCE
:1035C00071E0ADCF883019F580912E0490912F04D1
:1035D000A0913004B09131040097A105B10529F400
:1035E00080EA94E060E070E00DC00197A105B105AC
:1035F00029F480EA94E06DE270E004C080EA94E08F
:103600006AE570E04AE050E00E941035A7C08930BA
:1036100009F05BC080912E0490912F04A09130049A
:10362000B09131040097A105B10529F480EA94E036
:1036300063E072E074CF81309105A105B10529F4F2
:1036400080EA94E06CE072E06ACF82309105A105D7
:10365000B10529F480EA94E062E172E060CF833042
:103660009105A105B10529F480EA94E067E172E0D3
:1036700056CF84309105A105B10529F480EA94E084
:103680006EE172E04CCF85309105A105B10529F4BA
:1036900080EA94E06DE272E042CF86309105A105A8
:1036A000B10529F480EA94E068E372E038CF079727
:1036B000A105B10529F480EA94E062E472E02FCF1D
:1036C00080EA94E06BE472E02ACF8A3041F4809182
:1036D0002E0490912F0460E00E9483073FC0409128
:1036E0002E0450912F0460913004709131048B307E
:1036F000A1F4411551056105710529F480EA94E0B2
:1037000066E572E00CCF413051056105710531F578
:1037100080EA94E06EE572E002CF80EA94E02AE06D
:1037200030E00E94AF341AC08091480485FD16C075
:1037300080EA94E060E040E00E945F2880EA94E044
:1037400060E20E94273480EA94E060E041E00E9459
:103750005F2880EA94E06EE30E942734DF91CF91E6
:103760001F9108950F931F93182F062F80E00E943A
:10377000C40C1130E1F4E0912C04EE2339F4E09113
:103780002B04F0E0EB53FD4F908102C09E2F91502F
:1037900090932C0480912D04981700F1E0912B0454
:1037A000F0E0EB53FD4F8081981719F517C01230E8
:1037B000D1F490912C04E0912B04F0E0EB53FD4FF9
:1037C0008081981710F090E001C09F5F90932C04C7
:1037D00080912D04891710F0992359F480EA94E020
:1037E0000E948E2804C0133011F010922C0461E066
:1037F00001C060E080912B04843001F1853048F4F1
:10380000813099F0813070F0823091F0833039F559
:1038100012C08630C9F08630A0F08730C1F0883001
:10382000F1F418C08BEA92E017C08BEB92E014C061
:1038300085EC92E011C089ED92E00EC08DEE92E031
:103840000BC081EC92E008C085E293E005C08DEFEB
:1038500092E002C081E293E0402F0E94DE191F91A6
:103860000F9108958091480480FF03C08E7F80935C
:1038700048049091480493FF0EC080914B0482FD50
:1038800049C010925404977F9093480480E060915F
:10389000A9050E94050C9091480495FF0AC09F7CE1
:1038A000909348041092470483E060E00E94B21BAA
:1038B000089580912B04882371F410922C049F7B2F
:1038C0009068909348040E94F30781E08093CE02B1
:1038D0000E94C40C089510922B0410922C04E4E072
:1038E000F0E0DF01A05FBB4F8C91882351F0815045
:1038F00080932B04EB5EFB4F808180932C041C9201
:1039000005C031978FEFEF3FF80759F783E060E08C
:103910000E94B21B089590912B04892F825082300F
:1039200038F480912C04853019F4892F65E010C09B
:1039300060912C04992319F0913081F408C0809192
:10394000C502861758F0262F2F5F2E3F29F4892FA6
:1039500040E00E94991908952F3F49F4809148044E
:1039600085FD22C083E061E00E94B21B0895E0E083
:10397000F0E0DF01A05FBB4F8C91882331F481E040
:103980008C93EB5EFB4F608304C03196E530F1050C
:1039900081F7809148048F7D8093480420932B0405
:1039A00080E060E00E94B21B0895AF92BF92CF9278
:1039B000DF92EF92FF920F931F93182F7B0180915C
:1039C0005304E0915404F0E0EE0FFF1FEF5AFA4F5A
:1039D000E80FF11DA38C642F0E94F818D0905304B7
:1039E0001130B1F5B70180E090E00E940F377B0104
:1039F0008C01ED2DF0E0EE0FFF1FE856FA4F6081CD
:103A0000718180E090E00E940F379B01AC01C801FA
:103A1000B7010E94763620E030E64AE657E40E947D
:103A2000C5370E94E3367B018C01109262048D2D14
:103A30000E94FB07B70180E090E04FEF5DE00E943D
:103A400085290E94CD29809162048823E1F34AC030
:103A5000ED2DF0E0EE0FFF1FEE0FFF1FDF01A3596A
:103A6000BB4FCC90EB58FB4FB0808D2DB70141E0A0
:103A70000E94E7040E94C92F7B018C010E94260846
:103A800003C08EE00E9475300E94C92F6E197F0915
:103A9000800B910B6059724E8040904090F30E94D1
:103AA000980A80915304E82FF0E0EE0FFF1FEE0F0D
:103AB000FF1FDF01A359BB4F2C2D30E040E050E049
:103AC0002D933D934D935C931397EB58FB4F2B2D08
:103AD00030E040E050E020833183428353836A2DFD
:103AE0000E94F8181F910F91FF90EF90DF90CF90F8
:103AF000BF90AF90089580914C048F7D80934C04CB
:103B000080914B04806980934B04E0915404F0E071
:103B1000EE0FFF1FEF5AFA4F80E0638D0E94F818F6
:103B2000E0915404F0E0EE0FFF1FE359FA4F81E0FB
:103B300060810E94F818E0915404F0E0EE0FFF1F3E
:103B4000EE0FFF1FEF5AFA4F6389748980E00E94DD
:103B50005F08E0915404F0E0EE0FFF1FEE0FFF1F2F
:103B6000ED5AFA4F6389748981E00E945F0880E012
:103B7000609196050E94630381E0609197050E9421
:103B8000630380E061E00E94290A81E061E00E9415
:103B9000290A80919605882329F080E060E070E092
:103BA0000E945F0880919705882329F081E060E0FA
:103BB00070E00E945F0810928104109282041092BB
:103BC0008304109284040895DF92EF92FF920F9382
:103BD0001F93D62E10924A0410924704833009F4A2
:103BE00041C0843030F4813059F0823009F0D7C0C0
:103BF00023C0843009F475C0853009F0D0C089C075
:103C000080EA94E060E040E00E945F28DD2049F017
:103C100080913604882319F00E947B1D02C00E9407
:103C2000B10A81E080934A0480914B0490E0880FB0
:103C3000892F881F990B6AC080EA94E060E041E018
:103C40000E945F28DD2041F090913604809193041A
:103C5000809395049093930483E080934A04809129
:103C6000930454C080EA94E061E041E00E945F2840
:103C700087E080934A0410924704E0903204F09069
:103C800033040091340410913504C801B70120E0D9
:103C900030E044EB53E40E94C137181654F40F2E61
:103CA000F0E0EF2EF0E0FF2EF4EB0F2FF3E41F2FE8
:103CB000F02DE0923204F092330400933404109318
:103CC0003504DD2029F080E0B801A7010E94620ED2
:103CD0008091970490919804A0919904B0919A04CE
:103CE00056C080EA94E068E041E00E945F28DD2051
:103CF00041F09091360480919404809396049093BF
:103D0000940483E080934A04809194048093360461
:103D100046C080EA94E069E041E00E945F2887E0C5
:103D200080934A0410924704E0903204F0903304E8
:103D30000091340410913504C801B70120E030E04F
:103D400044EB53E40E94C137181654F40F2EF0E0F0
:103D5000EF2EF0E0FF2EF4EB0F2FF3E41F2FF02DEA
:103D6000E0923204F092330400933404109335044B
:103D7000DD2029F081E0B801A7010E94620E809148
:103D80009B0490919C04A0919D04B0919E0480930B
:103D9000320490933304A0933404B09335041F91FC
:103DA0000F91FF90EF90DF90089580EA94E066E62F
:103DB00072E00E94233580EA94E060E041E00E94D6
:103DC0005F2880919304813021F480EA94E06CE4D0
:103DD00003C080EA94E062E50E9427346091970472
:103DE000709198048091990490919A040E94E3360E
:103DF000DC01CB0160E00E942F0780EA94E068E0DC
:103E000041E00E945F2880919404813021F480EA8F
:103E100094E064E403C080EA94E065E50E942734FE
:103E200060919B0470919C0480919D0490919E04EC
:103E30000E94E336DC01CB0161E00E942F078091F4
:103E4000CE02882319F060E00E94E41D089580915D
:103E50004B0487FF03C00E94B10A08950E947B1D96
:103E600008951F93182F0E94C10B982FE12FF0E0A7
:103E7000DF01AF56BB4F8C91981709F45EC09C933D
:103E8000992309F45AC080914B0482FF18C080E046
:103E900060E00E94290A80914B048B7F80934B0441
:103EA00010922E0410922F041092300410923104BC
:103EB00081EC92E061E041E00E94DE193EC0E755EE
:103EC000FA4F1081133091F0143028F4113041F082
:103ED000123099F508C0143061F0183071F50FC038
:103EE0000E947B1D2AC00E94B10A27C00E94271F82
:103EF00024C080914C04806280934C041EC060E01A
:103F0000E0915404F0E0EE0FFF1FEF5AFA4F838D5B
:103F1000882309F461E080E00E94F81860E0E091F5
:103F20005404F0E0EE0FFF1FE359FA4F808188231D
:103F300009F461E081E00E94F8181F9108951F9331
:103F4000982F162F10924A041092470480919F04D4
:103F500084FF04C0892F0E94E41D54C1933009F4EA
:103F60005FC0943030F4913071F0923009F04AC162
:103F700026C0953009F4C6C0953008F46AC0963062
:103F800009F040C1DAC080EA94E060E040E00E94BD
:103F90005F28112349F080913604882319F00E948C
:103FA0007B1D02C00E94B10A81E080934A04809187
:103FB0004B0490E0880F892F881F990BBBC080EAC3
:103FC00094E064E040E00E945F2887E080934A0428
:103FD00081E080934704112391F080913204909105
:103FE0003304A0913404B09135048093520590932A
:103FF0005305A0935405B09355050E94101380916A
:10400000520590915305A0915405B09155058093A8
:10401000320490933304A0933404B0933504F2C077
:1040200080EA94E060E041E00E945F28112329F0DB
:1040300080E0609136040E94F81883E080934A047F
:10404000E0915404F0E0EE0FFF1FEF5AFA4F838D1A
:1040500071C080EA94E061E041E00E945F288091B5
:10406000950520912E0430912F04409130045091F9
:104070003104882371F48091980590919905A0E00E
:10408000B0E0281739074A075B0778F4DA01C9015D
:104090000CC0DA01C9012F3F31054105510529F056
:1040A00020F08FEF90E0A0E0B0E080932E0490939A
:1040B0002F04A0933004B09331041123C9F0609110
:1040C0002E0470912F0480E00E945F08E091540458
:1040D000F0E0EE0FFF1FEE0FFF1FDF01AB5ABB4FEB
:1040E0008D919C91EF5AFA4F948B838B0E94101301
:1040F000E0915404F0E0EE0FFF1FEE0FFF1FEB5AAC
:10410000FB4F74C080EA94E068E041E00E945F28C1
:10411000112329F081E0609136040E94F81883E0B1
:1041200080934A04E0915404F0E0EE0FFF1FE3593E
:10413000FA4F80818093360465C080EA94E069E09C
:1041400041E00E945F288091950520912E043091D6
:104150002F044091300450913104882371F48091F0
:104160009A0590919B05A0E0B0E0281739074A070F
:104170005B0778F4DA01C9010CC0DA01C9012F3FED
:1041800031054105510529F020F08FEF90E0A0E0C6
:10419000B0E080932E0490932F04A0933004B0934A
:1041A00031041123D1F060912E0470912F0481E02D
:1041B0000E945F08E0915404F0E0EE0FFF1FEE0F45
:1041C000FF1F3296DF01AB5ABB4F8D919C91EF5A86
:1041D000FA4F948B838B0E941013E0915404F0E00B
:1041E000EE0FFF1FEE0FFF1FE95AFB4F80819181F9
:1041F000A0E0B0E080932E0490932F04A0933004AD
:10420000B09331041F9108951F93182F81E00E94ED
:10421000C40C4091BC05442331F080919F0484FF7D
:1042200002C025E001C026E08091CE02112371F08A
:104230008F5F8093CE02992787FD909530E02817F5
:104240003907B4F4442351F481E00FC0823024F0E4
:1042500081508093CE020CC0442331F080E00E9454
:10426000C40C1092CE0209C086E08093CE0205C035
:104270008091CE0260E00E949F1F1F910895982FA9
:104280008091480482FF2FC080919F0485FF18C051
:104290009130A9F187FF0FC080E00E942A0F409162
:1042A0009704509198046091990470919A0480E069
:1042B0000E94620E089580E061E00E94EE0E089573
:1042C000913071F480914B0484FD0AC080915304B5
:1042D00061E00E94F8188091530461E00E94290A6D
:1042E0000E941D0D089586FD04C080E00E940421F7
:1042F00008958091C105882311F00E94321C089511
:10430000982F8091480482FF2FC080919F0485FFE1
:1043100018C09130C1F187FF0FC080E00E942A0FC2
:1043200040919704509198046091990470919A0477
:1043300080E00E94620E089580E060E00E94EE0E30
:104340000895913071F480914B0484FD0AC08091EE
:10435000530460E00E94F8188091530461E00E94C9
:10436000290A0E941D0D089586FD04C081E00E9467
:10437000042108958091C105882319F00E948B1CA7
:1043800008950E94321C0895AF92BF92CF92DF929F
:10439000EF92FF920F931F930E94C60780919F0494
:1043A00084FF03C00E94D51ED1C00E94FD015B01A5
:1043B0006C01E0905205F090530500915405109166
:1043C0005505C801B701A60195010E9472368823E0
:1043D0002CF480EA94E0B601A50104C080EA94E0E0
:1043E000B801A70121E030E00E940A3680EA94E09B
:1043F0006EE672E00E9423358091810490918204E0
:10440000A0918304B0918404883E23E0920720E0C9
:10441000A20720E0B20720F080EA94E06AE014C02E
:1044200084369105A105B10520F080EA94E06BE0A7
:104430000BC00A97A105B10520F080EA94E06CE07A
:1044400003C080EA94E06DE040E00E945F2880EACB
:1044500094E06BE50E9427344091810450918204DE
:10446000609183047091840480EA94E02AE030E053
:104470000E94AF3480EA94E06DE50E94273480EA20
:1044800094E060E041E00E945F28E0915404F0E095
:10449000EE0FFF1FEF5AFA4F838D813021F480EA2F
:1044A00094E06CE403C080EA94E062E50E94273463
:1044B000E0915404F0E0EE0FFF1FEE0FFF1FEB5AE8
:1044C000FB4F2081918180919405882329F0822FD0
:1044D00060E00E94830703C0822F0E94420780EAA7
:1044E00094E068E041E00E945F28E0915404F0E02D
:1044F000EE0FFF1FE359FA4F8081813021F480EAEB
:1045000094E06CE403C080EA94E062E50E94273402
:10451000E0915404F0E0EE0FFF1FEE0FFF1FE95A89
:10452000FB4F2081918180919405882329F0822F6F
:1045300061E00E94830703C0822F0E94420780919E
:10454000CE02882319F060E00E949F1F1F910F91F7
:10455000FF90EF90DF90CF90BF90AF900895982F8D
:104560008091480480FF16C08091490487FF06C0EF
:1045700081E00E9415060E94A007089580916304BF
:10458000823010F082E001C08F5F809363040E944C
:10459000E70C089582FF2BC080919F0485FF1BC00C
:1045A000913009F456C086FF0FC081E00E942A0FA7
:1045B00040919B0450919C0460919D0470919E04D5
:1045C00081E00E94620E04C081E060E00E94EE0E75
:1045D0000E945B0D08956091D1027091D20280918A
:1045E000530441E00E946E0A0E941D0D08959091AF
:1045F000CE0286FD10C0992371F48091BC058823FA
:1046000041F180919F0484FF02C08F7E01C08061D0
:1046100080939F040895191674F481E00E94150692
:104620008091CE0261E00E949F1F809148048068C3
:1046300080934804089585FF08C081E00E94150614
:1046400083E061E00E94B21B089581E060E00E9477
:10465000B21B0895982F8091480480FF13C0809169
:10466000490487FF06C080E00E9415060E94A0074B
:1046700008958091630481118150809363040E94A6
:10468000E70C089582FF2EC080919F0485FF1BC018
:10469000913009F45FC086FF0FC081E00E942A0FAD
:1046A00040919B0450919C0460919D0470919E04E4
:1046B00081E00E94620E04C081E061E00E94EE0E83
:1046C0000E945B0D08956091D1027091D2027095A5
:1046D00061957F4F8091530441E00E946E0A0E94D1
:1046E0001D0D08959091CE0286FD10C0992371F49E
:1046F0008091BC05882371F180919F0484FF02C0E2
:104700008F7E01C0806180939F0408951916A4F4E0
:10471000913021F480914B0487FF03C080E00E9418
:1047200015068091CE0261E00E949F1F809148048F
:10473000806880934804089585FF08C080E00E9447
:10474000150683E061E00E94B21B089582E060E0FC
:104750000E94B21B0895982F8091480480FF16C0D4
:104760008091490486FF06C08F73809349040E949C
:10477000E70C089587FF07C0913009F460C081E01D
:104780008093640408950E94842408958091CE0249
:1047900018162CF480E00E94C40C1092CE02909166
:1047A000480492FF23C08091590490915A04909339
:1047B00069058093680580915B0490915C049093F7
:1047C0006B0580936A050E941013909148049B7FAB
:1047D0001092540480919F048F7D80939F04906475
:1047E0009093480481E080932B0407C096FD0AC093
:1047F00090649093480410922B0480E060E00E9443
:10480000B21B089595FF19C080912B0460912C0470
:1048100041E00E9499191092470480914A048B301C
:1048200019F483E061E007C0809148048F7C809395
:10483000480483E060E00E94B21B0E948B1C089534
:10484000813021F4862F0E94AB230895843021F417
:10485000862F0E942A230895853021F4862F0E94F6
:10486000AF220895823021F4862F0E94802108957E
:10487000833019F4862F0E943F2108951F930E94D0
:10488000620B182F0E94DF0A8823E1F1813069F45E
:104890001092CA0581E090E09093D2028093D102F9
:1048A000812F60E00E94202402C0823010F480E05A
:1048B00029C0833031F5812F61E00E94202480914E
:1048C000CA058F5F8093CA058A30D8F02091D10243
:1048D0003091D20283E0283E380758F4C90113E032
:1048E000880F991F1A95E1F7220F331F820F931F2C
:1048F00002C088EE93E09093D2028093D10210928E
:10490000CA0581E01F9108956F927F928F929F92C6
:10491000AF92BF92CF92DF92EF92FF920F931F93CD
:10492000CF93DF938091490480688093490487E0A6
:1049300080934A0410924704AA24BB24DA2C609185
:104940005304C62FD0E0FE01EE0FFF1FEE0FFF1F36
:10495000EF5AFA4F67A570A981A992A92AE037ED0D
:1049600043E25CE30E94C5373B014C01CC0FDD1FE5
:10497000C856DA4F6881798180E090E00E940F3755
:104980002AE037ED43E25CE30E94C5370E94E3363C
:104990007B018C0160923204709233048092340463
:1049A0009092350480EA94E00E948E2880EA94E098
:1049B00060E040E00E945F2880EA94E061E772E0F6
:1049C0000E94233580EA94E06BE50E942734D3945B
:1049D00080EA94E06D2D4AE050E00E94BE3480EA07
:1049E00094E06AE772E00E94233581E0B7014A2D26
:1049F0000E94D51C0E94A0071092640402C00E946D
:104A00003E24809164048823D1F32091630430E034
:104A10008091530490E0880F991F8C01A3E0000F50
:104A2000111FAA95E1F7080F191FC901880F991FD7
:104A3000820F931F880F991F080F191F0A0D1B1D46
:104A4000000F111F000F111F0B541B4FC401B301A6
:104A50002091320430913304409134045091350454
:104A60000E947636F801618372838383948308946D
:104A7000A11CB11CF2E0AF16B10409F05FCF61E0F8
:104A8000A62EB12C8A2D8A2C880C813019F4909096
:104A90004E0502C090904F05C0E0D0E080915304D5
:104AA000692D70E041E00E944C026B017C01609333
:104AB00032047093330480933404909335048394C8
:104AC00080EA94E00E948E2880EA94E060E040E072
:104AD0000E945F2880EA94E061E772E00E9423353B
:104AE00080EA94E06BE50E94273480EA94E0682D28
:104AF0004AE050E00E94BE3480EA94E06AE772E047
:104B00000E94233582E0692D70E04C2F0E94D51C55
:104B10000E94A0071092640402C00E943E2480916B
:104B200064048823D1F38091630490E020915304BE
:104B300030E08C01000F111F080F191FC90143E05D
:104B4000880F991F4A95E1F7820F931F080F191FCD
:104B50000A0D1B1D000F111F0C0F1D1F000F111F31
:104B6000000F111F0B541B4F6091320470913304DE
:104B70008091340490913504A70196010E94763605
:104B8000F80161837283838394832196C230D105B7
:104B900009F084CF0894A11CB11CF3E0AF16B10456
:104BA00009F070CF809149048F7780648093490425
:104BB0000E941013DF91CF911F910F91FF90EF9002
:104BC000DF90CF90BF90AF909F908F907F906F902D
:104BD0000895EF92FF920F931F9380E00E94311F80
:104BE00081E00E94311F8091480481FFEEC0E09077
:104BF0004304F090440400914504109146040E943F
:104C0000C92F4091A6055091A70528EE33E0F90180
:104C10004E9F90014F9F300D5E9F300D112440E05C
:104C200050E0621B730B840B950BE616F706080722
:104C3000190708F0CAC0809148048D7F809348040A
:104C40008091A805882321F080EA94E00E945728EB
:104C500089E060E00E94363132C0E0904304F09079
:104C6000440400914504109146040E94C92F4091CC
:104C7000A6055091A70528EE33E0F9014E9F90015B
:104C80004F9F300D5E9F300D112440E050E0621BBD
:104C9000730B840B950B6E157F058007910778F4D5
:104CA0008091480482608093480480EA94E00E94E6
:104CB0004D286091C00589E070E00E949730809196
:104CC000C205882399F18091C905882379F1E09084
:104CD0003F04F090400400914104109142040E946E
:104CE000C92F645F714080409040E616F7060807C0
:104CF0001907E0F48091CB05882339F080EA94E02D
:104D00000E9445281092CB0507C080EA94E00E94DB
:104D10003B2881E08093CB050E94C92F60933F041C
:104D2000709340048093410490934204809148041E
:104D300087FD17C0E0903B04F0903C0400913D04D7
:104D400010913E040E94C92F685E734080409040DD
:104D5000E616F7060807190718F58091480486FD3E
:104D60001FC08091480482FD03C00E94C42109C075
:104D700080919F0485FF03C00E945B0D02C00E94CA
:104D80001D0D809148048F77809348040E94C92F9D
:104D900060933B0470933C0480933D0490933E04E5
:104DA0000E943E24982F8091480482FF13C09923CB
:104DB00089F480914B0484FF0DC08091530460E01E
:104DC0000E94290A0E941D0D05C08091480481FDA2
:104DD00076CF43CF1F910F91FF90EF90089587EA10
:104DE00096E00E94EE321816190614F090E008C002
:104DF00087EA96E00E941F3390E0843509F491E041
:104E0000892F08958091BD05813049F40E94EF26D5
:104E1000813029F480914C04806280934C0480910D
:104E20004B0487FF03C00E94800F0EC0809148048E
:104E300082FD0AC080919F04807C31F080E00E9456
:104E40002A0F81E00E942A0F0E94E92508958DE033
:104E500061E00E94F7308CE061E00E94F73085E06D
:104E600061E00E94F73086E061E00E94F73080E167
:104E700061E00E94F7308FE061E00E94F73087EA3E
:104E800096E040E855E260E070E00E9467320E94E0
:104E9000670C0E94561280E06091A9050E94050CE3
:104EA00081E06091A9050E94050C8091C0050E94D7
:104EB000120881E00E94C40C0E94C92F6093430431
:104EC0007093440480934504909346040E94C42147
:104ED00008950F931F938C01FC01868160E00E946E
:104EE000363181E090E00E943030F801868161E047
:104EF0000E94363181E090E00E943030F8018681D6
:104F000060E00E94363184E690E00E9430301F91CC
:104F10000F910895CF92DF92EF92FF920F931F931C
:104F2000CF93DF93D82EC92E282F392FC9018C019A
:104F3000C0E0D0E0E62EFF24F801878161E00E9406
:104F4000F730B7010C2E02C0759567950A94E2F709
:104F50006170F80187810E94363121960F5F1F4FE3
:104F6000C830D10549F78D2D9C2D0E946927DF910E
:104F7000CF911F910F91FF90EF90DF90CF90089508
:104F8000CF92DF92EF92FF920F931F93CF93DF9315
:104F9000D82EC92E282F392FC9018C01C0E0D0E0AE
:104FA000E62EFF24F801878161E00E94F730B70107
:104FB0000C2E02C0759567950A94E2F76170F801AE
:104FC00087810E94363121960F5F1F4FC430D10573
:104FD00049F78D2D9C2D0E946927DF91CF911F915C
:104FE0000F91FF90EF90DF90CF9008951F93CF9394
:104FF000DF93EC01162F8C81642F0E9436318D8156
:105000008F3F19F060E00E9436318F8584FF05C024
:10501000CE01612F0E948A270EC0612F70E084E0CC
:10502000759567958A95E1F7CE010E94C027CE015C
:10503000612F0E94C027DF91CF911F91089541E019
:105040000E94F62781E090E0089540E00E94F62754
:105050000895FC016089862F8160808B6960CF0193
:105060000E9425280895FC0160896E7F608B68602E
:105070000E9425280895FC016089862F8260808B1C
:105080006A60CF010E9425280895FC0160896D7F28
:10509000608B68600E9425280895FC016089862F36
:1050A0008460808B6C60CF010E9425280895FC01EC
:1050B00060896B7F608B68600E9425280895DF936C
:1050C000CF93CDB7DEB728970FB6F894DEBF0FBEEB
:1050D000CDBF9C01FE013196A7EFB3E088E00D90B3
:1050E00001928150E1F7F9018389481710F0482FA8
:1050F0004150E42FF0E0EE0FFF1FEC0FFD1F818108
:10510000680F6068C9010E94252828960FB6F89498
:10511000DEBF0FBECDBFCF91DF91089561E00E9449
:10512000252880ED97E00E9430300895CF93DF93DB
:10513000EC01423018F08F8588608F874B8B1C8A7A
:10514000222329F0413019F48F8584608F8780E510
:1051500093EC0E9430308C8160E00E9436318E8169
:1051600060E00E9436318D818F3F19F060E00E942F
:1051700036316F8564FD1DC0CE0163E00E94C027FB
:1051800084E991E10E943030CE0163E00E94C027A3
:1051900084E991E10E943030CE0163E00E94C02793
:1051A00086E990E00E943030CE0162E00E94C02784
:1051B00016C06062CE010E94252884E991E10E9418
:1051C00030306F856062CE010E94252886E990E02C
:1051D0000E9430306F856062CE010E9425286F8565
:1051E0006062CE010E94252884E0888BCE010E9457
:1051F0004D28CE010E948E2882E0898BCE0166E088
:105200000E942528DF91CF9108956F927F928F920F
:10521000AF92CF92EF920F931F93DF93CF93CDB7BF
:10522000DEB73C01162F842FF301448325830683C8
:10523000E782C086A18682869D8593879E85948716
:105240009F8595879889968761E00E94F730F301E2
:1052500085818F3F19F061E00E94F730F30186816C
:1052600061E00E94F730112319F0F301178603C0A3
:1052700080E1F3018787C30160E141E020E00E9403
:105280009628CF91DF911F910F91EF90CF90AF9023
:105290008F907F906F9008958F92AF92CF92EF9200
:1052A0000F931F93CF93DF93DC01362F542F722F70
:1052B000102FAE2C8C2C13961C921E92129783EFFB
:1052C00093E011969C938E9300D000D0EDB7FEB77B
:1052D0003196CDB7DEB71982118212821382CD01C9
:1052E00061E0432F2FEF052FE72EC12E0E940529E5
:1052F0000F900F900F900F90DF91CF911F910F9112
:10530000EF90CF90AF908F90089561157105810552
:10531000910569F481E090E0A0E0B0E08093D605CB
:105320009093D705A093D805B093D90508C0609392
:10533000D6057093D7058093D8059093D9055093DF
:10534000DB054093DA05809170008E7F80937000BA
:105350008091B0008C7F8093B0008091B100877FF6
:105360008093B1008091B6008F7D8093B6008091CC
:1053700070008D7F809370008091B1008460809375
:10538000B1008091B1008C7F8093B10086E090E005
:105390009093E2058093E10508951092DC05109248
:1053A000DD051092DE051092DF051092E005809178
:1053B000E1059091E2058093B200E0E7F0E08081A2
:1053C000816080830895E0E7F0E080818E7F8083B4
:1053D00008958091DC059091DD05A091DE05B091E6
:1053E000DF050196A11DB11D8093DC059093DD05BD
:1053F000A093DE05B093DF058091DC059091DD057B
:10540000A091DE05B091DF052091D6053091D7053A
:105410004091D8055091D90582179307A407B50785
:1054200010F18091E0058823F1F481E08093E0059C
:105430008091DC059091DD05A091DE05B091DF053E
:10544000821B930BA40BB50B8093DC059093DD05B9
:10545000A093DE05B093DF05E091DA05F091DB055E
:1054600009951092E00508951F920F920FB60F92C2
:1054700011242F933F934F935F936F937F938F9359
:105480009F93AF93BF93EF93FF938091E10590912A
:10549000E2058093B2000E94E929FF91EF91BF914C
:1054A000AF919F918F917F916F915F914F913F91BC
:1054B0002F910F900FBE0F901F9018951F920F9273
:1054C0000FB60F9211242F933F934F935F936F93D7
:1054D0007F938F939F93AF93BF93EF93FF93E0914D
:1054E000E305F091E4050995FF91EF91BF91AF912C
:1054F0009F918F917F916F915F914F913F912F91EC
:105500000F900FBE0F901F901895E62FF0E0319787
:10551000E80FF91F818141830895FB0120E030E00D
:1055200040E050E065E070E094E0220F331F441F3C
:10553000551F9A95D1F79481892F80538A3030F482
:10554000892F992787FD9095C09709C0892F81548D
:10555000863068F4892F992787FD9095C797AA27E9
:1055600097FDA095BA2F280F391F4A1F5B1F84E0B3
:10557000220F331F441F551F8A95D1F79581892F1C
:1055800080538A3030F4892F992787FD9095C097F2
:1055900009C0892F8154863068F4892F992787FDA7
:1055A0009095C797AA2797FDA095BA2F280F391F66
:1055B0004A1F5B1F6250704032978FEF6F3F780732
:1055C00009F0B2CFB901CA01089581E08093E905DD
:1055D0008093EA051092FB051092FC051092FD05E0
:1055E0001092FE051092FF0510920006109201061F
:1055F0001092020610920B0610920C0610920D06E5
:1056000010920E0610920F061092100610921106BC
:1056100010921206109203061092040610920506CC
:1056200010920606109207061092080610920906BC
:1056300010920A0684E690E0909314068093130675
:105640001092E80508950F931F93CF93DF93EB011A
:1056500087EA96E00E94EE32892BD1F300E010E059
:1056600015C087EA96E00E941F338D3311F411E0D4
:105670000DC0912F813211F491E007C0113029F44F
:10568000FE01E00FF11D80830F5F192F87EA96E07E
:105690000E94EE321816190624F3C00FD11D18828D
:1056A000DF91CF911F910F910895EF92FF920F9389
:1056B0001F938C017A0187EA96E00E94233562E30A
:1056C00070E080E090E00E94D72FC801B7010E94EF
:1056D000232B1F910F91FF90EF900895DF92EF928F
:1056E000FF920F931F93DF93CF93CDB7DEB76097F1
:1056F0000FB6F894DEBF0FBECDBF7C01D62E07EAF1
:1057000016E0C80161E872E00E942335C8016D2DE2
:105710004AE050E00E94BE34C70164E872E08E01A6
:105720000F5F1F4FA8010E94552BC701B8010E94AF
:105730008D2A60960FB6F894DEBF0FBECDBFCF9115
:10574000DF911F910F91FF90EF90DF900895FF92EE
:105750000F931F93DF93CF93CDB7DEB760970FB64C
:10576000F894DEBF0FBECDBF8C01F62E87EA96E01F
:1057700066E872E00E94233587EA96E06F2D4AE0E2
:1057800050E00E94BE34C80164E872E0AE014F5F91
:105790005F4F0E94552B90E08A81803309F091E0A1
:1057A000892F60960FB6F894DEBF0FBECDBFCF91A4
:1057B000DF911F910F91FF900895DF92EF92FF927A
:1057C0000F931F93DF93CF93CDB7DEB760970FB6DC
:1057D000F894DEBF0FBECDBF7C01D62E07EA16E0DF
:1057E000C80169E872E00E942335C8016D2D4AE0C6
:1057F00050E00E94BE34C70164E872E08E010F5F82
:105800001F4FA8010E94552BC701B8010E948D2A85
:1058100060960FB6F894DEBF0FBECDBFCF91DF917B
:105820001F910F91FF90EF90DF900895CF92DF923C
:10583000EF92FF920F931F93DF93CF93CDB7DEB715
:1058400060970FB6F894DEBF0FBECDBF7C01D62E99
:10585000C42E07EA16E0C8016CE872E00E94233506
:10586000C8016D2D4AE050E00E94BE34F701ED0DF5
:10587000F11DC80160814AE050E00E94BE34C801B9
:105880006C2D4AE050E00E94BE34C70164E872E02B
:10589000AE014F5F5F4F0E94552B60960FB6F89494
:1058A000DEBF0FBECDBFCF91DF911F910F91FF9053
:1058B000EF90DF90CF900895DF92EF92FF920F93D9
:1058C0001F93DF93CF93CDB7DEB760970FB6F894F1
:1058D000DEBF0FBECDBF7C01D62E07EA16E0C801A1
:1058E0006FE872E00E942335C8016D2D4AE050E058
:1058F0000E94BE34C70164E872E08E010F5F1F4F43
:10590000A8010E94552BC701B8010E948D2A6096FC
:105910000FB6F894DEBF0FBECDBFCF91DF911F91C0
:105920000F91FF90EF90DF900895DF92EF92FF923A
:105930000F931F93DF93CF93CDB7DEB760970FB66A
:10594000F894DEBF0FBECDBF8C01D62E27EAE22E23
:1059500026E0F22EC70162E972E00E942335C701FA
:105960006D2D4AE050E00E94BE34C80164E872E048
:10597000AE014F5F5F4F0E94552B60960FB6F894B3
:10598000DEBF0FBECDBFCF91DF911F910F91FF9072
:10599000EF90DF900895BF92CF92DF92EF92FF9247
:1059A0000F931F937C01B62E6A0107EA16E0C80127
:1059B00065E972E00E942335C8016B2D4AE050E092
:1059C0000E94BE34C70164E872E0A6010E94552B14
:1059D0001F910F91FF90EF90DF90CF90BF900895AF
:1059E000EF92FF920F931F93DF93CF93CDB7DEB764
:1059F00060970FB6F894DEBF0FBECDBF7C01FC01EF
:105A000080818130A9F1C70168E972E08E010F5FE2
:105A10001F4FA8010E94552BC7016DE972E0A80134
:105A20000E94552BC70161E00E946E2BF701638B2A
:105A3000748B858B968BC70161E00E945C2CF7010B
:105A400063A374A385A396A3C70162E00E946E2B93
:105A5000F701678B708F818F928FC70162E00E9480
:105A60005C2CF70167A370A781A792A781E08083D0
:105A700081E060960FB6F894DEBF0FBECDBFCF9128
:105A8000DF911F910F91FF90EF900895AF92BF9219
:105A9000CF92DF92EF92FF920F931F93CF93DF93FA
:105AA0005A016B01C0E0D0E0860175010C2E04C0E4
:105AB00016950795F794E7940A94D2F78E2DEE2069
:105AC00039F487EA96E06EEA72E00E9423350EC050
:105AD000803128F487EA96E060E30E94273487EA61
